{
  "abi": [
    {
      "type": "constructor",
      "inputs": [
        {
          "name": "auctionHouse_",
          "type": "address",
          "internalType": "address"
        },
        {
          "name": "permissions_",
          "type": "tuple",
          "internalType": "struct Callbacks.Permissions",
          "components": [
            {
              "name": "onCreate",
              "type": "bool",
              "internalType": "bool"
            },
            {
              "name": "onCancel",
              "type": "bool",
              "internalType": "bool"
            },
            {
              "name": "onCurate",
              "type": "bool",
              "internalType": "bool"
            },
            {
              "name": "onPurchase",
              "type": "bool",
              "internalType": "bool"
            },
            {
              "name": "onBid",
              "type": "bool",
              "internalType": "bool"
            },
            {
              "name": "onSettle",
              "type": "bool",
              "internalType": "bool"
            },
            {
              "name": "receiveQuoteTokens",
              "type": "bool",
              "internalType": "bool"
            },
            {
              "name": "sendBaseTokens",
              "type": "bool",
              "internalType": "bool"
            }
          ]
        }
      ],
      "stateMutability": "nonpayable"
    },
    {
      "type": "function",
      "name": "AUCTION_HOUSE",
      "inputs": [],
      "outputs": [
        {
          "name": "",
          "type": "address",
          "internalType": "address"
        }
      ],
      "stateMutability": "view"
    },
    {
      "type": "function",
      "name": "lotBuyerSpent",
      "inputs": [
        {
          "name": "lotId",
          "type": "uint96",
          "internalType": "uint96"
        },
        {
          "name": "buyer",
          "type": "address",
          "internalType": "address"
        }
      ],
      "outputs": [
        {
          "name": "spent",
          "type": "uint256",
          "internalType": "uint256"
        }
      ],
      "stateMutability": "view"
    },
    {
      "type": "function",
      "name": "lotIdRegistered",
      "inputs": [
        {
          "name": "",
          "type": "uint96",
          "internalType": "uint96"
        }
      ],
      "outputs": [
        {
          "name": "",
          "type": "bool",
          "internalType": "bool"
        }
      ],
      "stateMutability": "view"
    },
    {
      "type": "function",
      "name": "lotMerkleRoot",
      "inputs": [
        {
          "name": "lotId",
          "type": "uint96",
          "internalType": "uint96"
        }
      ],
      "outputs": [
        {
          "name": "merkleRoot",
          "type": "bytes32",
          "internalType": "bytes32"
        }
      ],
      "stateMutability": "view"
    },
    {
      "type": "function",
      "name": "onBid",
      "inputs": [
        {
          "name": "lotId_",
          "type": "uint96",
          "internalType": "uint96"
        },
        {
          "name": "bidId",
          "type": "uint64",
          "internalType": "uint64"
        },
        {
          "name": "buyer_",
          "type": "address",
          "internalType": "address"
        },
        {
          "name": "amount_",
          "type": "uint256",
          "internalType": "uint256"
        },
        {
          "name": "callbackData_",
          "type": "bytes",
          "internalType": "bytes"
        }
      ],
      "outputs": [
        {
          "name": "",
          "type": "bytes4",
          "internalType": "bytes4"
        }
      ],
      "stateMutability": "nonpayable"
    },
    {
      "type": "function",
      "name": "onCancel",
      "inputs": [
        {
          "name": "lotId_",
          "type": "uint96",
          "internalType": "uint96"
        },
        {
          "name": "refund_",
          "type": "uint256",
          "internalType": "uint256"
        },
        {
          "name": "prefunded_",
          "type": "bool",
          "internalType": "bool"
        },
        {
          "name": "callbackData_",
          "type": "bytes",
          "internalType": "bytes"
        }
      ],
      "outputs": [
        {
          "name": "",
          "type": "bytes4",
          "internalType": "bytes4"
        }
      ],
      "stateMutability": "nonpayable"
    },
    {
      "type": "function",
      "name": "onCreate",
      "inputs": [
        {
          "name": "lotId_",
          "type": "uint96",
          "internalType": "uint96"
        },
        {
          "name": "seller_",
          "type": "address",
          "internalType": "address"
        },
        {
          "name": "baseToken_",
          "type": "address",
          "internalType": "address"
        },
        {
          "name": "quoteToken_",
          "type": "address",
          "internalType": "address"
        },
        {
          "name": "capacity_",
          "type": "uint256",
          "internalType": "uint256"
        },
        {
          "name": "prefund_",
          "type": "bool",
          "internalType": "bool"
        },
        {
          "name": "callbackData_",
          "type": "bytes",
          "internalType": "bytes"
        }
      ],
      "outputs": [
        {
          "name": "",
          "type": "bytes4",
          "internalType": "bytes4"
        }
      ],
      "stateMutability": "nonpayable"
    },
    {
      "type": "function",
      "name": "onCurate",
      "inputs": [
        {
          "name": "lotId_",
          "type": "uint96",
          "internalType": "uint96"
        },
        {
          "name": "curatorFee_",
          "type": "uint256",
          "internalType": "uint256"
        },
        {
          "name": "prefund_",
          "type": "bool",
          "internalType": "bool"
        },
        {
          "name": "callbackData_",
          "type": "bytes",
          "internalType": "bytes"
        }
      ],
      "outputs": [
        {
          "name": "",
          "type": "bytes4",
          "internalType": "bytes4"
        }
      ],
      "stateMutability": "nonpayable"
    },
    {
      "type": "function",
      "name": "onPurchase",
      "inputs": [
        {
          "name": "lotId_",
          "type": "uint96",
          "internalType": "uint96"
        },
        {
          "name": "buyer_",
          "type": "address",
          "internalType": "address"
        },
        {
          "name": "amount_",
          "type": "uint256",
          "internalType": "uint256"
        },
        {
          "name": "payout_",
          "type": "uint256",
          "internalType": "uint256"
        },
        {
          "name": "prefunded_",
          "type": "bool",
          "internalType": "bool"
        },
        {
          "name": "callbackData_",
          "type": "bytes",
          "internalType": "bytes"
        }
      ],
      "outputs": [
        {
          "name": "",
          "type": "bytes4",
          "internalType": "bytes4"
        }
      ],
      "stateMutability": "nonpayable"
    },
    {
      "type": "function",
      "name": "onSettle",
      "inputs": [
        {
          "name": "lotId_",
          "type": "uint96",
          "internalType": "uint96"
        },
        {
          "name": "proceeds_",
          "type": "uint256",
          "internalType": "uint256"
        },
        {
          "name": "refund_",
          "type": "uint256",
          "internalType": "uint256"
        },
        {
          "name": "callbackData_",
          "type": "bytes",
          "internalType": "bytes"
        }
      ],
      "outputs": [
        {
          "name": "",
          "type": "bytes4",
          "internalType": "bytes4"
        }
      ],
      "stateMutability": "nonpayable"
    },
    {
      "type": "function",
      "name": "setMerkleRoot",
      "inputs": [
        {
          "name": "lotId_",
          "type": "uint96",
          "internalType": "uint96"
        },
        {
          "name": "merkleRoot_",
          "type": "bytes32",
          "internalType": "bytes32"
        }
      ],
      "outputs": [],
      "stateMutability": "nonpayable"
    },
    {
      "type": "event",
      "name": "MerkleRootSet",
      "inputs": [
        {
          "name": "lotId",
          "type": "uint96",
          "indexed": false,
          "internalType": "uint96"
        },
        {
          "name": "merkleRoot",
          "type": "bytes32",
          "indexed": false,
          "internalType": "bytes32"
        }
      ],
      "anonymous": false
    },
    {
      "type": "error",
      "name": "Callback_ExceedsLimit",
      "inputs": []
    },
    {
      "type": "error",
      "name": "Callback_InvalidParams",
      "inputs": []
    },
    {
      "type": "error",
      "name": "Callback_NotAuthorized",
      "inputs": []
    },
    {
      "type": "error",
      "name": "Callback_NotImplemented",
      "inputs": []
    },
    {
      "type": "error",
      "name": "CallbacksAddressNotValid",
      "inputs": [
        {
          "name": "callbacks",
          "type": "address",
          "internalType": "address"
        }
      ]
    }
  ],
  "bytecode": {
    "object": "0x60a06040523480156200001157600080fd5b506040516200139e3803806200139e833981016040819052620000349162000169565b818181816200004430826200005c565b506001600160a01b0316608052506200028392505050565b805115156001609f1b83161515141580620000855750602081015115156001609e1b8316151514155b806200009f5750604081015115156001609d1b8316151514155b80620000b95750606081015115156001609c1b8316151514155b80620000d35750608081015115156001609b1b8316151514155b80620000ed575060a081015115156001609a1b8316151514155b8062000107575060c08101511515600160991b8316151514155b8062000121575060e08101511515600160981b8316151514155b156200014f576040516303b556f760e01b81526001600160a01b038316600482015260240160405180910390fd5b5050565b805180151581146200016457600080fd5b919050565b6000808284036101208112156200017f57600080fd5b83516001600160a01b03811681146200019757600080fd5b9250610100601f198201811315620001ae57600080fd5b60405191508082016001600160401b0381118382101715620001e057634e487b7160e01b600052604160045260246000fd5b604052620001f16020860162000153565b8252620002016040860162000153565b6020830152620002146060860162000153565b6040830152620002276080860162000153565b60608301526200023a60a0860162000153565b60808301526200024d60c0860162000153565b60a08301526200026060e0860162000153565b60c08301526200027281860162000153565b60e083015250809150509250929050565b6080516110ce620002d06000396000818161012c0152818161022b015281816103200152818161043a01528181610507015281816105ad0152818161065301526106fb01526110ce6000f3fe608060405234801561001057600080fd5b50600436106100a95760003560e01c806366e741671161007157806366e74167146101945780637008e731146101a7578063a5658c86146101d2578063a5b13f69146101e5578063b898895e146101f8578063fc4399821461020b57600080fd5b806309b9601c146100ae578063191e581e146100df5780631cae9eef146100f45780634226b1bf146101275780636003a35314610166575b600080fd5b6100c16100bc366004610ad3565b61021e565b6040516001600160e01b031990911681526020015b60405180910390f35b6100f26100ed366004610b44565b6102c4565b005b610117610102366004610b6e565b60006020819052908152604090205460ff1681565b60405190151581526020016100d6565b61014e7f000000000000000000000000000000000000000000000000000000000000000081565b6040516001600160a01b0390911681526020016100d6565b610186610174366004610b6e565b60016020526000908152604090205481565b6040519081526020016100d6565b6100c16101a2366004610b9e565b61042d565b6101866101b5366004610c46565b600260209081526000928352604080842090915290825290205481565b6100c16101e0366004610ad3565b6104fa565b6100c16101f3366004610c7d565b6105a0565b6100c1610206366004610cc8565b610646565b6100c1610219366004610d56565b6106ee565b6000336001600160a01b037f0000000000000000000000000000000000000000000000000000000000000000161461026957604051630d0ec32b60e31b815260040160405180910390fd5b6001600160601b038616600090815260208190526040902054869060ff166102a457604051630d0ec32b60e31b815260040160405180910390fd5b6102b18787878787610798565b5063026e580760e21b9695505050505050565b6001600160601b038216600090815260208190526040902054829060ff166102ff57604051630d0ec32b60e31b815260040160405180910390fd5b604051634f17001d60e11b81526001600160601b03841660048201526000907f00000000000000000000000000000000000000000000000000000000000000006001600160a01b031690639e2e003a90602401600060405180830381865afa15801561036f573d6000803e3d6000fd5b505050506040513d6000823e601f3d908101601f191682016040526103979190810190610e42565b50505050505050509050806001600160a01b0316336001600160a01b0316146103d357604051630d0ec32b60e31b815260040160405180910390fd5b6001600160601b038416600081815260016020908152604091829020869055815192835282018590527fdbc2d92066ee79fd64220430986d0e862a9224763dc143bdc4809fb5d7183102910160405180910390a150505050565b6000336001600160a01b037f0000000000000000000000000000000000000000000000000000000000000000161461047857604051630d0ec32b60e31b815260040160405180910390fd5b6001600160601b03891660009081526020819052604090205460ff16156104b2576040516363d2088f60e11b815260040160405180910390fd5b6001600160601b0389166000908152602081905260409020805460ff191660011790556104e589898989898989896107b1565b506366e7416760e01b98975050505050505050565b6000336001600160a01b037f0000000000000000000000000000000000000000000000000000000000000000161461054557604051630d0ec32b60e31b815260040160405180910390fd5b6001600160601b038616600090815260208190526040902054869060ff1661058057604051630d0ec32b60e31b815260040160405180910390fd5b61058d8787878787610798565b506352b2c64360e11b9695505050505050565b6000336001600160a01b037f000000000000000000000000000000000000000000000000000000000000000016146105eb57604051630d0ec32b60e31b815260040160405180910390fd5b6001600160601b038616600090815260208190526040902054869060ff1661062657604051630d0ec32b60e31b815260040160405180910390fd5b6106338787878787610798565b5063a5b13f6960e01b9695505050505050565b6000336001600160a01b037f0000000000000000000000000000000000000000000000000000000000000000161461069157604051630d0ec32b60e31b815260040160405180910390fd5b6001600160601b038716600090815260208190526040902054879060ff166106cc57604051630d0ec32b60e31b815260040160405180910390fd5b6106da888888888888610842565b50635c4c44af60e11b979650505050505050565b6000336001600160a01b037f0000000000000000000000000000000000000000000000000000000000000000161461073957604051630d0ec32b60e31b815260040160405180910390fd5b6001600160601b038816600090815260208190526040902054889060ff1661077457604051630d0ec32b60e31b815260040160405180910390fd5b61078389898989898989610857565b50637e21ccc160e11b98975050505050505050565b604051638a8cacbf60e01b815260040160405180910390fd5b602081146107d2576040516363d2088f60e11b815260040160405180910390fd5b60006107e082840184610f7b565b6001600160601b038a16600081815260016020908152604091829020849055815192835282018390529192507fdbc2d92066ee79fd64220430986d0e862a9224763dc143bdc4809fb5d7183102910160405180910390a1505050505050505050565b61084f868585858561086d565b505050505050565b610864878787858561086d565b50505050505050565b60008061087c83850185610f94565b604080516001600160a01b038a166020820152908101829052919350915060009060600160408051601f198184030181528282528051602091820120908301520160405160208183030381529060405280519060200120905061090583600160008b6001600160601b03166001600160601b0316815260200190815260200160002054836109c6565b61092257604051630d0ec32b60e31b815260040160405180910390fd5b6001600160601b03881660009081526002602090815260408083206001600160a01b038b168452909152902054829061095c908890611056565b111561097b5760405163330d6d0160e11b815260040160405180910390fd5b6001600160601b03881660009081526002602090815260408083206001600160a01b038b168452909152812080548892906109b7908490611056565b90915550505050505050505050565b6000826109d385846109dc565b14949350505050565b600081815b8451811015610a2157610a0d82868381518110610a0057610a00611069565b6020026020010151610a2b565b915080610a198161107f565b9150506109e1565b5090505b92915050565b6000818310610a47576000828152602084905260409020610a56565b60008381526020839052604090205b9392505050565b80356001600160601b0381168114610a7457600080fd5b919050565b8015158114610a8757600080fd5b50565b60008083601f840112610a9c57600080fd5b50813567ffffffffffffffff811115610ab457600080fd5b602083019150836020828501011115610acc57600080fd5b9250929050565b600080600080600060808688031215610aeb57600080fd5b610af486610a5d565b9450602086013593506040860135610b0b81610a79565b9250606086013567ffffffffffffffff811115610b2757600080fd5b610b3388828901610a8a565b969995985093965092949392505050565b60008060408385031215610b5757600080fd5b610b6083610a5d565b946020939093013593505050565b600060208284031215610b8057600080fd5b610a5682610a5d565b6001600160a01b0381168114610a8757600080fd5b60008060008060008060008060e0898b031215610bba57600080fd5b610bc389610a5d565b97506020890135610bd381610b89565b96506040890135610be381610b89565b95506060890135610bf381610b89565b94506080890135935060a0890135610c0a81610a79565b925060c089013567ffffffffffffffff811115610c2657600080fd5b610c328b828c01610a8a565b999c989b5096995094979396929594505050565b60008060408385031215610c5957600080fd5b610c6283610a5d565b91506020830135610c7281610b89565b809150509250929050565b600080600080600060808688031215610c9557600080fd5b610c9e86610a5d565b94506020860135935060408601359250606086013567ffffffffffffffff811115610b2757600080fd5b60008060008060008060a08789031215610ce157600080fd5b610cea87610a5d565b9550602087013567ffffffffffffffff8082168214610d0857600080fd5b909550604088013590610d1a82610b89565b9094506060880135935060808801359080821115610d3757600080fd5b50610d4489828a01610a8a565b979a9699509497509295939492505050565b600080600080600080600060c0888a031215610d7157600080fd5b610d7a88610a5d565b96506020880135610d8a81610b89565b955060408801359450606088013593506080880135610da881610a79565b925060a088013567ffffffffffffffff811115610dc457600080fd5b610dd08a828b01610a8a565b989b979a50959850939692959293505050565b80516001600160c81b031981168114610a7457600080fd5b634e487b7160e01b600052604160045260246000fd5b604051601f8201601f1916810167ffffffffffffffff81118282101715610e3a57610e3a610dfb565b604052919050565b60008060008060008060008060006101208a8c031215610e6157600080fd5b8951610e6c81610b89565b809950506020808b0151610e7f81610b89565b60408c0151909950610e9081610b89565b9750610e9e60608c01610de3565b965060808b0151955060a08b0151610eb581610b89565b9450610ec360c08c01610de3565b935060e08b0151610ed381610a79565b6101008c015190935067ffffffffffffffff80821115610ef257600080fd5b818d0191508d601f830112610f0657600080fd5b815181811115610f1857610f18610dfb565b610f2a601f8201601f19168501610e11565b91508082528e84828501011115610f4057600080fd5b60005b81811015610f5e578381018501518382018601528401610f43565b506000848284010152508093505050509295985092959850929598565b600060208284031215610f8d57600080fd5b5035919050565b60008060408385031215610fa757600080fd5b823567ffffffffffffffff80821115610fbf57600080fd5b818501915085601f830112610fd357600080fd5b8135602082821115610fe757610fe7610dfb565b8160051b9250610ff8818401610e11565b828152928401810192818101908985111561101257600080fd5b948201945b8486101561103057853582529482019490820190611017565b9997909101359750505050505050565b634e487b7160e01b600052601160045260246000fd5b80820180821115610a2557610a25611040565b634e487b7160e01b600052603260045260246000fd5b60006001820161109157611091611040565b506001019056fea2646970667358221220dc790191c594d0c75648216a2dc1fb9ca3453536168a31759359333ac80e7b8364736f6c63430008130033",
    "linkReferences": {}
  },
  "methodIdentifiers": {
    "AUCTION_HOUSE()": "4226b1bf",
    "lotBuyerSpent(uint96,address)": "7008e731",
    "lotIdRegistered(uint96)": "1cae9eef",
    "lotMerkleRoot(uint96)": "6003a353",
    "onBid(uint96,uint64,address,uint256,bytes)": "b898895e",
    "onCancel(uint96,uint256,bool,bytes)": "a5658c86",
    "onCreate(uint96,address,address,address,uint256,bool,bytes)": "66e74167",
    "onCurate(uint96,uint256,bool,bytes)": "09b9601c",
    "onPurchase(uint96,address,uint256,uint256,bool,bytes)": "fc439982",
    "onSettle(uint96,uint256,uint256,bytes)": "a5b13f69",
    "setMerkleRoot(uint96,bytes32)": "191e581e"
  },
  "id": 129
}