{
  "abi": [
    {
      "type": "constructor",
      "inputs": [
        {
          "name": "serviceSigner_",
          "type": "address",
          "internalType": "address"
        },
        {
          "name": "auctionHouses_",
          "type": "address[]",
          "internalType": "address[]"
        }
      ],
      "stateMutability": "nonpayable"
    },
    {
      "type": "function",
      "name": "DOMAIN_SEPARATOR",
      "inputs": [],
      "outputs": [
        {
          "name": "",
          "type": "bytes32",
          "internalType": "bytes32"
        }
      ],
      "stateMutability": "view"
    },
    {
      "type": "function",
      "name": "addAuctionHouse",
      "inputs": [
        {
          "name": "auctionHouse_",
          "type": "address",
          "internalType": "address"
        }
      ],
      "outputs": [],
      "stateMutability": "nonpayable"
    },
    {
      "type": "function",
      "name": "addCuratorAddress",
      "inputs": [
        {
          "name": "xId_",
          "type": "uint256",
          "internalType": "uint256"
        },
        {
          "name": "curator_",
          "type": "address",
          "internalType": "address"
        }
      ],
      "outputs": [],
      "stateMutability": "nonpayable"
    },
    {
      "type": "function",
      "name": "auctionMetadata",
      "inputs": [
        {
          "name": "auctionHouse",
          "type": "address",
          "internalType": "address"
        },
        {
          "name": "lotId",
          "type": "uint96",
          "internalType": "uint96"
        }
      ],
      "outputs": [
        {
          "name": "ipfsCID",
          "type": "string",
          "internalType": "string"
        }
      ],
      "stateMutability": "view"
    },
    {
      "type": "function",
      "name": "chainId",
      "inputs": [],
      "outputs": [
        {
          "name": "",
          "type": "uint256",
          "internalType": "uint256"
        }
      ],
      "stateMutability": "view"
    },
    {
      "type": "function",
      "name": "curatorId",
      "inputs": [
        {
          "name": "curator",
          "type": "address",
          "internalType": "address"
        }
      ],
      "outputs": [
        {
          "name": "xId",
          "type": "uint256",
          "internalType": "uint256"
        }
      ],
      "stateMutability": "view"
    },
    {
      "type": "function",
      "name": "curatorMetadata",
      "inputs": [
        {
          "name": "xId",
          "type": "uint256",
          "internalType": "uint256"
        }
      ],
      "outputs": [
        {
          "name": "ipfsCID",
          "type": "string",
          "internalType": "string"
        }
      ],
      "stateMutability": "view"
    },
    {
      "type": "function",
      "name": "getDigest",
      "inputs": [
        {
          "name": "payload_",
          "type": "tuple",
          "internalType": "struct IMetadataRegistry.CuratorRegistration",
          "components": [
            {
              "name": "curator",
              "type": "address",
              "internalType": "address"
            },
            {
              "name": "xId",
              "type": "uint256",
              "internalType": "uint256"
            },
            {
              "name": "ipfsCID",
              "type": "string",
              "internalType": "string"
            }
          ]
        }
      ],
      "outputs": [
        {
          "name": "",
          "type": "bytes32",
          "internalType": "bytes32"
        }
      ],
      "stateMutability": "view"
    },
    {
      "type": "function",
      "name": "isAuctionHouse",
      "inputs": [
        {
          "name": "",
          "type": "address",
          "internalType": "address"
        }
      ],
      "outputs": [
        {
          "name": "",
          "type": "bool",
          "internalType": "bool"
        }
      ],
      "stateMutability": "view"
    },
    {
      "type": "function",
      "name": "isValidSignature",
      "inputs": [
        {
          "name": "signer_",
          "type": "address",
          "internalType": "address"
        },
        {
          "name": "payload_",
          "type": "tuple",
          "internalType": "struct IMetadataRegistry.CuratorRegistration",
          "components": [
            {
              "name": "curator",
              "type": "address",
              "internalType": "address"
            },
            {
              "name": "xId",
              "type": "uint256",
              "internalType": "uint256"
            },
            {
              "name": "ipfsCID",
              "type": "string",
              "internalType": "string"
            }
          ]
        },
        {
          "name": "signature_",
          "type": "bytes",
          "internalType": "bytes"
        }
      ],
      "outputs": [
        {
          "name": "",
          "type": "bool",
          "internalType": "bool"
        }
      ],
      "stateMutability": "view"
    },
    {
      "type": "function",
      "name": "owner",
      "inputs": [],
      "outputs": [
        {
          "name": "",
          "type": "address",
          "internalType": "address"
        }
      ],
      "stateMutability": "view"
    },
    {
      "type": "function",
      "name": "registerAuction",
      "inputs": [
        {
          "name": "auctionHouse_",
          "type": "address",
          "internalType": "address"
        },
        {
          "name": "lotId_",
          "type": "uint96",
          "internalType": "uint96"
        },
        {
          "name": "ipfsCID_",
          "type": "string",
          "internalType": "string"
        }
      ],
      "outputs": [],
      "stateMutability": "nonpayable"
    },
    {
      "type": "function",
      "name": "registerCurator",
      "inputs": [
        {
          "name": "payload_",
          "type": "tuple",
          "internalType": "struct IMetadataRegistry.CuratorRegistration",
          "components": [
            {
              "name": "curator",
              "type": "address",
              "internalType": "address"
            },
            {
              "name": "xId",
              "type": "uint256",
              "internalType": "uint256"
            },
            {
              "name": "ipfsCID",
              "type": "string",
              "internalType": "string"
            }
          ]
        },
        {
          "name": "signature_",
          "type": "bytes",
          "internalType": "bytes"
        }
      ],
      "outputs": [],
      "stateMutability": "nonpayable"
    },
    {
      "type": "function",
      "name": "removeAuctionHouse",
      "inputs": [
        {
          "name": "auctionHouse_",
          "type": "address",
          "internalType": "address"
        }
      ],
      "outputs": [],
      "stateMutability": "nonpayable"
    },
    {
      "type": "function",
      "name": "removeCuratorAddress",
      "inputs": [
        {
          "name": "xId_",
          "type": "uint256",
          "internalType": "uint256"
        },
        {
          "name": "curator_",
          "type": "address",
          "internalType": "address"
        }
      ],
      "outputs": [],
      "stateMutability": "nonpayable"
    },
    {
      "type": "function",
      "name": "renounceOwnership",
      "inputs": [],
      "outputs": [],
      "stateMutability": "nonpayable"
    },
    {
      "type": "function",
      "name": "serviceSigner",
      "inputs": [],
      "outputs": [
        {
          "name": "",
          "type": "address",
          "internalType": "address"
        }
      ],
      "stateMutability": "view"
    },
    {
      "type": "function",
      "name": "transferOwnership",
      "inputs": [
        {
          "name": "newOwner",
          "type": "address",
          "internalType": "address"
        }
      ],
      "outputs": [],
      "stateMutability": "nonpayable"
    },
    {
      "type": "function",
      "name": "updateCurator",
      "inputs": [
        {
          "name": "xId_",
          "type": "uint256",
          "internalType": "uint256"
        },
        {
          "name": "ipfsCID_",
          "type": "string",
          "internalType": "string"
        }
      ],
      "outputs": [],
      "stateMutability": "nonpayable"
    },
    {
      "type": "function",
      "name": "updateDomainSeparator",
      "inputs": [],
      "outputs": [],
      "stateMutability": "nonpayable"
    },
    {
      "type": "function",
      "name": "updateServiceSigner",
      "inputs": [
        {
          "name": "serviceSigner_",
          "type": "address",
          "internalType": "address"
        }
      ],
      "outputs": [],
      "stateMutability": "nonpayable"
    },
    {
      "type": "event",
      "name": "AuctionRegistered",
      "inputs": [
        {
          "name": "auctionHouse",
          "type": "address",
          "indexed": false,
          "internalType": "address"
        },
        {
          "name": "lotId",
          "type": "uint96",
          "indexed": false,
          "internalType": "uint96"
        },
        {
          "name": "ipfsCID",
          "type": "string",
          "indexed": false,
          "internalType": "string"
        }
      ],
      "anonymous": false
    },
    {
      "type": "event",
      "name": "CuratorRegistered",
      "inputs": [
        {
          "name": "curator",
          "type": "address",
          "indexed": false,
          "internalType": "address"
        },
        {
          "name": "xId",
          "type": "uint256",
          "indexed": false,
          "internalType": "uint256"
        },
        {
          "name": "ipfsCID",
          "type": "string",
          "indexed": false,
          "internalType": "string"
        }
      ],
      "anonymous": false
    },
    {
      "type": "event",
      "name": "CuratorUpdated",
      "inputs": [
        {
          "name": "xId",
          "type": "uint256",
          "indexed": false,
          "internalType": "uint256"
        },
        {
          "name": "ipfsCID",
          "type": "string",
          "indexed": false,
          "internalType": "string"
        }
      ],
      "anonymous": false
    },
    {
      "type": "event",
      "name": "OwnershipTransferred",
      "inputs": [
        {
          "name": "previousOwner",
          "type": "address",
          "indexed": true,
          "internalType": "address"
        },
        {
          "name": "newOwner",
          "type": "address",
          "indexed": true,
          "internalType": "address"
        }
      ],
      "anonymous": false
    },
    {
      "type": "error",
      "name": "AlreadyAssigned",
      "inputs": []
    },
    {
      "type": "error",
      "name": "InvalidParam",
      "inputs": [
        {
          "name": "param",
          "type": "string",
          "internalType": "string"
        }
      ]
    },
    {
      "type": "error",
      "name": "InvalidSignature",
      "inputs": []
    },
    {
      "type": "error",
      "name": "NotAuthorized",
      "inputs": []
    }
  ],
  "bytecode": {
    "object": "0x60806040523480156200001157600080fd5b5060405162001b4938038062001b49833981016040819052620000349162000159565b6200003f33620000d6565b60005b8151811015620000ae5760016004600084848151811062000067576200006762000242565b6020908102919091018101516001600160a01b03168252810191909152604001600020805460ff191691151591909117905580620000a58162000258565b91505062000042565b5050600380546001600160a01b0319166001600160a01b039290921691909117905562000280565b600080546001600160a01b038381166001600160a01b0319831681178455604051919092169283917f8be0079c531659141344cd1fd0a4f28419497f9722a3daafe3b4186f6b6457e09190a35050565b80516001600160a01b03811681146200013e57600080fd5b919050565b634e487b7160e01b600052604160045260246000fd5b600080604083850312156200016d57600080fd5b620001788362000126565b602084810151919350906001600160401b03808211156200019857600080fd5b818601915086601f830112620001ad57600080fd5b815181811115620001c257620001c262000143565b8060051b604051601f19603f83011681018181108582111715620001ea57620001ea62000143565b6040529182528482019250838101850191898311156200020957600080fd5b938501935b828510156200023257620002228562000126565b845293850193928501926200020e565b8096505050505050509250929050565b634e487b7160e01b600052603260045260246000fd5b6000600182016200027957634e487b7160e01b600052601160045260246000fd5b5060010190565b6118b980620002906000396000f3fe608060405234801561001057600080fd5b50600436106101375760003560e01c806382a7576b116100b85780639a8a05921161007c5780639a8a05921461028c578063d212b5d314610295578063d7bcf546146102a8578063efed64be146102c8578063f2fde38b146102db578063faf8dbfb146102ee57600080fd5b806382a7576b1461022657806389ccfe89146102395780638da5cb5b1461024157806390eff5c414610266578063936525071461027957600080fd5b80634372ff85116100ff5780634372ff85146101c25780634f011a65146101d55780636704126f146101e8578063715018a6146101fb57806376e63bb01461020357600080fd5b806318cb9c1d1461013c57806320e4ff85146101515780632dd372e61461017957806331995fda1461018c5780633644e515146101ac575b600080fd5b61014f61014a366004611108565b610301565b005b61016461015f366004611192565b6103ab565b60405190151581526020015b60405180910390f35b61014f61018736600461120b565b6103ff565b61019f61019a366004611244565b610429565b60405161017091906112c2565b6101b46104ce565b604051908152602001610170565b61014f6101d036600461120b565b6104ed565b61014f6101e33660046112d5565b610519565b61014f6101f636600461133e565b610729565b61014f61099e565b61016461021136600461120b565b60046020526000908152604090205460ff1681565b61014f610234366004611108565b6109b2565b61014f610a6f565b6000546001600160a01b03165b6040516001600160a01b039091168152602001610170565b6101b4610274366004611397565b610ad1565b61014f6102873660046113d4565b610bba565b6101b460015481565b60035461024e906001600160a01b031681565b6101b46102b636600461120b565b60056020526000908152604090205481565b61019f6102d6366004611413565b610c93565b61014f6102e936600461120b565b610cac565b61014f6102fc36600461120b565b610d25565b8160000361032b57604051634389d5ab60e01b81526004016103229061142c565b60405180910390fd5b33600090815260056020526040902054821461035a5760405163ea8e4eb560e01b815260040160405180910390fd5b6001600160a01b0381166000908152600560205260409020541561039157604051639688dc5160e01b815260040160405180910390fd5b6001600160a01b0316600090815260056020526040902055565b60006103f6856103ba86610ad1565b85858080601f016020809104026020016040519081016040528093929190818152602001838380828437600092019190915250610d4e92505050565b95945050505050565b610407610daf565b600380546001600160a01b0319166001600160a01b0392909216919091179055565b60076020908152600092835260408084209091529082529020805461044d90611449565b80601f016020809104026020016040519081016040528092919081815260200182805461047990611449565b80156104c65780601f1061049b576101008083540402835291602001916104c6565b820191906000526020600020905b8154815290600101906020018083116104a957829003601f168201915b505050505081565b600060015446146104e6576104e1610e09565b905090565b5060025490565b6104f5610daf565b6001600160a01b03166000908152600460205260409020805460ff19166001179055565b610526602084018461120b565b6001600160a01b0316336001600160a01b0316146105575760405163ea8e4eb560e01b815260040160405180910390fd5b826020013560000361059a57604051634389d5ab60e01b815260206004820152600b60248201526a1c185e5b1bd8590b9e125960aa1b6044820152606401610322565b600560006105ab602086018661120b565b6001600160a01b03168152602081019190915260400160002054156105e357604051639688dc5160e01b815260040160405180910390fd5b6105f0604084018461147d565b905060000361063457604051634389d5ab60e01b815260206004820152600f60248201526e1c185e5b1bd8590b9a5c199cd0d251608a1b6044820152606401610322565b60035461064c906001600160a01b03168484846103ab565b61066957604051638baa579f60e01b815260040160405180910390fd5b60208301803590600590600090610680908761120b565b6001600160a01b0316815260208101919091526040908101600020919091556106ab9084018461147d565b6020808601356000908152600690915260409020916106cb919083611529565b507f8d71b236876fe8aa8294fe7f3c63662bfc3fc1a240fdbe49488b37f3366958fc6106fa602085018561120b565b602085013561070c604087018761147d565b60405161071c9493929190611613565b60405180910390a1505050565b6001600160a01b03841660009081526004602052604090205460ff1661078157604051634389d5ab60e01b815260206004820152600c60248201526b61756374696f6e486f75736560a01b6044820152606401610322565b6000849050806001600160a01b031663c4ce88fd6040518163ffffffff1660e01b8152600401602060405180830381865afa1580156107c4573d6000803e3d6000fd5b505050506040513d601f19601f820116820180604052508101906107e8919061163b565b6001600160601b0316846001600160601b03161061083157604051634389d5ab60e01b81526020600482015260056024820152641b1bdd125960da1b6044820152606401610322565b604051634f17001d60e11b81526001600160601b03851660048201526000906001600160a01b03831690639e2e003a90602401600060405180830381865afa158015610881573d6000803e3d6000fd5b505050506040513d6000823e601f3d908101601f191682016040526108a991908101906116f3565b50505050505050509050806001600160a01b0316336001600160a01b0316146108e55760405163ea8e4eb560e01b815260040160405180910390fd5b600083900361092157604051634389d5ab60e01b81526020600482015260076024820152661a5c199cd0d25160ca1b6044820152606401610322565b6001600160a01b03861660009081526007602090815260408083206001600160601b03891684529091529020610958848683611529565b507f18b40f4816934f1a7bd5ff51d87f48d9ddacbd7653b2cde31a904cbd3c30b5248686868660405161098e94939291906117c1565b60405180910390a1505050505050565b6109a6610daf565b6109b06000610eae565b565b816000036109d357604051634389d5ab60e01b81526004016103229061142c565b336000908152600560205260409020548214610a025760405163ea8e4eb560e01b815260040160405180910390fd5b6001600160a01b0381166000908152600560205260409020548214610a5457604051634389d5ab60e01b815260206004820152600760248201526631bab930ba37b960c91b6044820152606401610322565b6001600160a01b031660009081526005602052604081205550565b6001544603610ac05760405162461bcd60e51b815260206004820181905260248201527f444f4d41494e5f534550415241544f525f414c52454144595f555044415445446044820152606401610322565b46600155610acc610e09565b600255565b6000610adb6104ce565b7f1378000983868b9cd38cd6c7408ceb9051309140ca9bff5d199043ae5649938c610b09602085018561120b565b6020850135610b1b604087018761147d565b604051610b299291906117f5565b604051908190038120610b60949392916020019384526001600160a01b039290921660208401526040830152606082015260800190565b60405160208183030381529060405280519060200120604051602001610b9d92919061190160f01b81526002810192909252602282015260420190565b604051602081830303815290604052805190602001209050919050565b82600003610bdb57604051634389d5ab60e01b81526004016103229061142c565b336000908152600560205260409020548314610c0a5760405163ea8e4eb560e01b815260040160405180910390fd5b6000819003610c4657604051634389d5ab60e01b81526020600482015260076024820152661a5c199cd0d25160ca1b6044820152606401610322565b6000838152600660205260409020610c5f828483611529565b507f8d48f79a76a920c2d4e03ef6f1c031c427129a9bd429bb36523fc25cc1e4ea6883838360405161071c93929190611805565b6006602052600090815260409020805461044d90611449565b610cb4610daf565b6001600160a01b038116610d195760405162461bcd60e51b815260206004820152602660248201527f4f776e61626c653a206e6577206f776e657220697320746865207a65726f206160448201526564647265737360d01b6064820152608401610322565b610d2281610eae565b50565b610d2d610daf565b6001600160a01b03166000908152600460205260409020805460ff19169055565b6000806000610d5d8585610efe565b90925090506000816004811115610d7657610d7661181f565b148015610d945750856001600160a01b0316826001600160a01b0316145b80610da55750610da5868686610f43565b9695505050505050565b6000546001600160a01b031633146109b05760405162461bcd60e51b815260206004820181905260248201527f4f776e61626c653a2063616c6c6572206973206e6f7420746865206f776e65726044820152606401610322565b604080517f8b73c3c69bb8fe3d512ecc4cf759cc79239f7b179b0ffacaa9a75d522b39400f60208201527f4873d266cc369576c1140f197e29f2f69e4e0a34e63dac384a5a61ccd6762dbb918101919091527f15124d26d1272f8d4d5266a24ca397811f414b8cd05a53b26b745f63af5ae2fc60608201524660808201523060a082015260009060c00160405160208183030381529060405280519060200120905090565b600080546001600160a01b038381166001600160a01b0319831681178455604051919092169283917f8be0079c531659141344cd1fd0a4f28419497f9722a3daafe3b4186f6b6457e09190a35050565b6000808251604103610f345760208301516040840151606085015160001a610f288782858561102f565b94509450505050610f3c565b506000905060025b9250929050565b6000806000856001600160a01b0316631626ba7e60e01b8686604051602401610f6d929190611835565b60408051601f198184030181529181526020820180516001600160e01b03166001600160e01b0319909416939093179092529051610fab919061184e565b600060405180830381855afa9150503d8060008114610fe6576040519150601f19603f3d011682016040523d82523d6000602084013e610feb565b606091505b5091509150818015610fff57506020815110155b8015610da557508051630b135d3f60e11b90611024908301602090810190840161186a565b149695505050505050565b6000807f7fffffffffffffffffffffffffffffff5d576e7357a4501ddfe92f46681b20a083111561106657506000905060036110ea565b6040805160008082526020820180845289905260ff881692820192909252606081018690526080810185905260019060a0016020604051602081039080840390855afa1580156110ba573d6000803e3d6000fd5b5050604051601f1901519150506001600160a01b0381166110e3576000600192509250506110ea565b9150600090505b94509492505050565b6001600160a01b0381168114610d2257600080fd5b6000806040838503121561111b57600080fd5b82359150602083013561112d816110f3565b809150509250929050565b60006060828403121561114a57600080fd5b50919050565b60008083601f84011261116257600080fd5b50813567ffffffffffffffff81111561117a57600080fd5b602083019150836020828501011115610f3c57600080fd5b600080600080606085870312156111a857600080fd5b84356111b3816110f3565b9350602085013567ffffffffffffffff808211156111d057600080fd5b6111dc88838901611138565b945060408701359150808211156111f257600080fd5b506111ff87828801611150565b95989497509550505050565b60006020828403121561121d57600080fd5b8135611228816110f3565b9392505050565b6001600160601b0381168114610d2257600080fd5b6000806040838503121561125757600080fd5b8235611262816110f3565b9150602083013561112d8161122f565b60005b8381101561128d578181015183820152602001611275565b50506000910152565b600081518084526112ae816020860160208601611272565b601f01601f19169290920160200192915050565b6020815260006112286020830184611296565b6000806000604084860312156112ea57600080fd5b833567ffffffffffffffff8082111561130257600080fd5b61130e87838801611138565b9450602086013591508082111561132457600080fd5b5061133186828701611150565b9497909650939450505050565b6000806000806060858703121561135457600080fd5b843561135f816110f3565b9350602085013561136f8161122f565b9250604085013567ffffffffffffffff81111561138b57600080fd5b6111ff87828801611150565b6000602082840312156113a957600080fd5b813567ffffffffffffffff8111156113c057600080fd5b6113cc84828501611138565b949350505050565b6000806000604084860312156113e957600080fd5b83359250602084013567ffffffffffffffff81111561140757600080fd5b61133186828701611150565b60006020828403121561142557600080fd5b5035919050565b6020808252600390820152621e125960ea1b604082015260600190565b600181811c9082168061145d57607f821691505b60208210810361114a57634e487b7160e01b600052602260045260246000fd5b6000808335601e1984360301811261149457600080fd5b83018035915067ffffffffffffffff8211156114af57600080fd5b602001915036819003821315610f3c57600080fd5b634e487b7160e01b600052604160045260246000fd5b601f82111561152457600081815260208120601f850160051c810160208610156115015750805b601f850160051c820191505b818110156115205782815560010161150d565b5050505b505050565b67ffffffffffffffff831115611541576115416114c4565b6115558361154f8354611449565b836114da565b6000601f84116001811461158957600085156115715750838201355b600019600387901b1c1916600186901b1783556115e3565b600083815260209020601f19861690835b828110156115ba578685013582556020948501946001909201910161159a565b50868210156115d75760001960f88860031b161c19848701351681555b505060018560011b0183555b5050505050565b81835281816020850137506000828201602090810191909152601f909101601f19169091010190565b60018060a01b0385168152836020820152606060408201526000610da56060830184866115ea565b60006020828403121561164d57600080fd5b81516112288161122f565b80516001600160c81b03198116811461167057600080fd5b919050565b600082601f83011261168657600080fd5b815167ffffffffffffffff808211156116a1576116a16114c4565b604051601f8301601f19908116603f011681019082821181831017156116c9576116c96114c4565b816040528381528660208588010111156116e257600080fd5b610da5846020830160208901611272565b60008060008060008060008060006101208a8c03121561171257600080fd5b895161171d816110f3565b60208b015190995061172e816110f3565b60408b015190985061173f816110f3565b965061174d60608b01611658565b955060808a0151945060a08a0151611764816110f3565b935061177260c08b01611658565b925060e08a0151801515811461178757600080fd5b6101008b015190925067ffffffffffffffff8111156117a557600080fd5b6117b18c828d01611675565b9150509295985092959850929598565b6001600160a01b03851681526001600160601b0384166020820152606060408201819052600090610da590830184866115ea565b8183823760009101908152919050565b8381526040602082015260006103f66040830184866115ea565b634e487b7160e01b600052602160045260246000fd5b8281526040602082015260006113cc6040830184611296565b60008251611860818460208701611272565b9190910192915050565b60006020828403121561187c57600080fd5b505191905056fea264697066735822122093199b530e2e698badb10ef1a79a86c2dcdfad11d6b942cdcbab018a69787bbb64736f6c63430008130033",
    "linkReferences": {}
  },
  "methodIdentifiers": {
    "DOMAIN_SEPARATOR()": "3644e515",
    "addAuctionHouse(address)": "4372ff85",
    "addCuratorAddress(uint256,address)": "18cb9c1d",
    "auctionMetadata(address,uint96)": "31995fda",
    "chainId()": "9a8a0592",
    "curatorId(address)": "d7bcf546",
    "curatorMetadata(uint256)": "efed64be",
    "getDigest((address,uint256,string))": "90eff5c4",
    "isAuctionHouse(address)": "76e63bb0",
    "isValidSignature(address,(address,uint256,string),bytes)": "20e4ff85",
    "owner()": "8da5cb5b",
    "registerAuction(address,uint96,string)": "6704126f",
    "registerCurator((address,uint256,string),bytes)": "4f011a65",
    "removeAuctionHouse(address)": "faf8dbfb",
    "removeCuratorAddress(uint256,address)": "82a7576b",
    "renounceOwnership()": "715018a6",
    "serviceSigner()": "d212b5d3",
    "transferOwnership(address)": "f2fde38b",
    "updateCurator(uint256,string)": "93652507",
    "updateDomainSeparator()": "89ccfe89",
    "updateServiceSigner(address)": "2dd372e6"
  },
  "id": 38
}