{
  "abi": [
    {
      "type": "constructor",
      "inputs": [
        {
          "name": "owner_",
          "type": "address",
          "internalType": "address"
        },
        {
          "name": "protocol_",
          "type": "address",
          "internalType": "address"
        },
        {
          "name": "permit2_",
          "type": "address",
          "internalType": "address"
        }
      ],
      "stateMutability": "nonpayable"
    },
    {
      "type": "function",
      "name": "abort",
      "inputs": [
        {
          "name": "lotId_",
          "type": "uint96",
          "internalType": "uint96"
        }
      ],
      "outputs": [],
      "stateMutability": "nonpayable"
    },
    {
      "type": "function",
      "name": "auction",
      "inputs": [
        {
          "name": "routing_",
          "type": "tuple",
          "internalType": "struct IAuctionHouse.RoutingParams",
          "components": [
            {
              "name": "auctionType",
              "type": "bytes5",
              "internalType": "Keycode"
            },
            {
              "name": "baseToken",
              "type": "address",
              "internalType": "address"
            },
            {
              "name": "quoteToken",
              "type": "address",
              "internalType": "address"
            },
            {
              "name": "curator",
              "type": "address",
              "internalType": "address"
            },
            {
              "name": "referrerFee",
              "type": "uint48",
              "internalType": "uint48"
            },
            {
              "name": "callbacks",
              "type": "address",
              "internalType": "contract ICallback"
            },
            {
              "name": "callbackData",
              "type": "bytes",
              "internalType": "bytes"
            },
            {
              "name": "derivativeType",
              "type": "bytes5",
              "internalType": "Keycode"
            },
            {
              "name": "derivativeParams",
              "type": "bytes",
              "internalType": "bytes"
            },
            {
              "name": "wrapDerivative",
              "type": "bool",
              "internalType": "bool"
            }
          ]
        },
        {
          "name": "params_",
          "type": "tuple",
          "internalType": "struct IAuction.AuctionParams",
          "components": [
            {
              "name": "start",
              "type": "uint48",
              "internalType": "uint48"
            },
            {
              "name": "duration",
              "type": "uint48",
              "internalType": "uint48"
            },
            {
              "name": "capacityInQuote",
              "type": "bool",
              "internalType": "bool"
            },
            {
              "name": "capacity",
              "type": "uint256",
              "internalType": "uint256"
            },
            {
              "name": "implParams",
              "type": "bytes",
              "internalType": "bytes"
            }
          ]
        },
        {
          "name": "infoHash_",
          "type": "string",
          "internalType": "string"
        }
      ],
      "outputs": [
        {
          "name": "lotId",
          "type": "uint96",
          "internalType": "uint96"
        }
      ],
      "stateMutability": "nonpayable"
    },
    {
      "type": "function",
      "name": "bid",
      "inputs": [
        {
          "name": "params_",
          "type": "tuple",
          "internalType": "struct IBatchAuctionHouse.BidParams",
          "components": [
            {
              "name": "lotId",
              "type": "uint96",
              "internalType": "uint96"
            },
            {
              "name": "bidder",
              "type": "address",
              "internalType": "address"
            },
            {
              "name": "referrer",
              "type": "address",
              "internalType": "address"
            },
            {
              "name": "amount",
              "type": "uint256",
              "internalType": "uint256"
            },
            {
              "name": "auctionData",
              "type": "bytes",
              "internalType": "bytes"
            },
            {
              "name": "permit2Data",
              "type": "bytes",
              "internalType": "bytes"
            }
          ]
        },
        {
          "name": "callbackData_",
          "type": "bytes",
          "internalType": "bytes"
        }
      ],
      "outputs": [
        {
          "name": "bidId",
          "type": "uint64",
          "internalType": "uint64"
        }
      ],
      "stateMutability": "nonpayable"
    },
    {
      "type": "function",
      "name": "calculateQuoteFees",
      "inputs": [
        {
          "name": "protocolFee_",
          "type": "uint48",
          "internalType": "uint48"
        },
        {
          "name": "referrerFee_",
          "type": "uint48",
          "internalType": "uint48"
        },
        {
          "name": "hasReferrer_",
          "type": "bool",
          "internalType": "bool"
        },
        {
          "name": "amount_",
          "type": "uint256",
          "internalType": "uint256"
        }
      ],
      "outputs": [
        {
          "name": "toReferrer",
          "type": "uint256",
          "internalType": "uint256"
        },
        {
          "name": "toProtocol",
          "type": "uint256",
          "internalType": "uint256"
        }
      ],
      "stateMutability": "pure"
    },
    {
      "type": "function",
      "name": "cancel",
      "inputs": [
        {
          "name": "lotId_",
          "type": "uint96",
          "internalType": "uint96"
        },
        {
          "name": "callbackData_",
          "type": "bytes",
          "internalType": "bytes"
        }
      ],
      "outputs": [],
      "stateMutability": "nonpayable"
    },
    {
      "type": "function",
      "name": "claimBids",
      "inputs": [
        {
          "name": "lotId_",
          "type": "uint96",
          "internalType": "uint96"
        },
        {
          "name": "bidIds_",
          "type": "uint64[]",
          "internalType": "uint64[]"
        }
      ],
      "outputs": [],
      "stateMutability": "nonpayable"
    },
    {
      "type": "function",
      "name": "claimRewards",
      "inputs": [
        {
          "name": "token_",
          "type": "address",
          "internalType": "address"
        }
      ],
      "outputs": [],
      "stateMutability": "nonpayable"
    },
    {
      "type": "function",
      "name": "condensers",
      "inputs": [
        {
          "name": "auctionRef",
          "type": "bytes7",
          "internalType": "Veecode"
        },
        {
          "name": "derivativeRef",
          "type": "bytes7",
          "internalType": "Veecode"
        }
      ],
      "outputs": [
        {
          "name": "condenserRef",
          "type": "bytes7",
          "internalType": "Veecode"
        }
      ],
      "stateMutability": "view"
    },
    {
      "type": "function",
      "name": "curate",
      "inputs": [
        {
          "name": "lotId_",
          "type": "uint96",
          "internalType": "uint96"
        },
        {
          "name": "callbackData_",
          "type": "bytes",
          "internalType": "bytes"
        }
      ],
      "outputs": [],
      "stateMutability": "nonpayable"
    },
    {
      "type": "function",
      "name": "execOnModule",
      "inputs": [
        {
          "name": "veecode_",
          "type": "bytes7",
          "internalType": "Veecode"
        },
        {
          "name": "callData_",
          "type": "bytes",
          "internalType": "bytes"
        }
      ],
      "outputs": [
        {
          "name": "",
          "type": "bytes",
          "internalType": "bytes"
        }
      ],
      "stateMutability": "nonpayable"
    },
    {
      "type": "function",
      "name": "fees",
      "inputs": [
        {
          "name": "",
          "type": "bytes5",
          "internalType": "Keycode"
        }
      ],
      "outputs": [
        {
          "name": "protocol",
          "type": "uint48",
          "internalType": "uint48"
        },
        {
          "name": "maxReferrerFee",
          "type": "uint48",
          "internalType": "uint48"
        },
        {
          "name": "maxCuratorFee",
          "type": "uint48",
          "internalType": "uint48"
        }
      ],
      "stateMutability": "view"
    },
    {
      "type": "function",
      "name": "getAuctionModuleForId",
      "inputs": [
        {
          "name": "lotId_",
          "type": "uint96",
          "internalType": "uint96"
        }
      ],
      "outputs": [
        {
          "name": "",
          "type": "address",
          "internalType": "contract IAuction"
        }
      ],
      "stateMutability": "view"
    },
    {
      "type": "function",
      "name": "getBatchModuleForId",
      "inputs": [
        {
          "name": "lotId_",
          "type": "uint96",
          "internalType": "uint96"
        }
      ],
      "outputs": [
        {
          "name": "",
          "type": "address",
          "internalType": "contract BatchAuctionModule"
        }
      ],
      "stateMutability": "view"
    },
    {
      "type": "function",
      "name": "getCuratorFee",
      "inputs": [
        {
          "name": "auctionType_",
          "type": "bytes5",
          "internalType": "Keycode"
        },
        {
          "name": "curator_",
          "type": "address",
          "internalType": "address"
        }
      ],
      "outputs": [
        {
          "name": "curatorFee",
          "type": "uint48",
          "internalType": "uint48"
        }
      ],
      "stateMutability": "view"
    },
    {
      "type": "function",
      "name": "getDerivativeModuleForId",
      "inputs": [
        {
          "name": "lotId_",
          "type": "uint96",
          "internalType": "uint96"
        }
      ],
      "outputs": [
        {
          "name": "",
          "type": "address",
          "internalType": "contract IDerivative"
        }
      ],
      "stateMutability": "view"
    },
    {
      "type": "function",
      "name": "getFees",
      "inputs": [
        {
          "name": "auctionType_",
          "type": "bytes5",
          "internalType": "Keycode"
        }
      ],
      "outputs": [
        {
          "name": "protocol",
          "type": "uint48",
          "internalType": "uint48"
        },
        {
          "name": "maxReferrerFee",
          "type": "uint48",
          "internalType": "uint48"
        },
        {
          "name": "maxCuratorFee",
          "type": "uint48",
          "internalType": "uint48"
        }
      ],
      "stateMutability": "view"
    },
    {
      "type": "function",
      "name": "getModuleForVeecode",
      "inputs": [
        {
          "name": "",
          "type": "bytes7",
          "internalType": "Veecode"
        }
      ],
      "outputs": [
        {
          "name": "",
          "type": "address",
          "internalType": "contract Module"
        }
      ],
      "stateMutability": "view"
    },
    {
      "type": "function",
      "name": "getModuleStatus",
      "inputs": [
        {
          "name": "",
          "type": "bytes5",
          "internalType": "Keycode"
        }
      ],
      "outputs": [
        {
          "name": "latestVersion",
          "type": "uint8",
          "internalType": "uint8"
        },
        {
          "name": "sunset",
          "type": "bool",
          "internalType": "bool"
        }
      ],
      "stateMutability": "view"
    },
    {
      "type": "function",
      "name": "getProtocol",
      "inputs": [],
      "outputs": [
        {
          "name": "",
          "type": "address",
          "internalType": "address"
        }
      ],
      "stateMutability": "view"
    },
    {
      "type": "function",
      "name": "getRewards",
      "inputs": [
        {
          "name": "recipient_",
          "type": "address",
          "internalType": "address"
        },
        {
          "name": "token_",
          "type": "address",
          "internalType": "address"
        }
      ],
      "outputs": [
        {
          "name": "reward",
          "type": "uint256",
          "internalType": "uint256"
        }
      ],
      "stateMutability": "view"
    },
    {
      "type": "function",
      "name": "installModule",
      "inputs": [
        {
          "name": "newModule_",
          "type": "address",
          "internalType": "contract Module"
        }
      ],
      "outputs": [],
      "stateMutability": "nonpayable"
    },
    {
      "type": "function",
      "name": "isExecOnModule",
      "inputs": [],
      "outputs": [
        {
          "name": "",
          "type": "bool",
          "internalType": "bool"
        }
      ],
      "stateMutability": "view"
    },
    {
      "type": "function",
      "name": "lotCounter",
      "inputs": [],
      "outputs": [
        {
          "name": "",
          "type": "uint96",
          "internalType": "uint96"
        }
      ],
      "stateMutability": "view"
    },
    {
      "type": "function",
      "name": "lotFees",
      "inputs": [
        {
          "name": "lotId",
          "type": "uint96",
          "internalType": "uint96"
        }
      ],
      "outputs": [
        {
          "name": "curator",
          "type": "address",
          "internalType": "address"
        },
        {
          "name": "curated",
          "type": "bool",
          "internalType": "bool"
        },
        {
          "name": "curatorFee",
          "type": "uint48",
          "internalType": "uint48"
        },
        {
          "name": "protocolFee",
          "type": "uint48",
          "internalType": "uint48"
        },
        {
          "name": "referrerFee",
          "type": "uint48",
          "internalType": "uint48"
        }
      ],
      "stateMutability": "view"
    },
    {
      "type": "function",
      "name": "lotRouting",
      "inputs": [
        {
          "name": "lotId",
          "type": "uint96",
          "internalType": "uint96"
        }
      ],
      "outputs": [
        {
          "name": "seller",
          "type": "address",
          "internalType": "address"
        },
        {
          "name": "baseToken",
          "type": "address",
          "internalType": "address"
        },
        {
          "name": "quoteToken",
          "type": "address",
          "internalType": "address"
        },
        {
          "name": "auctionReference",
          "type": "bytes7",
          "internalType": "Veecode"
        },
        {
          "name": "funding",
          "type": "uint256",
          "internalType": "uint256"
        },
        {
          "name": "callbacks",
          "type": "address",
          "internalType": "contract ICallback"
        },
        {
          "name": "derivativeReference",
          "type": "bytes7",
          "internalType": "Veecode"
        },
        {
          "name": "wrapDerivative",
          "type": "bool",
          "internalType": "bool"
        },
        {
          "name": "derivativeParams",
          "type": "bytes",
          "internalType": "bytes"
        }
      ],
      "stateMutability": "view"
    },
    {
      "type": "function",
      "name": "modules",
      "inputs": [
        {
          "name": "",
          "type": "uint256",
          "internalType": "uint256"
        }
      ],
      "outputs": [
        {
          "name": "",
          "type": "bytes5",
          "internalType": "Keycode"
        }
      ],
      "stateMutability": "view"
    },
    {
      "type": "function",
      "name": "modulesCount",
      "inputs": [],
      "outputs": [
        {
          "name": "",
          "type": "uint256",
          "internalType": "uint256"
        }
      ],
      "stateMutability": "view"
    },
    {
      "type": "function",
      "name": "owner",
      "inputs": [],
      "outputs": [
        {
          "name": "",
          "type": "address",
          "internalType": "address"
        }
      ],
      "stateMutability": "view"
    },
    {
      "type": "function",
      "name": "refundBid",
      "inputs": [
        {
          "name": "lotId_",
          "type": "uint96",
          "internalType": "uint96"
        },
        {
          "name": "bidId_",
          "type": "uint64",
          "internalType": "uint64"
        },
        {
          "name": "index_",
          "type": "uint256",
          "internalType": "uint256"
        }
      ],
      "outputs": [],
      "stateMutability": "nonpayable"
    },
    {
      "type": "function",
      "name": "rewards",
      "inputs": [
        {
          "name": "",
          "type": "address",
          "internalType": "address"
        },
        {
          "name": "",
          "type": "address",
          "internalType": "contract ERC20"
        }
      ],
      "outputs": [
        {
          "name": "",
          "type": "uint256",
          "internalType": "uint256"
        }
      ],
      "stateMutability": "view"
    },
    {
      "type": "function",
      "name": "setCondenser",
      "inputs": [
        {
          "name": "auctionRef_",
          "type": "bytes7",
          "internalType": "Veecode"
        },
        {
          "name": "derivativeRef_",
          "type": "bytes7",
          "internalType": "Veecode"
        },
        {
          "name": "condenserRef_",
          "type": "bytes7",
          "internalType": "Veecode"
        }
      ],
      "outputs": [],
      "stateMutability": "nonpayable"
    },
    {
      "type": "function",
      "name": "setCuratorFee",
      "inputs": [
        {
          "name": "auctionType_",
          "type": "bytes5",
          "internalType": "Keycode"
        },
        {
          "name": "fee_",
          "type": "uint48",
          "internalType": "uint48"
        }
      ],
      "outputs": [],
      "stateMutability": "nonpayable"
    },
    {
      "type": "function",
      "name": "setFee",
      "inputs": [
        {
          "name": "auctionType_",
          "type": "bytes5",
          "internalType": "Keycode"
        },
        {
          "name": "type_",
          "type": "uint8",
          "internalType": "enum IFeeManager.FeeType"
        },
        {
          "name": "fee_",
          "type": "uint48",
          "internalType": "uint48"
        }
      ],
      "outputs": [],
      "stateMutability": "nonpayable"
    },
    {
      "type": "function",
      "name": "setProtocol",
      "inputs": [
        {
          "name": "protocol_",
          "type": "address",
          "internalType": "address"
        }
      ],
      "outputs": [],
      "stateMutability": "nonpayable"
    },
    {
      "type": "function",
      "name": "settle",
      "inputs": [
        {
          "name": "lotId_",
          "type": "uint96",
          "internalType": "uint96"
        },
        {
          "name": "num_",
          "type": "uint256",
          "internalType": "uint256"
        },
        {
          "name": "callbackData_",
          "type": "bytes",
          "internalType": "bytes"
        }
      ],
      "outputs": [
        {
          "name": "totalIn",
          "type": "uint256",
          "internalType": "uint256"
        },
        {
          "name": "totalOut",
          "type": "uint256",
          "internalType": "uint256"
        },
        {
          "name": "finished",
          "type": "bool",
          "internalType": "bool"
        },
        {
          "name": "auctionOutput",
          "type": "bytes",
          "internalType": "bytes"
        }
      ],
      "stateMutability": "nonpayable"
    },
    {
      "type": "function",
      "name": "sunsetModule",
      "inputs": [
        {
          "name": "keycode_",
          "type": "bytes5",
          "internalType": "Keycode"
        }
      ],
      "outputs": [],
      "stateMutability": "nonpayable"
    },
    {
      "type": "function",
      "name": "transferOwnership",
      "inputs": [
        {
          "name": "newOwner",
          "type": "address",
          "internalType": "address"
        }
      ],
      "outputs": [],
      "stateMutability": "nonpayable"
    },
    {
      "type": "event",
      "name": "Abort",
      "inputs": [
        {
          "name": "lotId",
          "type": "uint96",
          "indexed": true,
          "internalType": "uint96"
        }
      ],
      "anonymous": false
    },
    {
      "type": "event",
      "name": "AuctionCancelled",
      "inputs": [
        {
          "name": "lotId",
          "type": "uint96",
          "indexed": true,
          "internalType": "uint96"
        },
        {
          "name": "auctionRef",
          "type": "bytes7",
          "indexed": true,
          "internalType": "Veecode"
        }
      ],
      "anonymous": false
    },
    {
      "type": "event",
      "name": "AuctionCreated",
      "inputs": [
        {
          "name": "lotId",
          "type": "uint96",
          "indexed": true,
          "internalType": "uint96"
        },
        {
          "name": "auctionRef",
          "type": "bytes7",
          "indexed": true,
          "internalType": "Veecode"
        },
        {
          "name": "infoHash",
          "type": "string",
          "indexed": false,
          "internalType": "string"
        }
      ],
      "anonymous": false
    },
    {
      "type": "event",
      "name": "Bid",
      "inputs": [
        {
          "name": "lotId",
          "type": "uint96",
          "indexed": true,
          "internalType": "uint96"
        },
        {
          "name": "bidId",
          "type": "uint96",
          "indexed": true,
          "internalType": "uint96"
        },
        {
          "name": "bidder",
          "type": "address",
          "indexed": true,
          "internalType": "address"
        },
        {
          "name": "amount",
          "type": "uint256",
          "indexed": false,
          "internalType": "uint256"
        }
      ],
      "anonymous": false
    },
    {
      "type": "event",
      "name": "ClaimBid",
      "inputs": [
        {
          "name": "lotId",
          "type": "uint96",
          "indexed": true,
          "internalType": "uint96"
        },
        {
          "name": "bidId",
          "type": "uint96",
          "indexed": true,
          "internalType": "uint96"
        },
        {
          "name": "bidder",
          "type": "address",
          "indexed": true,
          "internalType": "address"
        }
      ],
      "anonymous": false
    },
    {
      "type": "event",
      "name": "Curated",
      "inputs": [
        {
          "name": "lotId",
          "type": "uint96",
          "indexed": true,
          "internalType": "uint96"
        },
        {
          "name": "curator",
          "type": "address",
          "indexed": true,
          "internalType": "address"
        }
      ],
      "anonymous": false
    },
    {
      "type": "event",
      "name": "ModuleInstalled",
      "inputs": [
        {
          "name": "keycode",
          "type": "bytes5",
          "indexed": true,
          "internalType": "Keycode"
        },
        {
          "name": "version",
          "type": "uint8",
          "indexed": true,
          "internalType": "uint8"
        },
        {
          "name": "location",
          "type": "address",
          "indexed": true,
          "internalType": "address"
        }
      ],
      "anonymous": false
    },
    {
      "type": "event",
      "name": "ModuleSunset",
      "inputs": [
        {
          "name": "keycode",
          "type": "bytes5",
          "indexed": true,
          "internalType": "Keycode"
        }
      ],
      "anonymous": false
    },
    {
      "type": "event",
      "name": "OwnershipTransferred",
      "inputs": [
        {
          "name": "user",
          "type": "address",
          "indexed": true,
          "internalType": "address"
        },
        {
          "name": "newOwner",
          "type": "address",
          "indexed": true,
          "internalType": "address"
        }
      ],
      "anonymous": false
    },
    {
      "type": "event",
      "name": "RefundBid",
      "inputs": [
        {
          "name": "lotId",
          "type": "uint96",
          "indexed": true,
          "internalType": "uint96"
        },
        {
          "name": "bidId",
          "type": "uint96",
          "indexed": true,
          "internalType": "uint96"
        },
        {
          "name": "bidder",
          "type": "address",
          "indexed": true,
          "internalType": "address"
        }
      ],
      "anonymous": false
    },
    {
      "type": "event",
      "name": "Settle",
      "inputs": [
        {
          "name": "lotId",
          "type": "uint96",
          "indexed": true,
          "internalType": "uint96"
        }
      ],
      "anonymous": false
    },
    {
      "type": "error",
      "name": "AmountLessThanMinimum",
      "inputs": []
    },
    {
      "type": "error",
      "name": "FailedCallback",
      "inputs": []
    },
    {
      "type": "error",
      "name": "InsufficientFunding",
      "inputs": []
    },
    {
      "type": "error",
      "name": "InvalidCallback",
      "inputs": []
    },
    {
      "type": "error",
      "name": "InvalidCallbackResponse",
      "inputs": []
    },
    {
      "type": "error",
      "name": "InvalidFee",
      "inputs": []
    },
    {
      "type": "error",
      "name": "InvalidLotId",
      "inputs": [
        {
          "name": "id_",
          "type": "uint96",
          "internalType": "uint96"
        }
      ]
    },
    {
      "type": "error",
      "name": "InvalidModuleInstall",
      "inputs": [
        {
          "name": "keycode_",
          "type": "bytes5",
          "internalType": "Keycode"
        },
        {
          "name": "version_",
          "type": "uint8",
          "internalType": "uint8"
        }
      ]
    },
    {
      "type": "error",
      "name": "InvalidParams",
      "inputs": []
    },
    {
      "type": "error",
      "name": "InvalidParams",
      "inputs": []
    },
    {
      "type": "error",
      "name": "InvalidState",
      "inputs": []
    },
    {
      "type": "error",
      "name": "InvalidVeecode",
      "inputs": [
        {
          "name": "veecode_",
          "type": "bytes7",
          "internalType": "Veecode"
        }
      ]
    },
    {
      "type": "error",
      "name": "ModuleAlreadySunset",
      "inputs": [
        {
          "name": "keycode_",
          "type": "bytes5",
          "internalType": "Keycode"
        }
      ]
    },
    {
      "type": "error",
      "name": "ModuleExecutionReverted",
      "inputs": [
        {
          "name": "error_",
          "type": "bytes",
          "internalType": "bytes"
        }
      ]
    },
    {
      "type": "error",
      "name": "ModuleIsSunset",
      "inputs": [
        {
          "name": "keycode_",
          "type": "bytes5",
          "internalType": "Keycode"
        }
      ]
    },
    {
      "type": "error",
      "name": "ModuleNotInstalled",
      "inputs": [
        {
          "name": "keycode_",
          "type": "bytes5",
          "internalType": "Keycode"
        },
        {
          "name": "version_",
          "type": "uint8",
          "internalType": "uint8"
        }
      ]
    },
    {
      "type": "error",
      "name": "NotPermitted",
      "inputs": [
        {
          "name": "caller_",
          "type": "address",
          "internalType": "address"
        }
      ]
    },
    {
      "type": "error",
      "name": "TargetNotAContract",
      "inputs": [
        {
          "name": "target_",
          "type": "address",
          "internalType": "address"
        }
      ]
    },
    {
      "type": "error",
      "name": "UnsupportedToken",
      "inputs": [
        {
          "name": "token_",
          "type": "address",
          "internalType": "address"
        }
      ]
    }
  ],
  "bytecode": {
    "object": "0x60a060405260016006553480156200001657600080fd5b5060405162005c1c38038062005c1c8339810160408190526200003991620000d8565b600080546001600160a01b0319166001600160a01b03851690811782556040518592859285928492869283929091907f8be0079c531659141344cd1fd0a4f28419497f9722a3daafe3b4186f6b6457e0908290a35050600780546001600160a01b0319166001600160a01b039283161790551660805250620001229350505050565b80516001600160a01b0381168114620000d357600080fd5b919050565b600080600060608486031215620000ee57600080fd5b620000f984620000bb565b92506200010960208501620000bb565b91506200011960408501620000bb565b90509250925092565b608051615ade6200013e60003960006137570152615ade6000f3fe608060405234801561001057600080fd5b50600436106102275760003560e01c80637eb1e76111610130578063cf042fb0116100b8578063ef5cfb8c1161007c578063ef5cfb8c14610739578063f2fde38b1461074c578063f315aafe1461075f578063f4b2618114610768578063fc48ba55146107a357600080fd5b8063cf042fb0146105ec578063d16352af146105ff578063e70b9e2714610610578063e814b76a1461063b578063ea072e701461069f57600080fd5b80639e2e003a116100ff5780639e2e003a146105625780639e55cba31461058a578063c4ce88fd146105b3578063c74c149b146105c6578063c75519ba146105d957600080fd5b80637eb1e761146104e557806381b2248a146104f85780638a9f1315146105245780638da5cb5b1461054f57600080fd5b80633bb7098a116101b35780635bb27aab116101825780635bb27aab146103fe5780635c774ed7146104435780636e9c996d146104605780637249c0d51461048b578063779bcb9b1461049e57600080fd5b80633bb7098a146103a5578063505f901a146103b857806350ab0489146103cb578063510bd273146103eb57600080fd5b80631ed75f1f116101fa5780631ed75f1f146102f357806320b15fe41461030657806331d72d6b14610319578063367b02fb146103575780633ab3f98e1461037a57600080fd5b80630a35511b1461022c5780630a9d793d146102415780630ab9a1ee146102545780630bad843b146102cb575b600080fd5b61023f61023a366004614681565b6107b6565b005b61023f61024f366004614726565b610b35565b61029d61026236600461475b565b6001600160d81b03191660009081526008602052604090205465ffffffffffff80821692600160301b8304821692600160601b900490911690565b6040805165ffffffffffff948516815292841660208401529216918101919091526060015b60405180910390f35b6102de6102d9366004614798565b610b81565b604080519283526020830191909152016102c2565b61023f6103013660046147e9565b610beb565b61023f61031436600461481a565b610e9d565b61029d61032736600461475b565b60086020526000908152604090205465ffffffffffff80821691600160301b8104821691600160601b9091041683565b61036a6103653660046148ad565b6110c8565b6040516102c29493929190614956565b61038d6103883660046147e9565b6114f1565b6040516001600160a01b0390911681526020016102c2565b61038d6103b33660046147e9565b611502565b61023f6103c6366004614987565b611516565b6103de6103d93660046149d9565b611771565b6040516102c291906149f9565b61023f6103f9366004614a21565b61184c565b61042a61040c36600461475b565b60046020526000908152604090205460ff8082169161010090041682565b6040805160ff90931683529015156020830152016102c2565b6005546104509060ff1681565b60405190151581526020016102c2565b61047361046e366004614b6d565b611992565b6040516001600160401b0390911681526020016102c2565b61023f610499366004614c57565b611b6f565b6104d76104ac366004614c8e565b6001600160a01b03918216600090815260096020908152604080832093909416825291909152205490565b6040519081526020016102c2565b61023f6104f3366004614726565b611c02565b61050b610506366004614cbc565b611e7f565b6040516001600160d81b031990911681526020016102c2565b610537610532366004614cd5565b611eb6565b6040516001600160601b0390911681526020016102c2565b60005461038d906001600160a01b031681565b6105756105703660046147e9565b61290f565b6040516102c299989796959493929190614d64565b61038d610598366004614dda565b6003602052600090815260409020546001600160a01b031681565b600a54610537906001600160601b031681565b61023f6105d4366004614df7565b612a01565b61023f6105e736600461475b565b612c0b565b61023f6105fa366004614987565b612d07565b6007546001600160a01b031661038d565b6104d761061e366004614c8e565b600960209081526000928352604080842090915290825290205481565b610688610649366004614e39565b6001600160d81b0319821660009081526008602090815260408083206001600160a01b038516845260010190915290205465ffffffffffff1692915050565b60405165ffffffffffff90911681526020016102c2565b6106fa6106ad3660046147e9565b600c60205260009081526040902080546001909101546001600160a01b0382169160ff600160a01b8204169165ffffffffffff600160a81b90920482169181811691600160301b90041685565b604080516001600160a01b039096168652931515602086015265ffffffffffff928316938501939093528116606084015216608082015260a0016102c2565b61023f610747366004614726565b612e74565b61023f61075a366004614726565b612edf565b6104d760025481565b610796610776366004614e55565b600d60209081526000928352604080842090915290825290205460c81b81565b6040516102c29190614e83565b61038d6107b13660046147e9565b612f54565b6006546001146107e15760405162461bcd60e51b81526004016107d890614e98565b60405180910390fd5b60026006556107ef83612f68565b6000806107fb856114f1565b6001600160a01b0316630a35511b8686866040518463ffffffff1660e01b815260040161082a93929190614ebc565b6000604051808303816000875af1158015610849573d6000803e3d6000fd5b505050506040513d6000823e601f3d908101601f191682016040526108719190810190614f62565b6001600160601b0387166000908152600b602090815260408083206002810154600c909352908320600101548551959750939550936001600160a01b039091169265ffffffffffff80821693600160301b9092041691905b81811015610b235760008882815181106108e5576108e5615082565b60200260200101519050600081606001511115610a8057610938858583602001518a60000160009054906101000a90046001600160a01b03168a8660800151876040015161093391906150ae565b612fa5565b5060608181015160038901805482900390819055835160408051610120810182528c546001600160a01b03908116825260018e01548116602083015260028e015480821693830193909352600160a01b9283900460c890811b6001600160c81b031990811698840198909852608083019590955260048e015490811660a083015291820490931b90941660c0830152600160d81b90930460ff16151560e082015260058a018054610a80949392918c91610100840191906109f8906150c1565b80601f0160208091040260200160405190810160405280929190818152602001828054610a24906150c1565b8015610a715780601f10610a4657610100808354040283529160200191610a71565b820191906000526020600020905b815481529060010190602001808311610a5457829003601f168201915b5050505050815250508b613083565b608081015115610a9f57610a9f86826000015183608001516000613216565b80516001600160a01b03168b8b84818110610abc57610abc615082565b9050602002016020810190610ad191906150fb565b6001600160401b03168d6001600160601b03167f16c8bb5b68aee6acf37bdd28737b3728e2d041e98a4554f3522f6a7947448c0c60405160405180910390a45080610b1b81615118565b9150506108c9565b50506001600655505050505050505050565b6000546001600160a01b03163314610b5f5760405162461bcd60e51b81526004016107d890615131565b600780546001600160a01b0319166001600160a01b0392909216919091179055565b6000808315610bd157610b9f8365ffffffffffff871661271061335c565b915081610bc084610bb0888a615157565b65ffffffffffff1661271061335c565b610bca91906150ae565b9050610be2565b610bdf83610bb08789615157565b90505b94509492505050565b600654600114610c0d5760405162461bcd60e51b81526004016107d890614e98565b6002600655610c1b81612f68565b610c24816114f1565b604051631ed75f1f60e01b81526001600160601b03831660048201526001600160a01b039190911690631ed75f1f90602401600060405180830381600087803b158015610c7057600080fd5b505af1158015610c84573d6000803e3d6000fd5b505050506001600160601b0381166000908152600b6020526040812060038101549091819003610cc7576040516357e000b160e01b815260040160405180910390fd5b6000600383018190556001600160601b0384168152600b60205260409020600181015460048201549154610d17926001600160a01b0392831692610d0f92918116911661337a565b836000613216565b6001600160601b0383166000908152600b60205260409020600401546001600160a01b031615610e5f576001600160601b0383166000908152600b60205260408120600401546352b2c64360e11b9085908490600160981b161515604051602001610d8d90602080825260009082015260400190565b60408051601f1981840301815290829052610dad9493929160240161517d565b60408051601f19818403018152918152602080830180516001600160e01b03166001600160e01b0319909516949094179093526001600160601b0387166000908152600b909352918290206004015491519092506001600160a01b0390911690610e189083906151ad565b6000604051808303816000865af19150503d8060008114610e55576040519150601f19603f3d011682016040523d82523d6000602084013e610e5a565b606091505b505050505b6040516001600160601b038416907f16a4d2776546f16d2ecb9de112ea9b037ce1580dacdcf8013658630c66a921d990600090a25050600160065550565b6000546001600160a01b03163314610ec75760405162461bcd60e51b81526004016107d890615131565b6000610ed284613394565b6001600160a01b031663bb24fe8a6040518163ffffffff1660e01b8152600401602060405180830381865afa158015610f0f573d6000803e3d6000fd5b505050506040513d601f19601f82011682018060405250810190610f3391906151df565b6003811115610f4457610f446151c9565b141580610fcc57506001610f5783613394565b6001600160a01b031663bb24fe8a6040518163ffffffff1660e01b8152600401602060405180830381865afa158015610f94573d6000803e3d6000fd5b505050506040513d601f19601f82011682018060405250810190610fb891906151df565b6003811115610fc957610fc96151c9565b14155b8061106657506001600160c81b031981161580159061106657506002610ff182613394565b6001600160a01b031663bb24fe8a6040518163ffffffff1660e01b8152600401602060405180830381865afa15801561102e573d6000803e3d6000fd5b505050506040513d601f19601f8201168201806040525081019061105291906151df565b6003811115611063576110636151c9565b14155b1561108457604051635435b28960e11b815260040160405180910390fd5b6001600160c81b03199283166000908152600d6020908152604080832094909516825292909252919020805466ffffffffffffff191660c89290921c919091179055565b600080600060606006546001146110f15760405162461bcd60e51b81526004016107d890614e98565b60026006556110ff88612f68565b60008061110b8a6114f1565b60405163cd280bdb60e01b81526001600160601b038c166004820152602481018b90529091506001600160a01b0382169063cd280bdb906044016000604051808303816000875af1158015611164573d6000803e3d6000fd5b505050506040513d6000823e601f3d908101601f1916820160405261118c9190810190615200565b93995091975090955090935091508315156000036111ab5750506114de565b506001600160601b0389166000908152600b60209081526040808320600c909252822060018101549192909181906111f79065ffffffffffff80821691600160301b900416838c610b81565b855460028701546004880154928d03955061122694506001600160a01b039182169350859290821691166133e9565b8154600090819061125190600160a01b810460ff1690600160a81b900465ffffffffffff168b61340d565b90508015611403576004850154600160a01b900460c81b6001600160c81b031916156113b3578354604080516101208101825287546001600160a01b039081168252600189015481166020830152600289015480821693830193909352600160a01b9283900460c890811b6001600160c81b0319908116606085015260038b0154608085015260048b015480841660a086015294850490911b1660c0830152600160d81b90920460ff16151560e08201526005880180546113ae9493909316928592918a9161010084019190611326906150c1565b80601f0160208091040260200160405190810160405280929190818152602001828054611352906150c1565b801561139f5780601f106113745761010080835404028352916020019161139f565b820191906000526020600020905b81548152906001019060200180831161138257829003601f168201915b5050505050815250508a613083565b6113f7565b83546001600160a01b03908116600090815260096020908152604080832060018a0154909416835292905290812080548392906113f190849061526d565b90915550505b60038501805482900390555b835460009061142c90600160a01b810460ff1690600160a81b900465ffffffffffff168961340d565b9050818161143a8c8a6150ae565b611444919061526d565b61144e91906150ae565b600387018054829003905560018701546004880154885492955061148894506001600160a01b039182169350610d0f92908216911661337a565b60048401546114a4906001600160a01b03168e84848f8f61343d565b6040516001600160601b038e16907f5d4a6ac2287eaf5f22deb24e842c4668fd11d8f478a18cf2a37faa0bcebd31c690600090a250505050505b6001600681905550945094509450949050565b60006114fc826134af565b92915050565b600061150d82612f68565b6114fc826134af565b6006546001146115385760405162461bcd60e51b81526004016107d890614e98565b600260065561154683612f68565b6001600160601b0383166000908152600c6020526040902080546001600160a01b0316331461158a576040516319b1d90760e31b81523360048201526024016107d8565b6000611595856134af565b8254909150600160a01b900460ff16806116215750604051630385592160e01b81526001600160601b03861660048201526001600160a01b03821690630385592190602401602060405180830381865afa1580156115f7573d6000803e3d6000fd5b505050506040513d601f19601f8201168201806040525081019061161b9190615280565b15156001145b1561163f5760405163baf3f0f760e01b815260040160405180910390fd5b6001600160601b0385166000818152600b6020526040808220855460ff60a01b1916600160a01b908117808855925163ace54da560e01b8152600481019590955290936116f89291820460ff169165ffffffffffff600160a81b90910416906001600160a01b0387169063ace54da590602401602060405180830381865afa1580156116cf573d6000803e3d6000fd5b505050506040513d601f19601f820116820180604052508101906116f3919061529d565b61340d565b90506000611708888389896134de565b90508061172c57600483015461172c906001600160a01b0316898460008b8b613698565b60405133906001600160601b038a16907f0cbe7341c5c56a21e107668323c3c414bcd506f3615ea1115f86dd4df173691490600090a350506001600655505050505050565b6000546060906001600160a01b0316331461179e5760405162461bcd60e51b81526004016107d890615131565b6005805460ff191660011790556000806117b786613394565b6001600160a01b031685856040516117d09291906152b6565b6000604051808303816000865af19150503d806000811461180d576040519150601f19603f3d011682016040523d82523d6000602084013e611812565b606091505b5091509150816118375780604051635d94b9cd60e01b81526004016107d891906149f9565b6005805460ff191690559150505b9392505050565b60065460011461186e5760405162461bcd60e51b81526004016107d890614e98565b600260065561187c83612f68565b6001600160601b0383166000908152600b6020526040902060020154611947906001600160a01b0316336118af866114f1565b604051631f648d2f60e21b81526001600160601b03881660048201526001600160401b0387166024820152604481018690523360648201526001600160a01b039190911690637d9234bc906084016020604051808303816000875af115801561191c573d6000803e3d6000fd5b505050506040513d601f19601f82011682018060405250810190611940919061529d565b6000613216565b60405133906001600160401b038416906001600160601b038616907fc5e25a727c1d2fa8b8cf2bd4f7a3ba0b6740aaee33d84a3132d47301844f361890600090a45050600160065550565b60006006546001146119b65760405162461bcd60e51b81526004016107d890614e98565b600260065583516119c690612f68565b60208401516000906001600160a01b0316156119e65784602001516119e8565b335b90506119f785600001516114f1565b6001600160a01b03166387698a31866000015183886040015189606001518a608001516040518663ffffffff1660e01b8152600401611a3a9594939291906152c6565b6020604051808303816000875af1158015611a59573d6000803e3d6000fd5b505050506040513d601f19601f82011682018060405250810190611a7d9190615313565b606086015186516001600160601b03166000908152600b602052604090206002015460a0880151929450611ac5926001600160a01b0390911690611ac0906136c8565b613751565b84516001600160601b03166000908152600b602052604090206004015485516060870151611b03926001600160a01b03169190859085908989613781565b806001600160a01b0316826001600160401b031686600001516001600160601b03167fa2e7ed6065b3a19c5ea6dce1c2f7a8933195d54aa91cee19103be6655cc3bcf88860600151604051611b5a91815260200190565b60405180910390a45060016006559392505050565b6001600160d81b0319821660009081526008602052604090205465ffffffffffff600160601b90910481169082161115611bbc576040516358d620b360e01b815260040160405180910390fd5b6001600160d81b03199190911660009081526008602090815260408083203384526001019091529020805465ffffffffffff191665ffffffffffff909216919091179055565b6000546001600160a01b03163314611c2c5760405162461bcd60e51b81526004016107d890615131565b611c35816137fe565b6000816001600160a01b031663d61735ca6040518163ffffffff1660e01b8152600401602060405180830381865afa158015611c75573d6000803e3d6000fd5b505050506040513d601f19601f82011682018060405250810190611c999190615330565b9050611ca481613834565b600080611cb08361399a565b6001600160d81b031982166000908152600460205260409020805492945090925090611ce09060ff16600161534d565b60ff168260ff1614611d09578282604051635820a91160e01b81526004016107d8929190615366565b805460ff191660ff8381169190911780835561010090041615611d3057805461ff00191681555b6001600160c81b03198416600090815260036020526040902080546001600160a01b0319166001600160a01b03871617905560ff821660001901611de05760018054808201825560009182527fb10e2d527612073b26eecdfd717e6a320cf44b4afac2b0732d9fcbe2b7fa0cf6600680830491909101805464ffffffffff929093066005026101000a9182021990921660d887901c919091021790556002805491611dda83615118565b91905055505b846001600160a01b031663ea6439146040518163ffffffff1660e01b8152600401600060405180830381600087803b158015611e1b57600080fd5b505af1158015611e2f573d6000803e3d6000fd5b50506040516001600160a01b038816925060ff851691506001600160d81b03198616907f9d59a7f92873a37532afecac87d9ae2e0571c04f7cfe13ace6f38209dd1acd1c90600090a45050505050565b60018181548110611e8f57600080fd5b9060005260206000209060069182820401919006600502915054906101000a900460d81b81565b6000600654600114611eda5760405162461bcd60e51b81526004016107d890614e98565b60026006556000611ef16040870160208801614726565b6001600160a01b03161480611f1e57506000611f136060870160408801614726565b6001600160a01b0316145b15611f3c57604051635435b28960e11b815260040160405180910390fd5b600a80546001600160601b0316906000611f5583615383565b82546101009290920a6001600160601b0381810219909316918316021790915581166000908152600b60209081526040918290208054336001600160a01b0319909116178155929350611fac918801908801614726565b6001820180546001600160a01b0319166001600160a01b0392909216919091179055611fde6060870160408801614726565b6002820180546001600160a01b0319166001600160a01b03929092169190911790556000612017612012602089018961475b565b613a7d565b905060008260010160009054906101000a90046001600160a01b03166001600160a01b031663313ce5676040518163ffffffff1660e01b8152600401602060405180830381865afa158015612070573d6000803e3d6000fd5b505050506040513d601f19601f8201168201806040525081019061209491906153a9565b905060008360020160009054906101000a90046001600160a01b03166001600160a01b031663313ce5676040518163ffffffff1660e01b8152600401602060405180830381865afa1580156120ed573d6000803e3d6000fd5b505050506040513d601f19601f8201168201806040525081019061211191906153a9565b90506000836001600160a01b031663bb24fe8a6040518163ffffffff1660e01b8152600401602060405180830381865afa158015612153573d6000803e3d6000fd5b505050506040513d601f19601f8201168201806040525081019061217791906151df565b6003811115612188576121886151c9565b141580612198575060068260ff16105b806121a6575060128260ff16115b806121b4575060068160ff16105b806121c2575060128160ff16115b156121e057604051635435b28960e11b815260040160405180910390fd5b60405163bae96bdd60e01b81526001600160a01b0384169063bae96bdd906122129088908c90869088906004016153f5565b600060405180830381600087803b15801561222c57600080fd5b505af1158015612240573d6000803e3d6000fd5b50505050826001600160a01b031663d61735ca6040518163ffffffff1660e01b8152600401602060405180830381865afa158015612282573d6000803e3d6000fd5b505050506040513d601f19601f820116820180604052508101906122a69190615330565b60028501805460c89290921c600160a01b0266ffffffffffffff60a01b199092169190911790555050506001600160601b0382166000908152600c602052604090206122f86080880160608901614726565b81546001600160a81b0319166001600160a01b0391909116178155600060088161232560208b018b61475b565b6001600160d81b0319168152602081019190915260400160009081208054909250600160601b900465ffffffffffff1690600183018161236b60808d0160608e01614726565b6001600160a01b0316815260208101919091526040016000205465ffffffffffff90811691508216811161239f57806123a1565b815b845465ffffffffffff60a81b1916600160a81b65ffffffffffff928316021785558354600160301b9004166123dc60a08c0160808d016154d7565b65ffffffffffff16111561240357604051635435b28960e11b815260040160405180910390fd5b61241360a08b0160808c016154d7565b6001909401805465ffffffffffff958616600160301b026bffffffffffff00000000000019821681178355945465ffffffffffff199095166bffffffffffffffffffffffff199091161793909416929092179092555060009050612484612481610100890160e08a0161475b565b90565b6001600160d81b031916146126a75760006124a9612012610100890160e08a0161475b565b90506001816001600160a01b031663bb24fe8a6040518163ffffffff1660e01b8152600401602060405180830381865afa1580156124eb573d6000803e3d6000fd5b505050506040513d601f19601f8201168201806040525081019061250f91906151df565b6003811115612520576125206151c9565b1415806125af575060018201546001600160a01b038083169163caf92785911661254e6101008b018b6154f4565b6040518463ffffffff1660e01b815260040161256c9392919061553a565b602060405180830381865afa158015612589573d6000803e3d6000fd5b505050506040513d601f19601f820116820180604052508101906125ad9190615280565b155b156125cd57604051635435b28960e11b815260040160405180910390fd5b806001600160a01b031663d61735ca6040518163ffffffff1660e01b8152600401602060405180830381865afa15801561260b573d6000803e3d6000fd5b505050506040513d601f19601f8201168201806040525081019061262f9190615330565b60048301805460c89290921c600160a01b0266ffffffffffffff60a01b199092169190911790556126646101008801886154f4565b60058401916126749190836155a5565b5061268761014088016101208901615664565b600483018054911515600160d81b0260ff60d81b19909216919091179055505b60028101546001600160c81b0319600160a01b9182900460c890811b82166000908152600d60209081526040808320600488015496909604841b85168352949052929092205490911b908116156127f357600261270382613394565b6001600160a01b031663bb24fe8a6040518163ffffffff1660e01b8152600401602060405180830381865afa158015612740573d6000803e3d6000fd5b505050506040513d601f19601f8201168201806040525081019061276491906151df565b6003811115612775576127756151c9565b1461279357604051635435b28960e11b815260040160405180910390fd5b600061279e82613b46565b6001600160d81b03198116600090815260046020526040902054909150610100900460ff1615156001036127f15760405163ae05d58960e01b81526001600160d81b0319821660048201526024016107d8565b505b5061280c61280760c0880160a08901614726565b613b5a565b61282957604051635435b28960e11b815260040160405180910390fd5b600061283b60c0880160a08901614726565b6001600160a01b03161461287c5761285960c0870160a08801614726565b6004820180546001600160a01b0319166001600160a01b03929092169190911790555b6000612889838888613bc7565b9050806128a1576128a1878488606001356000613e48565b8160020160149054906101000a900460c81b6001600160c81b031916836001600160601b03167f7cbd7aa1f47e4f995e92547da29ca023e5fad4db6922fcaa352efa004066491f87876040516128f8929190615681565b60405180910390a350506001600655949350505050565b600b602052600090815260409020805460018201546002830154600384015460048501546005860180546001600160a01b03968716979587169680861696600160a01b9687900460c890811b9792861695928304901b93600160d81b90920460ff169290919061297e906150c1565b80601f01602080910402602001604051908101604052809291908181526020018280546129aa906150c1565b80156129f75780601f106129cc576101008083540402835291602001916129f7565b820191906000526020600020905b8154815290600101906020018083116129da57829003601f168201915b5050505050905089565b6000546001600160a01b03163314612a2b5760405162461bcd60e51b81526004016107d890615131565b61271065ffffffffffff82161115612a56576040516358d620b360e01b815260040160405180910390fd5b6000826002811115612a6a57612a6a6151c9565b03612b02576001600160d81b0319831660009081526008602052604090205461271090612aa690600160301b900465ffffffffffff1683615157565b65ffffffffffff161115612acd576040516358d620b360e01b815260040160405180910390fd5b6001600160d81b031983166000908152600860205260409020805465ffffffffffff191665ffffffffffff8316179055505050565b6001826002811115612b1657612b166151c9565b03612bb3576001600160d81b0319831660009081526008602052604090205461271090612b4b9065ffffffffffff1683615157565b65ffffffffffff161115612b72576040516358d620b360e01b815260040160405180910390fd5b6001600160d81b03198316600090815260086020526040902080546bffffffffffff0000000000001916600160301b65ffffffffffff841602179055505050565b6002826002811115612bc757612bc76151c9565b03612c06576001600160d81b031983166000908152600860205260409020805465ffffffffffff60601b1916600160601b65ffffffffffff8416021790555b505050565b6000546001600160a01b03163314612c355760405162461bcd60e51b81526004016107d890615131565b6001600160d81b0319811660009081526004602052604090205460ff16612c745780600060405163def1560160e01b81526004016107d8929190615366565b6001600160d81b0319811660009081526004602052604090208054610100900460ff1615612cc15760405163271614df60e21b81526001600160d81b0319831660048201526024016107d8565b805461ff0019166101001781556040516001600160d81b03198316907fa967d5160f4efeca6ce587658357cfe54cbe547c6945ddf21a06ac712216942a90600090a25050565b600654600114612d295760405162461bcd60e51b81526004016107d890614e98565b6002600655612d3783612f68565b6001600160601b0383166000908152600b6020526040902080546001600160a01b03163314612d7b576040516319b1d90760e31b81523360048201526024016107d8565b612d84846134af565b60405163b04046df60e01b81526001600160601b03861660048201526001600160a01b03919091169063b04046df90602401600060405180830381600087803b158015612dd057600080fd5b505af1158015612de4573d6000803e3d6000fd5b505050506000612df5858585613e97565b905080612e19576004820154612e19906001600160a01b0316866000808888613f06565b6002820154604051600160a01b90910460c81b6001600160c81b031916906001600160601b038716907f2c784826e62ed5cac07a5ebe66734ece0cdc7ee0559b21b59d1434a64e07ec8290600090a350506001600655505050565b600654600114612e965760405162461bcd60e51b81526004016107d890614e98565b60026006553360008181526009602090815260408083206001600160a01b0386168452909152812080549082905583929091612ed59184918490613216565b5050600160065550565b6000546001600160a01b03163314612f095760405162461bcd60e51b81526004016107d890615131565b600080546001600160a01b0319166001600160a01b0383169081178255604051909133917f8be0079c531659141344cd1fd0a4f28419497f9722a3daafe3b4186f6b6457e09190a350565b6000612f5f82612f68565b6114fc82613f36565b600a546001600160601b0390811690821610612fa257604051630d55bc2360e41b81526001600160601b03821660048201526024016107d8565b50565b60008080612fde89896001600160a01b038a1615801590612fd85750886001600160a01b03168a6001600160a01b031614155b87610b81565b90925090508115613026576001600160a01b0380881660009081526009602090815260408083209389168352929052908120805484929061302090849061526d565b90915550505b801561306c576007546001600160a01b0390811660009081526009602090815260408083209389168352929052908120805483929061306690849061526d565b90915550505b613076818361526d565b9998505050505050505050565b60c082015160208301516001600160c81b031982166130ae576130a98187876001613216565b61320e565b60006130b983613394565b61010086015160608701516001600160c81b03199081166000908152600d602090815260408083208985168452909152902054929350909160c81b9081161561318157600061310782613394565b6040516333f1a81560e11b81529091506001600160a01b038216906367e3502a90613138908a908790600401615695565b600060405180830381865afa158015613155573d6000803e3d6000fd5b505050506040513d6000823e601f3d908101601f1916820160405261317d91908101906156ba565b9250505b61318c84848a613f65565b60e0870151604051631c81b11f60e31b81526001600160a01b0385169163e40d88f8916131c4918d91899188918f91906004016156ee565b6060604051808303816000875af11580156131e3573d6000803e3d6000fd5b505050506040513d601f19601f820116820180604052508101906132079190615733565b5050505050505b505050505050565b600081151560010361328f576040516370a0823160e01b81526001600160a01b0385811660048301528616906370a0823190602401602060405180830381865afa158015613268573d6000803e3d6000fd5b505050506040513d601f19601f8201168201806040525081019061328c919061529d565b90505b82156132a9576132a96001600160a01b0386168585613f79565b600182151514801561332c57506132c0838261526d565b6040516370a0823160e01b81526001600160a01b0386811660048301528716906370a0823190602401602060405180830381865afa158015613306573d6000803e3d6000fd5b505050506040513d601f19601f8201168201806040525081019061332a919061529d565b105b1561335557604051635f8b555b60e11b81526001600160a01b03861660048201526024016107d8565b5050505050565b600082600019048411830215820261337357600080fd5b5091020490565b6000600160981b831661338d5781611845565b5090919050565b6001600160c81b031981166000908152600360205260408120546001600160a01b0316806114fc576000806133c88561399a565b91509150818160405163def1560160e01b81526004016107d8929190615366565b6000600160991b82166133fc57846133fe565b815b90506133558382866000613216565b6000831515810361342057506000611845565b6134358265ffffffffffff851661271061335c565b949350505050565b6001609a1b86161561320e5761320e63a5b13f6960e01b868686868660405160240161346d95949392919061576c565b60408051601f198184030181529190526020810180516001600160e01b03166001600160e01b0319909316929092179091526001600160a01b03881690613ffa565b6001600160601b0381166000908152600b60205260408120600201546114fc90600160a01b900460c81b613394565b6001600160601b0384166000908152600b60205260408120600381018054869190849061350c90849061526d565b9091555050600181015460048201546001600160a01b0390911690600160981b1615613654576040516370a0823160e01b81523060048201526000906001600160a01b038316906370a0823190602401602060405180830381865afa158015613579573d6000803e3d6000fd5b505050506040513d601f19601f8201168201806040525081019061359d919061529d565b60048401549091506135bd906001600160a01b0316898960018a8a613698565b6135c7878261526d565b6040516370a0823160e01b81523060048201526001600160a01b038416906370a0823190602401602060405180830381865afa15801561360b573d6000803e3d6000fd5b505050506040513d601f19601f8201168201806040525081019061362f919061529d565b101561364e5760405163f7a632f560e01b815260040160405180910390fd5b5061368b565b815461366e9082906001600160a01b0316308960006140b8565b600482015461368b906001600160a01b0316888860008989613698565b5060019695505050505050565b6001609d1b86161561320e5761320e6309b9601c60e01b868686868660405160240161346d95949392919061579b565b60408051606080820183526000808352602083015291810191909152815160000361371a5750506040805160608101825260008082526020808301829052835190810184529081529181019190915290565b61010082511461373d57604051635435b28960e11b815260040160405180910390fd5b818060200190518101906114fc91906157cc565b612c06827f00000000000000000000000000000000000000000000000000000000000000003330878660016141f8565b6001609b1b8716156137f5576137f563b898895e60e01b8787878787876040516024016137b39695949392919061586b565b60408051601f198184030181529190526020810180516001600160e01b03166001600160e01b0319909316929092179091526001600160a01b03891690613ffa565b50505050505050565b806001600160a01b03163b600003612fa257604051631bd1ba9d60e21b81526001600160a01b03821660048201526024016107d8565b8060005b600781101561396657600082826007811061385557613855615082565b1a60f81b905060028210156138b157600360fc1b6001600160f81b03198216108061388d5750603960f81b6001600160f81b03198216115b156138ac5783604051628b684360e31b81526004016107d89190614e83565b61395d565b600582101561390157604160f81b6001600160f81b03198216108061388d5750602d60f91b6001600160f81b0319821611156138ac5783604051628b684360e31b81526004016107d89190614e83565b6001600160f81b031981161580159061393e5750604160f81b6001600160f81b03198216108061393e5750602d60f91b6001600160f81b03198216115b1561395d5783604051628b684360e31b81526004016107d89190614e83565b50600101613838565b5060006139728361399a565b9150508060ff16600003612c065782604051628b684360e31b81526004016107d89190614e83565b60008082600360fc1b6001600160f81b031982841a60f81b1610806139d25750603960f81b8160001a60f81b6001600160f81b031916115b806139f05750600360fc1b8160011a60f81b6001600160f81b031916105b80613a0e5750603960f81b8160011a60f81b6001600160f81b031916115b15613a2d5783604051628b684360e31b81526004016107d89190614e83565b6000613a3c603083831a6158bd565b613a4790600a6158d6565b9050613a586030600184901a6158bd565b613a62908261534d565b60109290921b6001600160d81b031916959194509092505050565b6001600160d81b03198116600090815260046020908152604080832081518083019092525460ff8082168084526101009092041615159282019290925290613add5782600060405163def1560160e01b81526004016107d8929190615366565b806020015115613b0c5760405163ae05d58960e01b81526001600160d81b0319841660048201526024016107d8565b6000613b1c84836000015161423b565b6001600160c81b0319166000908152600360205260409020546001600160a01b0316949350505050565b600080613b528361399a565b509392505050565b6000600160981b821615158015613b8357506001609f1b82161580613b8357506001609d1b8216155b8015613b9357506001609c1b8216155b15613ba057506000919050565b6001600160a01b03821615806114fc575050600160991b6001600160a01b03909116101590565b600080613bda612012602086018661475b565b90506001816001600160a01b031663994595e16040518163ffffffff1660e01b8152600401602060405180830381865afa158015613c1c573d6000803e3d6000fd5b505050506040513d601f19601f82011682018060405250810190613c4091906158f2565b6001811115613c5157613c516151c9565b14613c6f57604051635435b28960e11b815260040160405180910390fd5b613c7f6060840160408501615664565b15613c9d57604051635435b28960e11b815260040160405180910390fd5b6001600160601b0385166000908152600b602090815260408083206060870135600390910155613cd291908701908701614726565b9050613cfb600160981b613cec60c0880160a08901614726565b166001600160a01b0316151590565b15613e19576040516370a0823160e01b81523060048201526000906001600160a01b038316906370a0823190602401602060405180830381865afa158015613d47573d6000803e3d6000fd5b505050506040513d601f19601f82011682018060405250810190613d6b919061529d565b9050613d7e868887606001356001613e48565b613d8c60608601358261526d565b6040516370a0823160e01b81523060048201526001600160a01b038416906370a0823190602401602060405180830381865afa158015613dd0573d6000803e3d6000fd5b505050506040513d601f19601f82011682018060405250810190613df4919061529d565b1015613e135760405163f7a632f560e01b815260040160405180910390fd5b50613e3c565b613e2b813330876060013560016140b8565b613e3c858786606001356000613e48565b50600195945050505050565b613e91613e5b60c0860160a08701614726565b8433613e6d6040890160208a01614726565b613e7d60608a0160408b01614726565b8787613e8c60c08d018d6154f4565b6142ca565b50505050565b6001600160601b0383166000908152600b6020526040812060038101805490839055600182015460048301548354613ee3926001600160a01b0390811692610d0f92908216911661337a565b6004820154613e3c906001600160a01b0381169088908490600160981b16151589895b6001609e1b86161561320e5761320e63a5658c8660e01b868686868660405160240161346d95949392919061579b565b6001600160601b0381166000908152600b60205260408120600401546114fc90600160a01b900460c81b613394565b612c066001600160a01b038416838361434d565b600060405163a9059cbb60e01b81526001600160a01b0384166004820152826024820152602060006044836000895af13d15601f3d1160016000511416171691505080613e915760405162461bcd60e51b815260206004820152600f60248201526e1514905394d1915497d19052531151608a1b60448201526064016107d8565b600060208201519050600080846001600160a01b03168460405161401e91906151ad565b6000604051808303816000865af19150503d806000811461405b576040519150601f19603f3d011682016040523d82523d6000602084013e614060565b606091505b50915091508161407357614073816143cd565b6000818060200190518101906140899190615913565b90506001600160e01b03198082169085161461320e5760405163d1c96d5f60e01b815260040160405180910390fd5b6000811515600103614131576040516370a0823160e01b81526001600160a01b0385811660048301528716906370a0823190602401602060405180830381865afa15801561410a573d6000803e3d6000fd5b505050506040513d601f19601f8201168201806040525081019061412e919061529d565b90505b821561414c5761414c6001600160a01b0387168686866143f5565b60018215151480156141cf5750614163838261526d565b6040516370a0823160e01b81526001600160a01b0386811660048301528816906370a0823190602401602060405180830381865afa1580156141a9573d6000803e3d6000fd5b505050506040513d601f19601f820116820180604052508101906141cd919061529d565b105b1561320e57604051635f8b555b60e11b81526001600160a01b03871660048201526024016107d8565b6001600160a01b0386161580159061421557506000826040015151115b1561422e576142298787878787878761448a565b6137f5565b6137f587868686856140b8565b600080614249600a84615953565b61425490603061534d565b60f81b90506000614266600a85615975565b61427190603061534d565b6040516001600160f81b0319808516602083015260f89290921b91821660218201526001600160d81b0319871660228201529091506027016040516020818303038152906040526142c190615997565b95945050505050565b6001609f1b891615614342576143426366e7416760e01b89898989898989896040516024016143009897969594939291906159ce565b60408051601f198184030181529190526020810180516001600160e01b03166001600160e01b0319909316929092179091526001600160a01b038b1690613ffa565b505050505050505050565b600060405163095ea7b360e01b81526001600160a01b0384166004820152826024820152602060006044836000895af13d15601f3d1160016000511416171691505080613e915760405162461bcd60e51b815260206004820152600e60248201526d1054141493d59157d1905253115160921b60448201526064016107d8565b8051156143dc57805181602001fd5b60405163472850e360e11b815260040160405180910390fd5b60006040516323b872dd60e01b81526001600160a01b03851660048201526001600160a01b03841660248201528260448201526020600060648360008a5af13d15601f3d11600160005114161716915050806133555760405162461bcd60e51b81526020600482015260146024820152731514905394d1915497d19493d357d1905253115160621b60448201526064016107d8565b6000811515600103614503576040516370a0823160e01b81526001600160a01b0386811660048301528916906370a0823190602401602060405180830381865afa1580156144dc573d6000803e3d6000fd5b505050506040513d601f19601f82011682018060405250810190614500919061529d565b90505b6040805160a0810182526001600160a01b038a81166060830190815260808301889052825260208681015181840152865165ffffffffffff168385015283518085018552898316815290810188905286840151935163187945bd60e11b8152918b16936330f28b7a9361457d939092918c91600401615a2f565b600060405180830381600087803b15801561459757600080fd5b505af11580156145ab573d6000803e3d6000fd5b50505050811515600114801561463257506145c6848261526d565b6040516370a0823160e01b81526001600160a01b0387811660048301528a16906370a0823190602401602060405180830381865afa15801561460c573d6000803e3d6000fd5b505050506040513d601f19601f82011682018060405250810190614630919061529d565b105b1561465b57604051635f8b555b60e11b81526001600160a01b03891660048201526024016107d8565b5050505050505050565b80356001600160601b038116811461467c57600080fd5b919050565b60008060006040848603121561469657600080fd5b61469f84614665565b925060208401356001600160401b03808211156146bb57600080fd5b818601915086601f8301126146cf57600080fd5b8135818111156146de57600080fd5b8760208260051b85010111156146f357600080fd5b6020830194508093505050509250925092565b6001600160a01b0381168114612fa257600080fd5b803561467c81614706565b60006020828403121561473857600080fd5b813561184581614706565b80356001600160d81b03198116811461467c57600080fd5b60006020828403121561476d57600080fd5b61184582614743565b65ffffffffffff81168114612fa257600080fd5b8015158114612fa257600080fd5b600080600080608085870312156147ae57600080fd5b84356147b981614776565b935060208501356147c981614776565b925060408501356147d98161478a565b9396929550929360600135925050565b6000602082840312156147fb57600080fd5b61184582614665565b6001600160c81b031981168114612fa257600080fd5b60008060006060848603121561482f57600080fd5b833561483a81614804565b9250602084013561484a81614804565b9150604084013561485a81614804565b809150509250925092565b60008083601f84011261487757600080fd5b5081356001600160401b0381111561488e57600080fd5b6020830191508360208285010111156148a657600080fd5b9250929050565b600080600080606085870312156148c357600080fd5b6148cc85614665565b93506020850135925060408501356001600160401b038111156148ee57600080fd5b6148fa87828801614865565b95989497509550505050565b60005b83811015614921578181015183820152602001614909565b50506000910152565b60008151808452614942816020860160208601614906565b601f01601f19169290920160200192915050565b848152836020820152821515604082015260806060820152600061497d608083018461492a565b9695505050505050565b60008060006040848603121561499c57600080fd5b6149a584614665565b925060208401356001600160401b038111156149c057600080fd5b6149cc86828701614865565b9497909650939450505050565b6000806000604084860312156149ee57600080fd5b83356149a581614804565b602081526000611845602083018461492a565b6001600160401b0381168114612fa257600080fd5b600080600060608486031215614a3657600080fd5b614a3f84614665565b92506020840135614a4f81614a0c565b929592945050506040919091013590565b634e487b7160e01b600052604160045260246000fd5b60405160c081016001600160401b0381118282101715614a9857614a98614a60565b60405290565b60405160a081016001600160401b0381118282101715614a9857614a98614a60565b604051601f8201601f191681016001600160401b0381118282101715614ae857614ae8614a60565b604052919050565b60006001600160401b03821115614b0957614b09614a60565b50601f01601f191660200190565b600082601f830112614b2857600080fd5b8135614b3b614b3682614af0565b614ac0565b818152846020838601011115614b5057600080fd5b816020850160208301376000918101602001919091529392505050565b600080600060408486031215614b8257600080fd5b83356001600160401b0380821115614b9957600080fd5b9085019060c08288031215614bad57600080fd5b614bb5614a76565b614bbe83614665565b8152614bcc6020840161471b565b6020820152614bdd6040840161471b565b604082015260608301356060820152608083013582811115614bfe57600080fd5b614c0a89828601614b17565b60808301525060a083013582811115614c2257600080fd5b614c2e89828601614b17565b60a08301525094506020860135915080821115614c4a57600080fd5b506149cc86828701614865565b60008060408385031215614c6a57600080fd5b614c7383614743565b91506020830135614c8381614776565b809150509250929050565b60008060408385031215614ca157600080fd5b8235614cac81614706565b91506020830135614c8381614706565b600060208284031215614cce57600080fd5b5035919050565b60008060008060608587031215614ceb57600080fd5b84356001600160401b0380821115614d0257600080fd5b908601906101408289031215614d1757600080fd5b90945060208601359080821115614d2d57600080fd5b9086019060a08289031215614d4157600080fd5b90935060408601359080821115614d5757600080fd5b506148fa87828801614865565b6001600160a01b038a81168252898116602083015288811660408301526001600160c81b031988811660608401526080830188905290861660a0830152841660c082015282151560e08201526101206101008201819052600090614dca8382018561492a565b9c9b505050505050505050505050565b600060208284031215614dec57600080fd5b813561184581614804565b600080600060608486031215614e0c57600080fd5b614e1584614743565b9250602084013560038110614e2957600080fd5b9150604084013561485a81614776565b60008060408385031215614e4c57600080fd5b614cac83614743565b60008060408385031215614e6857600080fd5b8235614e7381614804565b91506020830135614c8381614804565b6001600160c81b031991909116815260200190565b6020808252600a90820152695245454e5452414e435960b01b604082015260600190565b6001600160601b038416815260406020808301829052908201839052600090849060608401835b86811015614f11578335614ef681614a0c565b6001600160401b031682529282019290820190600101614ee3565b50979650505050505050565b600082601f830112614f2e57600080fd5b8151614f3c614b3682614af0565b818152846020838601011115614f5157600080fd5b613435826020830160208701614906565b6000806040808486031215614f7657600080fd5b83516001600160401b0380821115614f8d57600080fd5b818601915086601f830112614fa157600080fd5b8151602082821115614fb557614fb5614a60565b614fc3818360051b01614ac0565b82815260a0928302850182019282820191908b851115614fe257600080fd5b958301955b848710156150505780878d031215614fff5760008081fd5b615007614a9e565b875161501281614706565b81528785015161502181614706565b818601528789015189820152606080890151908201526080808901519082015283529586019591830191614fe7565b509189015191975090945050508083111561506a57600080fd5b505061507885828601614f1d565b9150509250929050565b634e487b7160e01b600052603260045260246000fd5b634e487b7160e01b600052601160045260246000fd5b818103818111156114fc576114fc615098565b600181811c908216806150d557607f821691505b6020821081036150f557634e487b7160e01b600052602260045260246000fd5b50919050565b60006020828403121561510d57600080fd5b813561184581614a0c565b60006001820161512a5761512a615098565b5060010190565b6020808252600c908201526b15539055551213d49256915160a21b604082015260600190565b65ffffffffffff81811683821601908082111561517657615176615098565b5092915050565b6001600160601b0385168152836020820152821515604082015260806060820152600061497d608083018461492a565b600082516151bf818460208701614906565b9190910192915050565b634e487b7160e01b600052602160045260246000fd5b6000602082840312156151f157600080fd5b81516004811061184557600080fd5b600080600080600060a0868803121561521857600080fd5b85519450602086015193506040860151925060608601516152388161478a565b60808701519092506001600160401b0381111561525457600080fd5b61526088828901614f1d565b9150509295509295909350565b808201808211156114fc576114fc615098565b60006020828403121561529257600080fd5b81516118458161478a565b6000602082840312156152af57600080fd5b5051919050565b8183823760009101908152919050565b6001600160601b03861681526001600160a01b038581166020830152841660408201526060810183905260a0608082018190526000906153089083018461492a565b979650505050505050565b60006020828403121561532557600080fd5b815161184581614a0c565b60006020828403121561534257600080fd5b815161184581614804565b60ff81811683821601908111156114fc576114fc615098565b6001600160d81b031992909216825260ff16602082015260400190565b60006001600160601b0380831681810361539f5761539f615098565b6001019392505050565b6000602082840312156153bb57600080fd5b815160ff8116811461184557600080fd5b81835281816020850137506000828201602090810191909152601f909101601f19169091010190565b6001600160601b0385168152608060208201526000843561541581614776565b65ffffffffffff908116608084015260208601359061543382614776565b1660a083015260408501356154478161478a565b151560c0830152606085013560e0830152608085013536869003601e1901811261547057600080fd5b85016020810190356001600160401b0381111561548c57600080fd5b80360382131561549b57600080fd5b60a06101008501526154b2610120850182846153cc565b925050506154c5604083018560ff169052565b60ff8316606083015295945050505050565b6000602082840312156154e957600080fd5b813561184581614776565b6000808335601e1984360301811261550b57600080fd5b8301803591506001600160401b0382111561552557600080fd5b6020019150368190038213156148a657600080fd5b6001600160a01b03841681526040602082018190526000906142c190830184866153cc565b601f821115612c0657600081815260208120601f850160051c810160208610156155865750805b601f850160051c820191505b8181101561320e57828155600101615592565b6001600160401b038311156155bc576155bc614a60565b6155d0836155ca83546150c1565b8361555f565b6000601f84116001811461560457600085156155ec5750838201355b600019600387901b1c1916600186901b178355613355565b600083815260209020601f19861690835b828110156156355786850135825560209485019460019092019101615615565b50868210156156525760001960f88860031b161c19848701351681555b505060018560011b0183555050505050565b60006020828403121561567657600080fd5b81356118458161478a565b6020815260006134356020830184866153cc565b6040815260006156a8604083018561492a565b82810360208401526142c1818561492a565b6000602082840312156156cc57600080fd5b81516001600160401b038111156156e257600080fd5b61343584828501614f1d565b6001600160a01b0386811682528516602082015260a06040820181905260009061571a9083018661492a565b6060830194909452509015156080909101529392505050565b60008060006060848603121561574857600080fd5b83519250602084015161575a81614706565b80925050604084015190509250925092565b6001600160601b03861681528460208201528360408201526080606082015260006153086080830184866153cc565b6001600160601b038616815284602082015283151560408201526080606082015260006153086080830184866153cc565b6000602082840312156157de57600080fd5b81516001600160401b03808211156157f557600080fd5b908301906060828603121561580957600080fd5b60405160608101818110838211171561582457615824614a60565b604052825161583281614776565b81526020838101519082015260408301518281111561585057600080fd5b61585c87828601614f1d565b60408301525095945050505050565b6001600160601b03871681526001600160401b038616602082015260018060a01b038516604082015283606082015260a0608082015260006158b160a0830184866153cc565b98975050505050505050565b60ff82811682821603908111156114fc576114fc615098565b60ff818116838216029081169081811461517657615176615098565b60006020828403121561590457600080fd5b81516002811061184557600080fd5b60006020828403121561592557600080fd5b81516001600160e01b03198116811461184557600080fd5b634e487b7160e01b600052601260045260246000fd5b600060ff8316806159665761596661593d565b8060ff84160491505092915050565b600060ff8316806159885761598861593d565b8060ff84160691505092915050565b805160208201516001600160c81b031980821692919060078310156159c65780818460070360031b1b83161693505b505050919050565b6001600160601b03891681526001600160a01b0388811660208301528781166040830152861660608201526080810185905283151560a082015260e060c08201819052600090615a2190830184866153cc565b9a9950505050505050505050565b6000610100615a5283885180516001600160a01b03168252602090810151910152565b6020870151604084015260408701516060840152615a86608084018780516001600160a01b03168252602090810151910152565b6001600160a01b03851660c084015260e083018190526153088184018561492a56fea26469706673582212207c71e059ed2abbb2179881ce4b3912347c17830298537fbc7cf9f7d5d95a6fae64736f6c63430008130033",
    "linkReferences": {}
  },
  "methodIdentifiers": {
    "abort(uint96)": "1ed75f1f",
    "auction((bytes5,address,address,address,uint48,address,bytes,bytes5,bytes,bool),(uint48,uint48,bool,uint256,bytes),string)": "8a9f1315",
    "bid((uint96,address,address,uint256,bytes,bytes),bytes)": "6e9c996d",
    "calculateQuoteFees(uint48,uint48,bool,uint256)": "0bad843b",
    "cancel(uint96,bytes)": "cf042fb0",
    "claimBids(uint96,uint64[])": "0a35511b",
    "claimRewards(address)": "ef5cfb8c",
    "condensers(bytes7,bytes7)": "f4b26181",
    "curate(uint96,bytes)": "505f901a",
    "execOnModule(bytes7,bytes)": "50ab0489",
    "fees(bytes5)": "31d72d6b",
    "getAuctionModuleForId(uint96)": "3bb7098a",
    "getBatchModuleForId(uint96)": "3ab3f98e",
    "getCuratorFee(bytes5,address)": "e814b76a",
    "getDerivativeModuleForId(uint96)": "fc48ba55",
    "getFees(bytes5)": "0ab9a1ee",
    "getModuleForVeecode(bytes7)": "9e55cba3",
    "getModuleStatus(bytes5)": "5bb27aab",
    "getProtocol()": "d16352af",
    "getRewards(address,address)": "779bcb9b",
    "installModule(address)": "7eb1e761",
    "isExecOnModule()": "5c774ed7",
    "lotCounter()": "c4ce88fd",
    "lotFees(uint96)": "ea072e70",
    "lotRouting(uint96)": "9e2e003a",
    "modules(uint256)": "81b2248a",
    "modulesCount()": "f315aafe",
    "owner()": "8da5cb5b",
    "refundBid(uint96,uint64,uint256)": "510bd273",
    "rewards(address,address)": "e70b9e27",
    "setCondenser(bytes7,bytes7,bytes7)": "20b15fe4",
    "setCuratorFee(bytes5,uint48)": "7249c0d5",
    "setFee(bytes5,uint8,uint48)": "c74c149b",
    "setProtocol(address)": "0a9d793d",
    "settle(uint96,uint256,bytes)": "367b02fb",
    "sunsetModule(bytes5)": "c75519ba",
    "transferOwnership(address)": "f2fde38b"
  },
  "id": 115
}