{
  "abi": [
    {
      "type": "constructor",
      "inputs": [
        {
          "name": "auctionHouse_",
          "type": "address",
          "internalType": "address"
        }
      ],
      "stateMutability": "nonpayable"
    },
    {
      "type": "function",
      "name": "auctionHouse",
      "inputs": [],
      "outputs": [
        {
          "name": "",
          "type": "address",
          "internalType": "address"
        }
      ],
      "stateMutability": "view"
    },
    {
      "type": "function",
      "name": "getAuctionsByBaseToken",
      "inputs": [
        {
          "name": "baseToken_",
          "type": "address",
          "internalType": "address"
        },
        {
          "name": "startId_",
          "type": "uint96",
          "internalType": "uint96"
        },
        {
          "name": "count_",
          "type": "uint96",
          "internalType": "uint96"
        }
      ],
      "outputs": [
        {
          "name": "",
          "type": "uint96[]",
          "internalType": "uint96[]"
        }
      ],
      "stateMutability": "view"
    },
    {
      "type": "function",
      "name": "getAuctionsByCurator",
      "inputs": [
        {
          "name": "curator_",
          "type": "address",
          "internalType": "address"
        },
        {
          "name": "startId_",
          "type": "uint96",
          "internalType": "uint96"
        },
        {
          "name": "count_",
          "type": "uint96",
          "internalType": "uint96"
        }
      ],
      "outputs": [
        {
          "name": "",
          "type": "uint96[]",
          "internalType": "uint96[]"
        }
      ],
      "stateMutability": "view"
    },
    {
      "type": "function",
      "name": "getAuctionsByDerivative",
      "inputs": [
        {
          "name": "derivativeReference_",
          "type": "bytes7",
          "internalType": "Veecode"
        },
        {
          "name": "startId_",
          "type": "uint96",
          "internalType": "uint96"
        },
        {
          "name": "count_",
          "type": "uint96",
          "internalType": "uint96"
        }
      ],
      "outputs": [
        {
          "name": "",
          "type": "uint96[]",
          "internalType": "uint96[]"
        }
      ],
      "stateMutability": "view"
    },
    {
      "type": "function",
      "name": "getAuctionsByFormat",
      "inputs": [
        {
          "name": "auctionFormat_",
          "type": "bytes5",
          "internalType": "Keycode"
        },
        {
          "name": "startId_",
          "type": "uint96",
          "internalType": "uint96"
        },
        {
          "name": "count_",
          "type": "uint96",
          "internalType": "uint96"
        }
      ],
      "outputs": [
        {
          "name": "",
          "type": "uint96[]",
          "internalType": "uint96[]"
        }
      ],
      "stateMutability": "view"
    },
    {
      "type": "function",
      "name": "getAuctionsByModule",
      "inputs": [
        {
          "name": "auctionReference_",
          "type": "bytes7",
          "internalType": "Veecode"
        },
        {
          "name": "startId_",
          "type": "uint96",
          "internalType": "uint96"
        },
        {
          "name": "count_",
          "type": "uint96",
          "internalType": "uint96"
        }
      ],
      "outputs": [
        {
          "name": "",
          "type": "uint96[]",
          "internalType": "uint96[]"
        }
      ],
      "stateMutability": "view"
    },
    {
      "type": "function",
      "name": "getAuctionsByQuoteToken",
      "inputs": [
        {
          "name": "quoteToken_",
          "type": "address",
          "internalType": "address"
        },
        {
          "name": "startId_",
          "type": "uint96",
          "internalType": "uint96"
        },
        {
          "name": "count_",
          "type": "uint96",
          "internalType": "uint96"
        }
      ],
      "outputs": [
        {
          "name": "",
          "type": "uint96[]",
          "internalType": "uint96[]"
        }
      ],
      "stateMutability": "view"
    },
    {
      "type": "function",
      "name": "getAuctionsByRequestedCurator",
      "inputs": [
        {
          "name": "curator_",
          "type": "address",
          "internalType": "address"
        },
        {
          "name": "startId_",
          "type": "uint96",
          "internalType": "uint96"
        },
        {
          "name": "count_",
          "type": "uint96",
          "internalType": "uint96"
        }
      ],
      "outputs": [
        {
          "name": "",
          "type": "uint96[]",
          "internalType": "uint96[]"
        }
      ],
      "stateMutability": "view"
    },
    {
      "type": "function",
      "name": "getAuctionsBySeller",
      "inputs": [
        {
          "name": "seller_",
          "type": "address",
          "internalType": "address"
        },
        {
          "name": "startId_",
          "type": "uint96",
          "internalType": "uint96"
        },
        {
          "name": "count_",
          "type": "uint96",
          "internalType": "uint96"
        }
      ],
      "outputs": [
        {
          "name": "",
          "type": "uint96[]",
          "internalType": "uint96[]"
        }
      ],
      "stateMutability": "view"
    },
    {
      "type": "function",
      "name": "getBidClaim",
      "inputs": [
        {
          "name": "lotId_",
          "type": "uint96",
          "internalType": "uint96"
        },
        {
          "name": "bidId_",
          "type": "uint64",
          "internalType": "uint64"
        }
      ],
      "outputs": [
        {
          "name": "",
          "type": "tuple",
          "internalType": "struct IBatchAuction.BidClaim",
          "components": [
            {
              "name": "bidder",
              "type": "address",
              "internalType": "address"
            },
            {
              "name": "referrer",
              "type": "address",
              "internalType": "address"
            },
            {
              "name": "paid",
              "type": "uint256",
              "internalType": "uint256"
            },
            {
              "name": "payout",
              "type": "uint256",
              "internalType": "uint256"
            },
            {
              "name": "refund",
              "type": "uint256",
              "internalType": "uint256"
            }
          ]
        }
      ],
      "stateMutability": "view"
    },
    {
      "type": "function",
      "name": "getBidIdAtIndex",
      "inputs": [
        {
          "name": "lotId_",
          "type": "uint96",
          "internalType": "uint96"
        },
        {
          "name": "index_",
          "type": "uint256",
          "internalType": "uint256"
        }
      ],
      "outputs": [
        {
          "name": "",
          "type": "uint64",
          "internalType": "uint64"
        }
      ],
      "stateMutability": "view"
    },
    {
      "type": "function",
      "name": "getBidIds",
      "inputs": [
        {
          "name": "lotId_",
          "type": "uint96",
          "internalType": "uint96"
        },
        {
          "name": "start_",
          "type": "uint256",
          "internalType": "uint256"
        },
        {
          "name": "count_",
          "type": "uint256",
          "internalType": "uint256"
        }
      ],
      "outputs": [
        {
          "name": "",
          "type": "uint64[]",
          "internalType": "uint64[]"
        }
      ],
      "stateMutability": "view"
    },
    {
      "type": "function",
      "name": "getFeeData",
      "inputs": [
        {
          "name": "lotId_",
          "type": "uint96",
          "internalType": "uint96"
        }
      ],
      "outputs": [
        {
          "name": "",
          "type": "tuple",
          "internalType": "struct IAuctionHouse.FeeData",
          "components": [
            {
              "name": "curator",
              "type": "address",
              "internalType": "address"
            },
            {
              "name": "curated",
              "type": "bool",
              "internalType": "bool"
            },
            {
              "name": "curatorFee",
              "type": "uint48",
              "internalType": "uint48"
            },
            {
              "name": "protocolFee",
              "type": "uint48",
              "internalType": "uint48"
            },
            {
              "name": "referrerFee",
              "type": "uint48",
              "internalType": "uint48"
            }
          ]
        }
      ],
      "stateMutability": "view"
    },
    {
      "type": "function",
      "name": "getLiveAuctions",
      "inputs": [
        {
          "name": "startId_",
          "type": "uint96",
          "internalType": "uint96"
        },
        {
          "name": "count_",
          "type": "uint96",
          "internalType": "uint96"
        }
      ],
      "outputs": [
        {
          "name": "",
          "type": "uint96[]",
          "internalType": "uint96[]"
        }
      ],
      "stateMutability": "view"
    },
    {
      "type": "function",
      "name": "getMaxLotId",
      "inputs": [],
      "outputs": [
        {
          "name": "",
          "type": "uint96",
          "internalType": "uint96"
        }
      ],
      "stateMutability": "view"
    },
    {
      "type": "function",
      "name": "getNumBids",
      "inputs": [
        {
          "name": "lotId_",
          "type": "uint96",
          "internalType": "uint96"
        }
      ],
      "outputs": [
        {
          "name": "",
          "type": "uint256",
          "internalType": "uint256"
        }
      ],
      "stateMutability": "view"
    },
    {
      "type": "function",
      "name": "getRouting",
      "inputs": [
        {
          "name": "lotId_",
          "type": "uint96",
          "internalType": "uint96"
        }
      ],
      "outputs": [
        {
          "name": "",
          "type": "tuple",
          "internalType": "struct IAuctionHouse.Routing",
          "components": [
            {
              "name": "seller",
              "type": "address",
              "internalType": "address"
            },
            {
              "name": "baseToken",
              "type": "address",
              "internalType": "address"
            },
            {
              "name": "quoteToken",
              "type": "address",
              "internalType": "address"
            },
            {
              "name": "auctionReference",
              "type": "bytes7",
              "internalType": "Veecode"
            },
            {
              "name": "funding",
              "type": "uint256",
              "internalType": "uint256"
            },
            {
              "name": "callbacks",
              "type": "address",
              "internalType": "contract ICallback"
            },
            {
              "name": "derivativeReference",
              "type": "bytes7",
              "internalType": "Veecode"
            },
            {
              "name": "wrapDerivative",
              "type": "bool",
              "internalType": "bool"
            },
            {
              "name": "derivativeParams",
              "type": "bytes",
              "internalType": "bytes"
            }
          ]
        }
      ],
      "stateMutability": "view"
    },
    {
      "type": "function",
      "name": "getUpcomingAuctions",
      "inputs": [
        {
          "name": "startId_",
          "type": "uint96",
          "internalType": "uint96"
        },
        {
          "name": "count_",
          "type": "uint96",
          "internalType": "uint96"
        }
      ],
      "outputs": [
        {
          "name": "",
          "type": "uint96[]",
          "internalType": "uint96[]"
        }
      ],
      "stateMutability": "view"
    },
    {
      "type": "function",
      "name": "hasEnded",
      "inputs": [
        {
          "name": "lotId_",
          "type": "uint96",
          "internalType": "uint96"
        }
      ],
      "outputs": [
        {
          "name": "",
          "type": "bool",
          "internalType": "bool"
        }
      ],
      "stateMutability": "view"
    },
    {
      "type": "function",
      "name": "isLive",
      "inputs": [
        {
          "name": "lotId_",
          "type": "uint96",
          "internalType": "uint96"
        }
      ],
      "outputs": [
        {
          "name": "",
          "type": "bool",
          "internalType": "bool"
        }
      ],
      "stateMutability": "view"
    },
    {
      "type": "function",
      "name": "isUpcoming",
      "inputs": [
        {
          "name": "lotId_",
          "type": "uint96",
          "internalType": "uint96"
        }
      ],
      "outputs": [
        {
          "name": "",
          "type": "bool",
          "internalType": "bool"
        }
      ],
      "stateMutability": "view"
    },
    {
      "type": "function",
      "name": "remainingCapacity",
      "inputs": [
        {
          "name": "lotId_",
          "type": "uint96",
          "internalType": "uint96"
        }
      ],
      "outputs": [
        {
          "name": "",
          "type": "uint256",
          "internalType": "uint256"
        }
      ],
      "stateMutability": "view"
    },
    {
      "type": "error",
      "name": "InvalidParams",
      "inputs": []
    },
    {
      "type": "error",
      "name": "InvalidVeecode",
      "inputs": [
        {
          "name": "veecode_",
          "type": "bytes7",
          "internalType": "Veecode"
        }
      ]
    }
  ],
  "bytecode": {
    "object": "0x60806040523480156200001157600080fd5b5060405162002ed638038062002ed683398101604081905262000034916200005a565b600080546001600160a01b0319166001600160a01b03929092169190911790556200008c565b6000602082840312156200006d57600080fd5b81516001600160a01b03811681146200008557600080fd5b9392505050565b612e3a806200009c6000396000f3fe608060405234801561001057600080fd5b50600436106101415760003560e01c8063954b558e116100b8578063d831a7551161007c578063d831a75514610370578063d899a33714610390578063df3f5573146103a3578063dfba3cb5146103b6578063ed9152c8146103c9578063f39866b0146103f457600080fd5b8063954b558e146102ad578063ace54da5146102c0578063b66f4963146102e1578063c0bfb699146102f4578063cb0a2ead1461030757600080fd5b80633251dcc81161010a5780633251dcc8146101d85780636c57d285146101eb5780636fe4c402146101fe578063732efc03146102115780637d7b6853146102245780638f21c3181461024f57600080fd5b8062b3321714610146578063038559211461016f5780630440ec53146101925780631dc916b5146101a55780632bf6e028146101c5575b600080fd5b6101596101543660046125d0565b610414565b6040516101669190612605565b60405180910390f35b61018261017d366004612652565b610519565b6040519015158152602001610166565b6101826101a0366004612652565b61060b565b6101b86101b3366004612684565b6106b9565b60405161016691906126cf565b6101b86101d3366004612684565b610978565b6101b86101e6366004612684565b610bac565b6101b86101f9366004612726565b610de0565b6101b861020c366004612684565b61101e565b61018261021f366004612652565b611252565b610237610232366004612746565b611300565b6040516001600160401b039091168152602001610166565b61026261025d366004612787565b6113fb565b604051610166919081516001600160a01b0390811682526020808401519091169082015260408083015190820152606080830151908201526080918201519181019190915260a00190565b6101b86102bb3660046127c0565b611538565b6102d36102ce366004612652565b61173f565b604051908152602001610166565b6101b86102ef3660046127c0565b61182a565b6101b8610302366004612726565b611a26565b61031a610315366004612652565b611c57565b6040805182516001600160a01b031681526020808401511515908201528282015165ffffffffffff908116928201929092526060808401518316908201526080928301519091169181019190915260a001610166565b610378611d49565b6040516001600160601b039091168152602001610166565b6102d361039e366004612652565b611dc7565b6101b86103b1366004612684565b611e75565b6101b86103c43660046127ee565b6120a9565b6000546103dc906001600160a01b031681565b6040516001600160a01b039091168152602001610166565b610407610402366004612652565b6122e2565b604051610166919061286b565b60008054604051631ddb84c560e11b81526001600160601b0386166004820152606092916001600160a01b031690633bb7098a90602401602060405180830381865afa158015610468573d6000803e3d6000fd5b505050506040513d601f19601f8201168201806040525081019061048c9190612937565b60405162b3321760e01b81526001600160601b038716600482015260248101869052604481018590529091506001600160a01b0382169062b3321790606401600060405180830381865afa1580156104e8573d6000803e3d6000fd5b505050506040513d6000823e601f3d908101601f19168201604052610510919081019061299a565b95945050505050565b60008054604051631ddb84c560e11b81526001600160601b038416600482015282916001600160a01b031690633bb7098a90602401602060405180830381865afa15801561056b573d6000803e3d6000fd5b505050506040513d601f19601f8201168201806040525081019061058f9190612937565b604051630385592160e01b81526001600160601b03851660048201529091506001600160a01b038216906303855921906024015b602060405180830381865afa1580156105e0573d6000803e3d6000fd5b505050506040513d601f19601f820116820180604052508101906106049190612a60565b9392505050565b60008054604051631ddb84c560e11b81526001600160601b038416600482015282916001600160a01b031690633bb7098a90602401602060405180830381865afa15801561065d573d6000803e3d6000fd5b505050506040513d601f19601f820116820180604052508101906106819190612937565b604051630440ec5360e01b81526001600160601b03851660048201529091506001600160a01b03821690630440ec53906024016105c3565b606060006106c78484612425565b90506000816001600160401b038111156106e3576106e3612954565b60405190808252806020026020018201604052801561073c57816020015b6040805160a0810182526000808252602080830182905292820181905260608201819052608082015282526000199092019101816107015790505b5090506000855b610756846001600160601b038916612a91565b816001600160601b031610156108335760006107728883612aa4565b905061077d82611c57565b84826001600160601b03168151811061079857610798612acb565b6020026020010181905250886001600160a01b031684826001600160601b0316815181106107c8576107c8612acb565b6020026020010151600001516001600160a01b031614801561080d575083816001600160601b03168151811061080057610800612acb565b6020026020010151602001515b15610820578261081c81612ae1565b9350505b508061082b81612afa565b915050610743565b506000816001600160401b0381111561084e5761084e612954565b604051908082528060200260200182016040528015610877578160200160208202803683370190505b50600092509050865b610893856001600160601b038a16612a91565b816001600160601b0316101561096c5760006108af8983612aa4565b9050896001600160a01b031685826001600160601b0316815181106108d6576108d6612acb565b6020026020010151600001516001600160a01b031614801561091b575084816001600160601b03168151811061090e5761090e612acb565b6020026020010151602001515b15610959578183858151811061093357610933612acb565b6001600160601b03909216602092830291909101909101528361095581612ae1565b9450505b508061096481612afa565b915050610880565b50979650505050505050565b606060006109868484612425565b90506000816001600160401b038111156109a2576109a2612954565b6040519080825280602002602001820160405280156109cb578160200160208202803683370190505b5090506000855b6109e5846001600160601b038916612a91565b816001600160601b03161015610aa7576000610a018883612aa4565b9050610a0c82611c57565b6000015184826001600160601b031681518110610a2b57610a2b612acb565b60200260200101906001600160a01b031690816001600160a01b031681525050886001600160a01b031684826001600160601b031681518110610a7057610a70612acb565b60200260200101516001600160a01b031603610a945782610a9081612ae1565b9350505b5080610a9f81612afa565b9150506109d2565b506000816001600160401b03811115610ac257610ac2612954565b604051908082528060200260200182016040528015610aeb578160200160208202803683370190505b50600092509050865b610b07856001600160601b038a16612a91565b816001600160601b0316101561096c576000610b238983612aa4565b9050896001600160a01b031685826001600160601b031681518110610b4a57610b4a612acb565b60200260200101516001600160a01b031603610b995781838581518110610b7357610b73612acb565b6001600160601b039092166020928302919091019091015283610b9581612ae1565b9450505b5080610ba481612afa565b915050610af4565b60606000610bba8484612425565b90506000816001600160401b03811115610bd657610bd6612954565b604051908082528060200260200182016040528015610bff578160200160208202803683370190505b5090506000855b610c19846001600160601b038916612a91565b816001600160601b03161015610cdb576000610c358883612aa4565b9050610c40826122e2565b6000015184826001600160601b031681518110610c5f57610c5f612acb565b60200260200101906001600160a01b031690816001600160a01b031681525050886001600160a01b031684826001600160601b031681518110610ca457610ca4612acb565b60200260200101516001600160a01b031603610cc85782610cc481612ae1565b9350505b5080610cd381612afa565b915050610c06565b506000816001600160401b03811115610cf657610cf6612954565b604051908082528060200260200182016040528015610d1f578160200160208202803683370190505b50600092509050865b610d3b856001600160601b038a16612a91565b816001600160601b0316101561096c576000610d578983612aa4565b9050896001600160a01b031685826001600160601b031681518110610d7e57610d7e612acb565b60200260200101516001600160a01b031603610dcd5781838581518110610da757610da7612acb565b6001600160601b039092166020928302919091019091015283610dc981612ae1565b9450505b5080610dd881612afa565b915050610d28565b60606000610dee8484612425565b9050846000826001600160401b03811115610e0b57610e0b612954565b604051908082528060200260200182016040528015610e34578160200160208202803683370190505b5090506000865b610e4e856001600160601b038a16612a91565b816001600160601b03161015610f0a576000610e6a8983612aa4565b9050610e7f610e78836122e2565b6060015190565b84826001600160601b031681518110610e9a57610e9a612acb565b6001600160c81b0319928316602091820292909201015284519086169085906001600160601b038416908110610ed257610ed2612acb565b60200260200101516001600160c81b03191603610ef75782610ef381612ae1565b9350505b5080610f0281612afa565b915050610e3b565b506000816001600160401b03811115610f2557610f25612954565b604051908082528060200260200182016040528015610f4e578160200160208202803683370190505b50600092509050875b610f6a866001600160601b038b16612a91565b816001600160601b03161015611011576000610f868a83612aa4565b9050856001600160c81b03191685826001600160601b031681518110610fae57610fae612acb565b60200260200101516001600160c81b03191603610ffe5781838581518110610fd857610fd8612acb565b6001600160601b039092166020928302919091019091015283610ffa81612ae1565b9450505b508061100981612afa565b915050610f57565b5098975050505050505050565b6060600061102c8484612425565b90506000816001600160401b0381111561104857611048612954565b604051908082528060200260200182016040528015611071578160200160208202803683370190505b5090506000855b61108b846001600160601b038916612a91565b816001600160601b0316101561114d5760006110a78883612aa4565b90506110b2826122e2565b6040015184826001600160601b0316815181106110d1576110d1612acb565b60200260200101906001600160a01b031690816001600160a01b031681525050886001600160a01b031684826001600160601b03168151811061111657611116612acb565b60200260200101516001600160a01b03160361113a578261113681612ae1565b9350505b508061114581612afa565b915050611078565b506000816001600160401b0381111561116857611168612954565b604051908082528060200260200182016040528015611191578160200160208202803683370190505b50600092509050865b6111ad856001600160601b038a16612a91565b816001600160601b0316101561096c5760006111c98983612aa4565b9050896001600160a01b031685826001600160601b0316815181106111f0576111f0612acb565b60200260200101516001600160a01b03160361123f578183858151811061121957611219612acb565b6001600160601b03909216602092830291909101909101528361123b81612ae1565b9450505b508061124a81612afa565b91505061119a565b60008054604051631ddb84c560e11b81526001600160601b038416600482015282916001600160a01b031690633bb7098a90602401602060405180830381865afa1580156112a4573d6000803e3d6000fd5b505050506040513d601f19601f820116820180604052508101906112c89190612937565b60405163732efc0360e01b81526001600160601b03851660048201529091506001600160a01b0382169063732efc03906024016105c3565b60008054604051631ddb84c560e11b81526001600160601b038516600482015282916001600160a01b031690633bb7098a90602401602060405180830381865afa158015611352573d6000803e3d6000fd5b505050506040513d601f19601f820116820180604052508101906113769190612937565b604051637d7b685360e01b81526001600160601b0386166004820152602481018590529091506001600160a01b03821690637d7b685390604401602060405180830381865afa1580156113cd573d6000803e3d6000fd5b505050506040513d601f19601f820116820180604052508101906113f19190612b20565b9150505b92915050565b61143f6040518060a0016040528060006001600160a01b0316815260200160006001600160a01b031681526020016000815260200160008152602001600081525090565b60008054604051631ddb84c560e11b81526001600160601b03861660048201526001600160a01b0390911690633bb7098a90602401602060405180830381865afa158015611491573d6000803e3d6000fd5b505050506040513d601f19601f820116820180604052508101906114b59190612937565b6040516311e4386360e31b81526001600160601b03861660048201526001600160401b03851660248201529091506001600160a01b03821690638f21c3189060440160a060405180830381865afa158015611514573d6000803e3d6000fd5b505050506040513d601f19601f820116820180604052508101906113f19190612b3d565b606060006115468484612425565b90506000816001600160401b0381111561156257611562612954565b60405190808252806020026020018201604052801561158b578160200160208202803683370190505b5090506000855b6115a5846001600160601b038916612a91565b816001600160601b031610156116425760006115c18883612aa4565b90506115cc8261060b565b84826001600160601b0316815181106115e7576115e7612acb565b60200260200101901515908115158152505083816001600160601b03168151811061161457611614612acb565b60200260200101511561162f578261162b81612ae1565b9350505b508061163a81612afa565b915050611592565b506000816001600160401b0381111561165d5761165d612954565b604051908082528060200260200182016040528015611686578160200160208202803683370190505b50600092509050865b6116a2856001600160601b038a16612a91565b816001600160601b031610156117345760006116be8983612aa4565b905084816001600160601b0316815181106116db576116db612acb565b60200260200101511561172157818385815181106116fb576116fb612acb565b6001600160601b03909216602092830291909101909101528361171d81612ae1565b9450505b508061172c81612afa565b91505061168f565b509695505050505050565b60008054604051631ddb84c560e11b81526001600160601b038416600482015282916001600160a01b031690633bb7098a90602401602060405180830381865afa158015611791573d6000803e3d6000fd5b505050506040513d601f19601f820116820180604052508101906117b59190612937565b60405163ace54da560e01b81526001600160601b03851660048201529091506001600160a01b0382169063ace54da5906024015b602060405180830381865afa158015611806573d6000803e3d6000fd5b505050506040513d601f19601f820116820180604052508101906106049190612bbe565b606060006118388484612425565b90506000816001600160401b0381111561185457611854612954565b60405190808252806020026020018201604052801561187d578160200160208202803683370190505b5090506000855b611897846001600160601b038916612a91565b816001600160601b031610156119345760006118b38883612aa4565b90506118be82611252565b84826001600160601b0316815181106118d9576118d9612acb565b60200260200101901515908115158152505083816001600160601b03168151811061190657611906612acb565b602002602001015115611921578261191d81612ae1565b9350505b508061192c81612afa565b915050611884565b506000816001600160401b0381111561194f5761194f612954565b604051908082528060200260200182016040528015611978578160200160208202803683370190505b50600092509050865b611994856001600160601b038a16612a91565b816001600160601b031610156117345760006119b08983612aa4565b905084816001600160601b0316815181106119cd576119cd612acb565b602002602001015115611a1357818385815181106119ed576119ed612acb565b6001600160601b039092166020928302919091019091015283611a0f81612ae1565b9450505b5080611a1e81612afa565b915050611981565b60606000611a348484612425565b9050846000826001600160401b03811115611a5157611a51612954565b604051908082528060200260200182016040528015611a7a578160200160208202803683370190505b5090506000865b611a94856001600160601b038a16612a91565b816001600160601b03161015611b50576000611ab08983612aa4565b9050611ac5611abe836122e2565b60c0015190565b84826001600160601b031681518110611ae057611ae0612acb565b6001600160c81b0319928316602091820292909201015284519086169085906001600160601b038416908110611b1857611b18612acb565b60200260200101516001600160c81b03191603611b3d5782611b3981612ae1565b9350505b5080611b4881612afa565b915050611a81565b506000816001600160401b03811115611b6b57611b6b612954565b604051908082528060200260200182016040528015611b94578160200160208202803683370190505b50600092509050875b611bb0866001600160601b038b16612a91565b816001600160601b03161015611011576000611bcc8a83612aa4565b9050856001600160c81b03191685826001600160601b031681518110611bf457611bf4612acb565b60200260200101516001600160c81b03191603611c445781838581518110611c1e57611c1e612acb565b6001600160601b039092166020928302919091019091015283611c4081612ae1565b9450505b5080611c4f81612afa565b915050611b9d565b6040805160a08101825260008082526020820181905291810182905260608101829052608081019190915260008054604051630ea072e760e41b81526001600160601b038516600482015282918291829182916001600160a01b039091169063ea072e709060240160a060405180830381865afa158015611cdc573d6000803e3d6000fd5b505050506040513d601f19601f82011682018060405250810190611d009190612bed565b6040805160a0810182526001600160a01b039096168652931515602086015265ffffffffffff908116938501939093529082166060840152166080820152979650505050505050565b600080546040805163c4ce88fd60e01b815290516001926001600160a01b03169163c4ce88fd9160048083019260209291908290030181865afa158015611d94573d6000803e3d6000fd5b505050506040513d601f19601f82011682018060405250810190611db89190612c54565b611dc29190612aa4565b905090565b60008054604051631ddb84c560e11b81526001600160601b038416600482015282916001600160a01b031690633bb7098a90602401602060405180830381865afa158015611e19573d6000803e3d6000fd5b505050506040513d601f19601f82011682018060405250810190611e3d9190612937565b60405163d899a33760e01b81526001600160601b03851660048201529091506001600160a01b0382169063d899a337906024016117e9565b60606000611e838484612425565b90506000816001600160401b03811115611e9f57611e9f612954565b604051908082528060200260200182016040528015611ec8578160200160208202803683370190505b5090506000855b611ee2846001600160601b038916612a91565b816001600160601b03161015611fa4576000611efe8883612aa4565b9050611f09826122e2565b6020015184826001600160601b031681518110611f2857611f28612acb565b60200260200101906001600160a01b031690816001600160a01b031681525050886001600160a01b031684826001600160601b031681518110611f6d57611f6d612acb565b60200260200101516001600160a01b031603611f915782611f8d81612ae1565b9350505b5080611f9c81612afa565b915050611ecf565b506000816001600160401b03811115611fbf57611fbf612954565b604051908082528060200260200182016040528015611fe8578160200160208202803683370190505b50600092509050865b612004856001600160601b038a16612a91565b816001600160601b0316101561096c5760006120208983612aa4565b9050896001600160a01b031685826001600160601b03168151811061204757612047612acb565b60200260200101516001600160a01b031603612096578183858151811061207057612070612acb565b6001600160601b03909216602092830291909101909101528361209281612ae1565b9450505b50806120a181612afa565b915050611ff1565b606060006120b78484612425565b9050846000826001600160401b038111156120d4576120d4612954565b6040519080825280602002602001820160405280156120fd578160200160208202803683370190505b5090506000865b612117856001600160601b038a16612a91565b816001600160601b031610156121db5760006121338983612aa4565b905061215061214d612144846122e2565b606001516124b3565b90565b84826001600160601b03168151811061216b5761216b612acb565b6001600160d81b0319928316602091820292909201015284519086169085906001600160601b0384169081106121a3576121a3612acb565b60200260200101516001600160d81b031916036121c857826121c481612ae1565b9350505b50806121d381612afa565b915050612104565b506000816001600160401b038111156121f6576121f6612954565b60405190808252806020026020018201604052801561221f578160200160208202803683370190505b50600092509050875b61223b866001600160601b038b16612a91565b816001600160601b031610156110115760006122578a83612aa4565b9050856001600160d81b03191685826001600160601b03168151811061227f5761227f612acb565b60200260200101516001600160d81b031916036122cf57818385815181106122a9576122a9612acb565b6001600160601b0390921660209283029190910190910152836122cb81612ae1565b9450505b50806122da81612afa565b915050612228565b604080516101208101825260008082526020820181905281830181905260608083018290526080830182905260a0830182905260c0830182905260e0830182905261010083015280549251634f17001d60e11b81526001600160601b038516600482015291929091829182918291829182918291829182916001600160a01b0390911690639e2e003a90602401600060405180830381865afa15801561238c573d6000803e3d6000fd5b505050506040513d6000823e601f3d908101601f191682016040526123b49190810190612c71565b60408051610120810182526001600160a01b039a8b168152988a1660208a0152968916968801969096526001600160c81b031994851660608801526080870193909352951660a0850152931660c083015291151560e08201526101008101919091529b9a5050505050505050505050565b600080612430611d49565b9050806001600160601b0316846001600160601b0316111561246557604051635435b28960e11b815260040160405180910390fd5b6001600160601b0381166124798486612d96565b6001600160601b03161161248d57826124a2565b6124978482612aa4565b6124a2906001612d96565b6001600160601b0316949350505050565b6000806124bf836124c7565b509392505050565b60008082600360fc1b6001600160f81b031982841a60f81b1610806124ff5750603960f81b8160001a60f81b6001600160f81b031916115b8061251d5750600360fc1b8160011a60f81b6001600160f81b031916105b8061253b5750603960f81b8160011a60f81b6001600160f81b031916115b1561256857604051628b684360e31b81526001600160c81b03198516600482015260240160405180910390fd5b6000612577603083831a612db6565b61258290600a612dcf565b90506125936030600184901a612db6565b61259d9082612deb565b60109290921b6001600160d81b031916959194509092505050565b6001600160601b03811681146125cd57600080fd5b50565b6000806000606084860312156125e557600080fd5b83356125f0816125b8565b95602085013595506040909401359392505050565b6020808252825182820181905260009190848201906040850190845b818110156126465783516001600160401b031683529284019291840191600101612621565b50909695505050505050565b60006020828403121561266457600080fd5b8135610604816125b8565b6001600160a01b03811681146125cd57600080fd5b60008060006060848603121561269957600080fd5b83356126a48161266f565b925060208401356126b4816125b8565b915060408401356126c4816125b8565b809150509250925092565b6020808252825182820181905260009190848201906040850190845b818110156126465783516001600160601b0316835292840192918401916001016126eb565b6001600160c81b0319811681146125cd57600080fd5b60008060006060848603121561273b57600080fd5b83356126a481612710565b6000806040838503121561275957600080fd5b8235612764816125b8565b946020939093013593505050565b6001600160401b03811681146125cd57600080fd5b6000806040838503121561279a57600080fd5b82356127a5816125b8565b915060208301356127b581612772565b809150509250929050565b600080604083850312156127d357600080fd5b82356127de816125b8565b915060208301356127b5816125b8565b60008060006060848603121561280357600080fd5b83356001600160d81b0319811681146126a457600080fd5b60005b8381101561283657818101518382015260200161281e565b50506000910152565b6000815180845261285781602086016020860161281b565b601f01601f19169290920160200192915050565b602081526128856020820183516001600160a01b03169052565b600060208301516128a160408401826001600160a01b03169052565b5060408301516001600160a01b03811660608401525060608301516001600160c81b03198116608084015250608083015160a083015260a08301516128f160c08401826001600160a01b03169052565b5060c08301516001600160c81b0319811660e08401525060e083015161010061291d8185018315159052565b8401516101208481015290506113f161014084018261283f565b60006020828403121561294957600080fd5b81516106048161266f565b634e487b7160e01b600052604160045260246000fd5b604051601f8201601f191681016001600160401b038111828210171561299257612992612954565b604052919050565b600060208083850312156129ad57600080fd5b82516001600160401b03808211156129c457600080fd5b818501915085601f8301126129d857600080fd5b8151818111156129ea576129ea612954565b8060051b91506129fb84830161296a565b8181529183018401918481019088841115612a1557600080fd5b938501935b83851015612a3f5784519250612a2f83612772565b8282529385019390850190612a1a565b98975050505050505050565b80518015158114612a5b57600080fd5b919050565b600060208284031215612a7257600080fd5b61060482612a4b565b634e487b7160e01b600052601160045260246000fd5b808201808211156113f5576113f5612a7b565b6001600160601b03828116828216039080821115612ac457612ac4612a7b565b5092915050565b634e487b7160e01b600052603260045260246000fd5b600060018201612af357612af3612a7b565b5060010190565b60006001600160601b03808316818103612b1657612b16612a7b565b6001019392505050565b600060208284031215612b3257600080fd5b815161060481612772565b600060a08284031215612b4f57600080fd5b60405160a081018181106001600160401b0382111715612b7157612b71612954565b6040528251612b7f8161266f565b81526020830151612b8f8161266f565b806020830152506040830151604082015260608301516060820152608083015160808201528091505092915050565b600060208284031215612bd057600080fd5b5051919050565b805165ffffffffffff81168114612a5b57600080fd5b600080600080600060a08688031215612c0557600080fd5b8551612c108161266f565b9450612c1e60208701612a4b565b9350612c2c60408701612bd7565b9250612c3a60608701612bd7565b9150612c4860808701612bd7565b90509295509295909350565b600060208284031215612c6657600080fd5b8151610604816125b8565b60008060008060008060008060006101208a8c031215612c9057600080fd5b8951612c9b8161266f565b60208b0151909950612cac8161266f565b60408b0151909850612cbd8161266f565b60608b0151909750612cce81612710565b60808b015160a08c01519197509550612ce68161266f565b60c08b0151909450612cf781612710565b9250612d0560e08b01612a4b565b91506101008a01516001600160401b0380821115612d2257600080fd5b818c0191508c601f830112612d3657600080fd5b815181811115612d4857612d48612954565b612d5b601f8201601f191660200161296a565b91508082528d6020828501011115612d7257600080fd5b612d8381602084016020860161281b565b5080925050509295985092959850929598565b6001600160601b03818116838216019080821115612ac457612ac4612a7b565b60ff82811682821603908111156113f5576113f5612a7b565b60ff8181168382160290811690818114612ac457612ac4612a7b565b60ff81811683821601908111156113f5576113f5612a7b56fea2646970667358221220d437225e59705656a071714e42ffad0b782c82bb8bcf462c45a59ba0816be52664736f6c63430008130033",
    "linkReferences": {}
  },
  "methodIdentifiers": {
    "auctionHouse()": "ed9152c8",
    "getAuctionsByBaseToken(address,uint96,uint96)": "df3f5573",
    "getAuctionsByCurator(address,uint96,uint96)": "1dc916b5",
    "getAuctionsByDerivative(bytes7,uint96,uint96)": "c0bfb699",
    "getAuctionsByFormat(bytes5,uint96,uint96)": "dfba3cb5",
    "getAuctionsByModule(bytes7,uint96,uint96)": "6c57d285",
    "getAuctionsByQuoteToken(address,uint96,uint96)": "6fe4c402",
    "getAuctionsByRequestedCurator(address,uint96,uint96)": "2bf6e028",
    "getAuctionsBySeller(address,uint96,uint96)": "3251dcc8",
    "getBidClaim(uint96,uint64)": "8f21c318",
    "getBidIdAtIndex(uint96,uint256)": "7d7b6853",
    "getBidIds(uint96,uint256,uint256)": "00b33217",
    "getFeeData(uint96)": "cb0a2ead",
    "getLiveAuctions(uint96,uint96)": "b66f4963",
    "getMaxLotId()": "d831a755",
    "getNumBids(uint96)": "d899a337",
    "getRouting(uint96)": "f39866b0",
    "getUpcomingAuctions(uint96,uint96)": "954b558e",
    "hasEnded(uint96)": "03855921",
    "isLive(uint96)": "732efc03",
    "isUpcoming(uint96)": "0440ec53",
    "remainingCapacity(uint96)": "ace54da5"
  },
  "id": 116
}