{
  "abi": [
    {
      "type": "constructor",
      "inputs": [
        {
          "name": "auctionHouse_",
          "type": "address",
          "internalType": "address"
        }
      ],
      "stateMutability": "nonpayable"
    },
    {
      "type": "function",
      "name": "INIT",
      "inputs": [],
      "outputs": [],
      "stateMutability": "nonpayable"
    },
    {
      "type": "function",
      "name": "PARENT",
      "inputs": [],
      "outputs": [
        {
          "name": "",
          "type": "address",
          "internalType": "address"
        }
      ],
      "stateMutability": "view"
    },
    {
      "type": "function",
      "name": "TYPE",
      "inputs": [],
      "outputs": [
        {
          "name": "",
          "type": "uint8",
          "internalType": "enum Module.Type"
        }
      ],
      "stateMutability": "pure"
    },
    {
      "type": "function",
      "name": "VEECODE",
      "inputs": [],
      "outputs": [
        {
          "name": "",
          "type": "bytes7",
          "internalType": "Veecode"
        }
      ],
      "stateMutability": "pure"
    },
    {
      "type": "function",
      "name": "abort",
      "inputs": [
        {
          "name": "lotId_",
          "type": "uint96",
          "internalType": "uint96"
        }
      ],
      "outputs": [],
      "stateMutability": "nonpayable"
    },
    {
      "type": "function",
      "name": "auction",
      "inputs": [
        {
          "name": "lotId_",
          "type": "uint96",
          "internalType": "uint96"
        },
        {
          "name": "params_",
          "type": "tuple",
          "internalType": "struct IAuction.AuctionParams",
          "components": [
            {
              "name": "start",
              "type": "uint48",
              "internalType": "uint48"
            },
            {
              "name": "duration",
              "type": "uint48",
              "internalType": "uint48"
            },
            {
              "name": "capacityInQuote",
              "type": "bool",
              "internalType": "bool"
            },
            {
              "name": "capacity",
              "type": "uint256",
              "internalType": "uint256"
            },
            {
              "name": "implParams",
              "type": "bytes",
              "internalType": "bytes"
            }
          ]
        },
        {
          "name": "quoteTokenDecimals_",
          "type": "uint8",
          "internalType": "uint8"
        },
        {
          "name": "baseTokenDecimals_",
          "type": "uint8",
          "internalType": "uint8"
        }
      ],
      "outputs": [],
      "stateMutability": "nonpayable"
    },
    {
      "type": "function",
      "name": "auctionType",
      "inputs": [],
      "outputs": [
        {
          "name": "",
          "type": "uint8",
          "internalType": "enum IAuction.AuctionType"
        }
      ],
      "stateMutability": "pure"
    },
    {
      "type": "function",
      "name": "bid",
      "inputs": [
        {
          "name": "lotId_",
          "type": "uint96",
          "internalType": "uint96"
        },
        {
          "name": "bidder_",
          "type": "address",
          "internalType": "address"
        },
        {
          "name": "referrer_",
          "type": "address",
          "internalType": "address"
        },
        {
          "name": "amount_",
          "type": "uint256",
          "internalType": "uint256"
        },
        {
          "name": "auctionData_",
          "type": "bytes",
          "internalType": "bytes"
        }
      ],
      "outputs": [
        {
          "name": "bidId",
          "type": "uint64",
          "internalType": "uint64"
        }
      ],
      "stateMutability": "nonpayable"
    },
    {
      "type": "function",
      "name": "cancelAuction",
      "inputs": [
        {
          "name": "lotId_",
          "type": "uint96",
          "internalType": "uint96"
        }
      ],
      "outputs": [],
      "stateMutability": "nonpayable"
    },
    {
      "type": "function",
      "name": "capacityInQuote",
      "inputs": [
        {
          "name": "lotId_",
          "type": "uint96",
          "internalType": "uint96"
        }
      ],
      "outputs": [
        {
          "name": "",
          "type": "bool",
          "internalType": "bool"
        }
      ],
      "stateMutability": "view"
    },
    {
      "type": "function",
      "name": "claimBids",
      "inputs": [
        {
          "name": "lotId_",
          "type": "uint96",
          "internalType": "uint96"
        },
        {
          "name": "bidIds_",
          "type": "uint64[]",
          "internalType": "uint64[]"
        }
      ],
      "outputs": [
        {
          "name": "bidClaims",
          "type": "tuple[]",
          "internalType": "struct IBatchAuction.BidClaim[]",
          "components": [
            {
              "name": "bidder",
              "type": "address",
              "internalType": "address"
            },
            {
              "name": "referrer",
              "type": "address",
              "internalType": "address"
            },
            {
              "name": "paid",
              "type": "uint256",
              "internalType": "uint256"
            },
            {
              "name": "payout",
              "type": "uint256",
              "internalType": "uint256"
            },
            {
              "name": "refund",
              "type": "uint256",
              "internalType": "uint256"
            }
          ]
        },
        {
          "name": "auctionOutput",
          "type": "bytes",
          "internalType": "bytes"
        }
      ],
      "stateMutability": "nonpayable"
    },
    {
      "type": "function",
      "name": "dedicatedSettlePeriod",
      "inputs": [],
      "outputs": [
        {
          "name": "",
          "type": "uint48",
          "internalType": "uint48"
        }
      ],
      "stateMutability": "view"
    },
    {
      "type": "function",
      "name": "getAuctionData",
      "inputs": [
        {
          "name": "lotId_",
          "type": "uint96",
          "internalType": "uint96"
        }
      ],
      "outputs": [
        {
          "name": "auctionData_",
          "type": "tuple",
          "internalType": "struct IFixedPriceBatch.AuctionData",
          "components": [
            {
              "name": "price",
              "type": "uint256",
              "internalType": "uint256"
            },
            {
              "name": "status",
              "type": "uint8",
              "internalType": "enum IFixedPriceBatch.LotStatus"
            },
            {
              "name": "nextBidId",
              "type": "uint64",
              "internalType": "uint64"
            },
            {
              "name": "settlementCleared",
              "type": "bool",
              "internalType": "bool"
            },
            {
              "name": "totalBidAmount",
              "type": "uint256",
              "internalType": "uint256"
            },
            {
              "name": "minFilled",
              "type": "uint256",
              "internalType": "uint256"
            }
          ]
        }
      ],
      "stateMutability": "view"
    },
    {
      "type": "function",
      "name": "getBid",
      "inputs": [
        {
          "name": "lotId_",
          "type": "uint96",
          "internalType": "uint96"
        },
        {
          "name": "bidId_",
          "type": "uint64",
          "internalType": "uint64"
        }
      ],
      "outputs": [
        {
          "name": "bid",
          "type": "tuple",
          "internalType": "struct IFixedPriceBatch.Bid",
          "components": [
            {
              "name": "bidder",
              "type": "address",
              "internalType": "address"
            },
            {
              "name": "amount",
              "type": "uint96",
              "internalType": "uint96"
            },
            {
              "name": "referrer",
              "type": "address",
              "internalType": "address"
            },
            {
              "name": "status",
              "type": "uint8",
              "internalType": "enum IFixedPriceBatch.BidStatus"
            }
          ]
        }
      ],
      "stateMutability": "view"
    },
    {
      "type": "function",
      "name": "getBidClaim",
      "inputs": [
        {
          "name": "lotId_",
          "type": "uint96",
          "internalType": "uint96"
        },
        {
          "name": "bidId_",
          "type": "uint64",
          "internalType": "uint64"
        }
      ],
      "outputs": [
        {
          "name": "bidClaim",
          "type": "tuple",
          "internalType": "struct IBatchAuction.BidClaim",
          "components": [
            {
              "name": "bidder",
              "type": "address",
              "internalType": "address"
            },
            {
              "name": "referrer",
              "type": "address",
              "internalType": "address"
            },
            {
              "name": "paid",
              "type": "uint256",
              "internalType": "uint256"
            },
            {
              "name": "payout",
              "type": "uint256",
              "internalType": "uint256"
            },
            {
              "name": "refund",
              "type": "uint256",
              "internalType": "uint256"
            }
          ]
        }
      ],
      "stateMutability": "view"
    },
    {
      "type": "function",
      "name": "getBidIdAtIndex",
      "inputs": [
        {
          "name": "",
          "type": "uint96",
          "internalType": "uint96"
        },
        {
          "name": "",
          "type": "uint256",
          "internalType": "uint256"
        }
      ],
      "outputs": [
        {
          "name": "",
          "type": "uint64",
          "internalType": "uint64"
        }
      ],
      "stateMutability": "view"
    },
    {
      "type": "function",
      "name": "getBidIds",
      "inputs": [
        {
          "name": "",
          "type": "uint96",
          "internalType": "uint96"
        },
        {
          "name": "",
          "type": "uint256",
          "internalType": "uint256"
        },
        {
          "name": "",
          "type": "uint256",
          "internalType": "uint256"
        }
      ],
      "outputs": [
        {
          "name": "",
          "type": "uint64[]",
          "internalType": "uint64[]"
        }
      ],
      "stateMutability": "view"
    },
    {
      "type": "function",
      "name": "getLot",
      "inputs": [
        {
          "name": "lotId_",
          "type": "uint96",
          "internalType": "uint96"
        }
      ],
      "outputs": [
        {
          "name": "",
          "type": "tuple",
          "internalType": "struct IAuction.Lot",
          "components": [
            {
              "name": "start",
              "type": "uint48",
              "internalType": "uint48"
            },
            {
              "name": "conclusion",
              "type": "uint48",
              "internalType": "uint48"
            },
            {
              "name": "quoteTokenDecimals",
              "type": "uint8",
              "internalType": "uint8"
            },
            {
              "name": "baseTokenDecimals",
              "type": "uint8",
              "internalType": "uint8"
            },
            {
              "name": "capacityInQuote",
              "type": "bool",
              "internalType": "bool"
            },
            {
              "name": "capacity",
              "type": "uint256",
              "internalType": "uint256"
            },
            {
              "name": "sold",
              "type": "uint256",
              "internalType": "uint256"
            },
            {
              "name": "purchased",
              "type": "uint256",
              "internalType": "uint256"
            }
          ]
        }
      ],
      "stateMutability": "view"
    },
    {
      "type": "function",
      "name": "getNumBids",
      "inputs": [
        {
          "name": "",
          "type": "uint96",
          "internalType": "uint96"
        }
      ],
      "outputs": [
        {
          "name": "",
          "type": "uint256",
          "internalType": "uint256"
        }
      ],
      "stateMutability": "view"
    },
    {
      "type": "function",
      "name": "getPartialFill",
      "inputs": [
        {
          "name": "lotId_",
          "type": "uint96",
          "internalType": "uint96"
        }
      ],
      "outputs": [
        {
          "name": "hasPartialFill",
          "type": "bool",
          "internalType": "bool"
        },
        {
          "name": "partialFill",
          "type": "tuple",
          "internalType": "struct IFixedPriceBatch.PartialFill",
          "components": [
            {
              "name": "bidId",
              "type": "uint64",
              "internalType": "uint64"
            },
            {
              "name": "refund",
              "type": "uint96",
              "internalType": "uint96"
            },
            {
              "name": "payout",
              "type": "uint256",
              "internalType": "uint256"
            }
          ]
        }
      ],
      "stateMutability": "view"
    },
    {
      "type": "function",
      "name": "hasEnded",
      "inputs": [
        {
          "name": "lotId_",
          "type": "uint96",
          "internalType": "uint96"
        }
      ],
      "outputs": [
        {
          "name": "",
          "type": "bool",
          "internalType": "bool"
        }
      ],
      "stateMutability": "view"
    },
    {
      "type": "function",
      "name": "isLive",
      "inputs": [
        {
          "name": "lotId_",
          "type": "uint96",
          "internalType": "uint96"
        }
      ],
      "outputs": [
        {
          "name": "",
          "type": "bool",
          "internalType": "bool"
        }
      ],
      "stateMutability": "view"
    },
    {
      "type": "function",
      "name": "isUpcoming",
      "inputs": [
        {
          "name": "lotId_",
          "type": "uint96",
          "internalType": "uint96"
        }
      ],
      "outputs": [
        {
          "name": "",
          "type": "bool",
          "internalType": "bool"
        }
      ],
      "stateMutability": "view"
    },
    {
      "type": "function",
      "name": "lotAuctionOutput",
      "inputs": [
        {
          "name": "",
          "type": "uint96",
          "internalType": "uint96"
        }
      ],
      "outputs": [
        {
          "name": "",
          "type": "bytes",
          "internalType": "bytes"
        }
      ],
      "stateMutability": "view"
    },
    {
      "type": "function",
      "name": "lotData",
      "inputs": [
        {
          "name": "id",
          "type": "uint96",
          "internalType": "uint96"
        }
      ],
      "outputs": [
        {
          "name": "start",
          "type": "uint48",
          "internalType": "uint48"
        },
        {
          "name": "conclusion",
          "type": "uint48",
          "internalType": "uint48"
        },
        {
          "name": "quoteTokenDecimals",
          "type": "uint8",
          "internalType": "uint8"
        },
        {
          "name": "baseTokenDecimals",
          "type": "uint8",
          "internalType": "uint8"
        },
        {
          "name": "capacityInQuote",
          "type": "bool",
          "internalType": "bool"
        },
        {
          "name": "capacity",
          "type": "uint256",
          "internalType": "uint256"
        },
        {
          "name": "sold",
          "type": "uint256",
          "internalType": "uint256"
        },
        {
          "name": "purchased",
          "type": "uint256",
          "internalType": "uint256"
        }
      ],
      "stateMutability": "view"
    },
    {
      "type": "function",
      "name": "minAuctionDuration",
      "inputs": [],
      "outputs": [
        {
          "name": "",
          "type": "uint48",
          "internalType": "uint48"
        }
      ],
      "stateMutability": "view"
    },
    {
      "type": "function",
      "name": "refundBid",
      "inputs": [
        {
          "name": "lotId_",
          "type": "uint96",
          "internalType": "uint96"
        },
        {
          "name": "bidId_",
          "type": "uint64",
          "internalType": "uint64"
        },
        {
          "name": "index_",
          "type": "uint256",
          "internalType": "uint256"
        },
        {
          "name": "caller_",
          "type": "address",
          "internalType": "address"
        }
      ],
      "outputs": [
        {
          "name": "refund",
          "type": "uint256",
          "internalType": "uint256"
        }
      ],
      "stateMutability": "nonpayable"
    },
    {
      "type": "function",
      "name": "remainingCapacity",
      "inputs": [
        {
          "name": "lotId_",
          "type": "uint96",
          "internalType": "uint96"
        }
      ],
      "outputs": [
        {
          "name": "",
          "type": "uint256",
          "internalType": "uint256"
        }
      ],
      "stateMutability": "view"
    },
    {
      "type": "function",
      "name": "setDedicatedSettlePeriod",
      "inputs": [
        {
          "name": "period_",
          "type": "uint48",
          "internalType": "uint48"
        }
      ],
      "outputs": [],
      "stateMutability": "nonpayable"
    },
    {
      "type": "function",
      "name": "setMinAuctionDuration",
      "inputs": [
        {
          "name": "duration_",
          "type": "uint48",
          "internalType": "uint48"
        }
      ],
      "outputs": [],
      "stateMutability": "nonpayable"
    },
    {
      "type": "function",
      "name": "settle",
      "inputs": [
        {
          "name": "lotId_",
          "type": "uint96",
          "internalType": "uint96"
        },
        {
          "name": "num_",
          "type": "uint256",
          "internalType": "uint256"
        }
      ],
      "outputs": [
        {
          "name": "totalIn",
          "type": "uint256",
          "internalType": "uint256"
        },
        {
          "name": "totalOut",
          "type": "uint256",
          "internalType": "uint256"
        },
        {
          "name": "capacity",
          "type": "uint256",
          "internalType": "uint256"
        },
        {
          "name": "finished",
          "type": "bool",
          "internalType": "bool"
        },
        {
          "name": "auctionOutput",
          "type": "bytes",
          "internalType": "bytes"
        }
      ],
      "stateMutability": "nonpayable"
    },
    {
      "type": "error",
      "name": "Auction_AmountLessThanMinimum",
      "inputs": []
    },
    {
      "type": "error",
      "name": "Auction_DedicatedSettlePeriod",
      "inputs": [
        {
          "name": "lotId",
          "type": "uint96",
          "internalType": "uint96"
        }
      ]
    },
    {
      "type": "error",
      "name": "Auction_InsufficientCapacity",
      "inputs": []
    },
    {
      "type": "error",
      "name": "Auction_InvalidBidId",
      "inputs": [
        {
          "name": "lotId",
          "type": "uint96",
          "internalType": "uint96"
        },
        {
          "name": "bidId",
          "type": "uint96",
          "internalType": "uint96"
        }
      ]
    },
    {
      "type": "error",
      "name": "Auction_InvalidDuration",
      "inputs": [
        {
          "name": "duration_",
          "type": "uint48",
          "internalType": "uint48"
        },
        {
          "name": "minimum_",
          "type": "uint48",
          "internalType": "uint48"
        }
      ]
    },
    {
      "type": "error",
      "name": "Auction_InvalidLotId",
      "inputs": [
        {
          "name": "lotId",
          "type": "uint96",
          "internalType": "uint96"
        }
      ]
    },
    {
      "type": "error",
      "name": "Auction_InvalidParams",
      "inputs": []
    },
    {
      "type": "error",
      "name": "Auction_InvalidStart",
      "inputs": [
        {
          "name": "start_",
          "type": "uint48",
          "internalType": "uint48"
        },
        {
          "name": "minimum_",
          "type": "uint48",
          "internalType": "uint48"
        }
      ]
    },
    {
      "type": "error",
      "name": "Auction_LotActive",
      "inputs": [
        {
          "name": "lotId",
          "type": "uint96",
          "internalType": "uint96"
        }
      ]
    },
    {
      "type": "error",
      "name": "Auction_LotNotActive",
      "inputs": [
        {
          "name": "lotId",
          "type": "uint96",
          "internalType": "uint96"
        }
      ]
    },
    {
      "type": "error",
      "name": "Auction_LotNotConcluded",
      "inputs": [
        {
          "name": "lotId",
          "type": "uint96",
          "internalType": "uint96"
        }
      ]
    },
    {
      "type": "error",
      "name": "Auction_NotAuthorized",
      "inputs": []
    },
    {
      "type": "error",
      "name": "Auction_NotBidder",
      "inputs": []
    },
    {
      "type": "error",
      "name": "Auction_NotImplemented",
      "inputs": []
    },
    {
      "type": "error",
      "name": "Auction_OnlyLotOwner",
      "inputs": []
    },
    {
      "type": "error",
      "name": "Auction_WrongState",
      "inputs": [
        {
          "name": "lotId",
          "type": "uint96",
          "internalType": "uint96"
        }
      ]
    },
    {
      "type": "error",
      "name": "Bid_WrongState",
      "inputs": [
        {
          "name": "lotId",
          "type": "uint96",
          "internalType": "uint96"
        },
        {
          "name": "bidId",
          "type": "uint64",
          "internalType": "uint64"
        }
      ]
    },
    {
      "type": "error",
      "name": "Module_InvalidParent",
      "inputs": [
        {
          "name": "parent_",
          "type": "address",
          "internalType": "address"
        }
      ]
    },
    {
      "type": "error",
      "name": "Module_OnlyInternal",
      "inputs": []
    },
    {
      "type": "error",
      "name": "Module_OnlyParent",
      "inputs": [
        {
          "name": "caller_",
          "type": "address",
          "internalType": "address"
        }
      ]
    },
    {
      "type": "error",
      "name": "NotPermitted",
      "inputs": [
        {
          "name": "caller",
          "type": "address",
          "internalType": "address"
        }
      ]
    }
  ],
  "bytecode": {
    "object": "0x60a06040523480156200001157600080fd5b50604051620033fd380380620033fd8339810160408190526200003491620000a5565b80806001600160a01b0381166200006d57604051631462ddc360e21b81526001600160a01b038216600482015260240160405180910390fd5b6001600160a01b03166080525050600080546201518065ffffffffffff199182168117909255600280549091169091179055620000d7565b600060208284031215620000b857600080fd5b81516001600160a01b0381168114620000d057600080fd5b9392505050565b6080516132936200016a6000396000818161029201528181610794015281816107db01528181610947015281816109b2015281816109f401528181610acd01528181610c8b01528181610ccd01528181610dc701528181610e0901528181611089015281816110cb015281816111cf0152818161121101528181611594015281816115d6015261171a01526132936000f3fe608060405234801561001057600080fd5b50600436106101e45760003560e01c80637d9234bc1161010f578063b04046df116100a2578063cd280bdb11610071578063cd280bdb1461064d578063d61735ca14610671578063d899a33714610688578063ea6439141461069c57600080fd5b8063b04046df146105f8578063bae96bdd1461060b578063bb24fe8a1461061e578063cadb33831461062d57600080fd5b8063a16f7ef7116100de578063a16f7ef71461054a578063a85cebb614610599578063a8bf44e4146105ab578063ace54da5146105cb57600080fd5b80637d9234bc146104e757806387698a31146105085780638f21c3181461051b578063994595e11461053b57600080fd5b80631ed75f1f11610187578063541348761161015657806354134876146103c25780635806afc3146103eb578063732efc03146104a65780637d7b6853146104b957600080fd5b80631ed75f1f146102e157806329da5abd146102f457806339792cdc146103075780634e1f42581461033a57600080fd5b80630a35511b116101c35780630a35511b1461024c5780630cd0bcf21461026d578063122b83f91461028d57806312d6ef2d146102cc57600080fd5b8062b33217146101e957806303855921146102165780630440ec5314610239575b600080fd5b6102006101f736600461283d565b60609392505050565b60405161020d9190612870565b60405180910390f35b6102296102243660046128bd565b6106a4565b604051901515815260200161020d565b6102296102473660046128bd565b6106ff565b61025f61025a3660046128d8565b610786565b60405161020d9291906129de565b61028061027b3660046128bd565b6108a2565b60405161020d9190612a35565b6102b47f000000000000000000000000000000000000000000000000000000000000000081565b6040516001600160a01b03909116815260200161020d565b6102df6102da366004612a5e565b61093c565b005b6102df6102ef3660046128bd565b6109a7565b6102df610302366004612a5e565b610ac2565b6102296103153660046128bd565b6001600160601b0316600090815260016020526040902054600160701b900460ff1690565b61034d6103483660046128bd565b610b59565b60405161020d919060006101008201905065ffffffffffff8084511683528060208501511660208401525060ff604084015116604083015260ff606084015116606083015260808301511515608083015260a083015160a083015260c083015160c083015260e083015160e083015292915050565b6000546103d49065ffffffffffff1681565b60405165ffffffffffff909116815260200161020d565b6104596103f93660046128bd565b6001602081905260009182526040909120805491810154600282015460039092015465ffffffffffff80851694600160301b81049091169360ff600160601b8304811694600160681b8404821694600160701b9094049091169290919088565b6040805165ffffffffffff998a16815298909716602089015260ff958616968801969096529390921660608601521515608085015260a084015260c083015260e08201526101000161020d565b6102296104b43660046128bd565b610bf6565b6104cf6104c7366004612a79565b600092915050565b6040516001600160401b03909116815260200161020d565b6104fa6104f5366004612ad1565b610c7e565b60405190815260200161020d565b6104cf610516366004612b1e565b610dba565b61052e610529366004612bca565b610ee6565b60405161020d9190612bfd565b600160405161020d9190612c31565b61055d6105583660046128bd565b610f1b565b60408051921515835281516001600160401b03166020808501919091528201516001600160601b0316838201520151606082015260800161020d565b6002546103d49065ffffffffffff1681565b6105be6105b9366004612bca565b610fa2565b60405161020d9190612c44565b6104fa6105d93660046128bd565b6001600160601b03166000908152600160208190526040909120015490565b6102df6106063660046128bd565b61107e565b6102df610619366004612d20565b6111c4565b600060405161020d9190612e46565b61064061063b3660046128bd565b6114a8565b60405161020d9190612e5a565b61066061065b366004612a79565b611582565b60405161020d959493929190612eb1565b6040516530314650424160d01b815260200161020d565b6104fa6106963660046128bd565b50600090565b6102df61170f565b6001600160601b03811660009081526001602052604081205465ffffffffffff600160301b9091048116429091161015806106f957506001600160601b03821660009081526001602081905260409091200154155b92915050565b6001600160601b0381166000908152600160208190526040822001541580159061075457506001600160601b03821660009081526001602052604090205465ffffffffffff600160301b909104811642909116105b80156106f95750506001600160601b031660009081526001602052604090205465ffffffffffff908116429091161090565b606080336001600160a01b037f000000000000000000000000000000000000000000000000000000000000000016146107d9576040516366e069e160e01b81523360048201526024015b60405180910390fd5b7f00000000000000000000000000000000000000000000000000000000000000006001600160a01b0316635c774ed76040518163ffffffff1660e01b8152600401602060405180830381865afa158015610837573d6000803e3d6000fd5b505050506040513d601f19601f8201168201806040525081019061085b9190612ede565b156108795760405163115250c560e21b815260040160405180910390fd5b6108828561175c565b61088b856117a7565b610896858585611801565b91509150935093915050565b600360205260009081526040902080546108bb90612efb565b80601f01602080910402602001604051908101604052809291908181526020018280546108e790612efb565b80156109345780601f1061090957610100808354040283529160200191610934565b820191906000526020600020905b81548152906001019060200180831161091757829003601f168201915b505050505081565b336001600160a01b037f00000000000000000000000000000000000000000000000000000000000000001614610987576040516366e069e160e01b81523360048201526024016107d0565b6000805465ffffffffffff191665ffffffffffff92909216919091179055565b336001600160a01b037f000000000000000000000000000000000000000000000000000000000000000016146109f2576040516366e069e160e01b81523360048201526024016107d0565b7f00000000000000000000000000000000000000000000000000000000000000006001600160a01b0316635c774ed76040518163ffffffff1660e01b8152600401602060405180830381865afa158015610a50573d6000803e3d6000fd5b505050506040513d601f19601f82011682018060405250810190610a749190612ede565b15610a925760405163115250c560e21b815260040160405180910390fd5b610a9b8161175c565b610aa4816119b9565b610aad81611a38565b610ab681611ac4565b610abf81611b1e565b50565b336001600160a01b037f00000000000000000000000000000000000000000000000000000000000000001614610b0d576040516366e069e160e01b81523360048201526024016107d0565b62093a808165ffffffffffff161115610b3957604051633350f82560e11b815260040160405180910390fd5b6002805465ffffffffffff191665ffffffffffff92909216919091179055565b610b6161279c565b506001600160601b0316600090815260016020818152604092839020835161010081018552815465ffffffffffff8082168352600160301b8204169382019390935260ff600160601b8404811695820195909552600160681b830485166060820152600160701b909204909316151560808201529082015460a0820152600282015460c082015260039091015460e082015290565b6001600160601b03811660009081526001602081905260408220015415801590610c4b57506001600160601b03821660009081526001602052604090205465ffffffffffff600160301b909104811642909116105b80156106f95750506001600160601b031660009081526001602052604090205465ffffffffffff90811642909116101590565b6000336001600160a01b037f00000000000000000000000000000000000000000000000000000000000000001614610ccb576040516366e069e160e01b81523360048201526024016107d0565b7f00000000000000000000000000000000000000000000000000000000000000006001600160a01b0316635c774ed76040518163ffffffff1660e01b8152600401602060405180830381865afa158015610d29573d6000803e3d6000fd5b505050506040513d601f19601f82011682018060405250810190610d4d9190612ede565b15610d6b5760405163115250c560e21b815260040160405180910390fd5b610d748561175c565b610d7d85611b47565b610d878585611b98565b610d92858584611c6c565b610d9c8585611cd4565b610da585611d5a565b610db185858585611df7565b95945050505050565b6000336001600160a01b037f00000000000000000000000000000000000000000000000000000000000000001614610e07576040516366e069e160e01b81523360048201526024016107d0565b7f00000000000000000000000000000000000000000000000000000000000000006001600160a01b0316635c774ed76040518163ffffffff1660e01b8152600401602060405180830381865afa158015610e65573d6000803e3d6000fd5b505050506040513d601f19601f82011682018060405250810190610e899190612ede565b15610ea75760405163115250c560e21b815260040160405180910390fd5b610eb08761175c565b610eb987611b47565b610ec287611d5a565b610ecb87611ac4565b610ed9878787878787611e8b565b90505b9695505050505050565b610eee6127e0565b610ef78361175c565b610f00836117a7565b610f0a8383611b98565b610f148383612198565b9392505050565b60408051606081018252600080825260208201819052918101829052610f408361175c565b610f49836117a7565b50506001600160601b03908116600090815260066020908152604091829020825160608101845281546001600160401b038116808352600160401b90910490951692810192909252600101549181019190915290151591565b610fca6040805160808101825260008082526020820181905291810182905290606082015290565b610fd38361175c565b610fdd8383611b98565b6001600160601b0383811660009081526005602090815260408083206001600160401b0387168452825291829020825160808101845281546001600160a01b038082168352600160a01b918290049096169382019390935260018083015495861694820194909452939092606085019290910460ff169081111561106357611063612c0b565b600181111561107457611074612c0b565b9052509392505050565b336001600160a01b037f000000000000000000000000000000000000000000000000000000000000000016146110c9576040516366e069e160e01b81523360048201526024016107d0565b7f00000000000000000000000000000000000000000000000000000000000000006001600160a01b0316635c774ed76040518163ffffffff1660e01b8152600401602060405180830381865afa158015611127573d6000803e3d6000fd5b505050506040513d601f19601f8201168201806040525081019061114b9190612ede565b156111695760405163115250c560e21b815260040160405180910390fd5b6111728161175c565b61117b81611d5a565b611184816123a6565b6001600160601b03166000908152600160208190526040822080546bffffffffffff0000000000001916600160301b4265ffffffffffff16021781550155565b336001600160a01b037f0000000000000000000000000000000000000000000000000000000000000000161461120f576040516366e069e160e01b81523360048201526024016107d0565b7f00000000000000000000000000000000000000000000000000000000000000006001600160a01b0316635c774ed76040518163ffffffff1660e01b8152600401602060405180830381865afa15801561126d573d6000803e3d6000fd5b505050506040513d601f19601f820116820180604052508101906112919190612ede565b156112af5760405163115250c560e21b815260040160405180910390fd5b825165ffffffffffff16158015906112d25750825165ffffffffffff4281169116105b15611306578251604051639421aa8960e01b815265ffffffffffff91821660048201524290911660248201526044016107d0565b600054602084015165ffffffffffff918216911610156113535760208301516000546040516302c1012760e21b815265ffffffffffff9283166004820152911660248201526044016107d0565b61135b61279c565b835165ffffffffffff1615611371578351611373565b425b65ffffffffffff16808252602085015161138c91612f4b565b65ffffffffffff16602082015260ff8084166040808401919091529083166060808401919091529085015115156080808401919091529085015160a08301528401516113db90869083906123af565b6001600160601b039490941660009081526001602081815260409283902087518154928901519489015160608a015160808b015165ffffffffffff9384166bffffffffffffffffffffffff1990961695909517600160301b93909716929092029590951761ffff60601b1916600160601b60ff9687160260ff60681b191617600160681b95909116949094029390931760ff60701b1916600160701b9115159190910217825560a08601519082015560c0850151600282015560e090940151600390940193909355505050565b6040805160c081018252600080825260208201819052918101829052606081018290526080810182905260a08101919091526114e38261175c565b6001600160601b038216600090815260046020908152604091829020825160c0810190935280548352600180820154919284019160ff169081111561152a5761152a612c0b565b600181111561153b5761153b612c0b565b8152600182015461010081046001600160401b03166020830152600160481b900460ff16151560408201526002820154606082015260039091015460809091015292915050565b60008080806060336001600160a01b037f000000000000000000000000000000000000000000000000000000000000000016146115d4576040516366e069e160e01b81523360048201526024016107d0565b7f00000000000000000000000000000000000000000000000000000000000000006001600160a01b0316635c774ed76040518163ffffffff1660e01b8152600401602060405180830381865afa158015611632573d6000803e3d6000fd5b505050506040513d601f19601f820116820180604052508101906116569190612ede565b156116745760405163115250c560e21b815260040160405180910390fd5b61167d8761175c565b61168687611b47565b61168f8761247d565b61169887611ac4565b6001600160601b03871660009081526001602052604090206116ba8888612539565b6001600160601b038c166000908152600160209081526040808320600380820189905560029091018790559091529020939950919750945092506116fe8382612fb8565b506001015492509295509295909350565b336001600160a01b037f0000000000000000000000000000000000000000000000000000000000000000161461175a576040516366e069e160e01b81523360048201526024016107d0565b565b6001600160601b03811660009081526001602052604081205465ffffffffffff169003610abf57604051638c54233f60e01b81526001600160601b03821660048201526024016107d0565b6001600160601b038116600090815260046020526040902060019081015460ff16818111156117d8576117d8612c0b565b14610abf57604051636985f4c960e11b81526001600160601b03821660048201526024016107d0565b60608082806001600160401b0381111561181d5761181d612c93565b60405190808252806020026020018201604052801561185657816020015b6118436127e0565b81526020019060019003908161183b5790505b50925060005b818110156119af576118948787878481811061187a5761187a613077565b905060200201602081019061188f919061308d565b611b98565b6118c4878787848181106118aa576118aa613077565b90506020020160208101906118bf919061308d565b611cd4565b6001600160601b03871660009081526005602052604081206001918888858181106118f1576118f1613077565b9050602002016020810190611906919061308d565b6001600160401b03166001600160401b0316815260200190815260200160002060010160146101000a81548160ff0219169083600181111561194a5761194a612c0b565b021790555061197f8787878481811061196557611965613077565b905060200201602081019061197a919061308d565b612198565b84828151811061199157611991613077565b602002602001018190525080806119a7906130a8565b91505061185c565b5050935093915050565b6001600160601b03811660009081526001602052604090205465ffffffffffff600160301b909104811642909116108015611a0f57506001600160601b0381166000908152600160208190526040909120015415155b15610abf5760405163f7babce560e01b81526001600160601b03821660048201526024016107d0565b6001600160601b03811660009081526001602052604090205465ffffffffffff600160301b90910481169042168111801590611a975750600254611a849065ffffffffffff1682612f4b565b65ffffffffffff164265ffffffffffff16105b15611ac057604051630340ca2960e11b81526001600160601b03831660048201526024016107d0565b5050565b6001600160601b038116600090815260046020526040902060019081015460ff1681811115611af557611af5612c0b565b03610abf57604051636985f4c960e11b81526001600160601b03821660048201526024016107d0565b6001600160601b031660009081526004602052604090206001908101805460ff19169091179055565b6001600160601b03811660009081526001602052604090205465ffffffffffff908116429091161015610abf576040516306f6ec2760e31b81526001600160601b03821660048201526024016107d0565b6001600160601b0382166000908152600460205260409020600101546001600160401b03610100909104811690821610611bff576040516322a16ebf60e01b81526001600160601b03831660048201526001600160401b03821660248201526044016107d0565b6001600160601b03821660009081526005602090815260408083206001600160401b03851684529091529020546001600160a01b0316611ac0576040516322a16ebf60e01b81526001600160601b03831660048201526001600160401b03821660248201526044016107d0565b6001600160601b03831660009081526005602090815260408083206001600160401b03861684529091529020546001600160a01b03828116911614611ccf576040516319b1d90760e31b81526001600160a01b03821660048201526024016107d0565b505050565b60016001600160601b03831660009081526005602090815260408083206001600160401b03861684529091529020600190810154600160a01b900460ff1690811115611d2257611d22612c0b565b03611ac057604051631359755560e11b81526001600160601b03831660048201526001600160401b03821660248201526044016107d0565b6001600160601b03811660009081526001602052604090205465ffffffffffff600160301b90910481164290911610611db1576040516306f6ec2760e31b81526001600160601b03821660048201526024016107d0565b6001600160601b0381166000908152600160208190526040822001549003610abf576040516306f6ec2760e31b81526001600160601b03821660048201526024016107d0565b6001600160601b0384166000908152600460209081526040808320600583528184206001600160401b038816855290925282206001808201805460ff60a01b1916600160a01b8302179055508054600283018054600160a01b9092046001600160601b031691600090611e6b9084906130c1565b909155505054600160a01b90046001600160601b03169695505050505050565b6000831580611ea057506001600160601b0384115b15611ebe57604051633350f82560e11b815260040160405180910390fd5b6001600160601b038716600090815260016020818152604080842083015460049092528320808301805492949193919261010090046001600160401b031691611f06836130d4565b91906101000a8154816001600160401b0302191690836001600160401b031602179055509050600087905060405180608001604052808b6001600160a01b03168152602001826001600160601b031681526020018a6001600160a01b0316815260200160006001811115611f7c57611f7c612c0b565b90526001600160601b03808d1660009081526005602090815260408083206001600160401b0388168452825291829020845191850151909316600160a01b9081026001600160a01b039283161784559184015160018085018054929093166001600160a01b03198316811784556060870151946001600160a81b0319909316179190849081111561200f5761200f612c0b565b02179055509050508783600201600082825461202b91906130fa565b90915550506001600160601b038b1660009081526001602052604081205461205e90600160681b900460ff16600a6131f1565b90506000612075856002015483876000015461262a565b90508581101561208d57839650505050505050610edc565b8581111561214b576120a784878386868a600001546126d1565b6001600160601b038e8116600090815260066020908152604080832085518154938701516001600160401b039091166001600160a01b031990941693909317600160401b93861684021780825595909101516001909101556002890180549190940490921692916121199084906130c1565b90915550506002850154855460009161213391859061262a565b9050856003015481101561214957600386018190555b505b5050506001600160601b0399909916600090815260016020526040902080546bffffffffffff0000000000001916600160301b4265ffffffffffff16021790555096979650505050505050565b6121a06127e0565b6001600160601b0383811660009081526005602090815260408083206001600160401b03871684528252808320815160808101835281546001600160a01b038082168352600160a01b918290049097169482019490945260018083015496871693820193909352939490926060850192910460ff169081111561222557612225612c0b565b600181111561223657612236612c0b565b90525080516001600160a01b0390811684526040808301519091166020808601919091526001600160601b038716600090815260049091522060010154909150600160481b900460ff1615612379576001600160601b0384166000908152600660205260409020546001600160401b038085169116036122fd576020808201516001600160601b03908116604080860191909152868216600081815260068086529281206001810154606089015291905292529054600160401b900416608083015261239f565b602081810180516001600160601b03908116604086810191909152915187821660009081526001909452919092205461236892919091169061234a90600160681b900460ff16600a6131f1565b6001600160601b03871660009081526004602052604090205461262a565b60608301526000608083015261239f565b6020810180516001600160601b0390811660408501526000606085015290511660808301525b5092915050565b611b1e8161247d565b6000818060200190518101906123c59190613200565b80519091506000036123ea57604051633350f82560e11b815260040160405180910390fd5b61271065ffffffffffff16816020015162ffffff16111561241e57604051633350f82560e11b815260040160405180910390fd5b6001600160601b03841660009081526004602090815260409091208251815560018101805468ffffffffffffffff00191661010017905560a08501519183015190916124719162ffffff1661271061276e565b60039091015550505050565b6001600160601b038116600090815260046020526040812060019081015460ff16908111156124ae576124ae612c0b565b1480156124dd57506001600160601b0381166000908152600160205260409020544265ffffffffffff90911611155b801561251057506001600160601b03811660009081526001602052604090205442600160301b90910465ffffffffffff16115b15610abf57604051636985f4c960e11b81526001600160601b03821660048201526024016107d0565b6001600160601b03821660009081526004602090815260408083206001808201805460ff19168217905560029091015492528220548291829160609183916125af919061259190600160681b900460ff16600a6131f1565b6001600160601b038a1660009081526004602052604090205461262a565b6001600160601b0388166000908152600460205260409020600301549091508110156125df575060019150612621565b6001600160601b03871660009081526004602052604090206001818101805469ff0000000000000000001916600160481b179055600290910154955090935091505b92959194509250565b6000838302600019848609818110820190038061265f57836126545763ae47f7026000526004601cfd5b508290049050610f14565b8084116126745763ae47f7026000526004601cfd5b83858709600085810386169586900495848311909303908390038390046001010292030417600383026002908118808502820302808502820302808502820302808502820302808502820302808502909103020290509392505050565b60408051606081018252600080825260208201819052918101829052906127026001600160601b038616858561262a565b9050600061271088886130c1565b90506000612728876001600160601b0316838561262a565b9050600061273683856130c1565b604080516060810182526001600160401b038e1681526001600160601b03909416602085015283015250925050509695505050505050565b600061277b84848461262a565b90508183850915610f145760010180610f145763ae47f7026000526004601cfd5b6040805161010081018252600080825260208201819052918101829052606081018290526080810182905260a0810182905260c0810182905260e081019190915290565b6040518060a0016040528060006001600160a01b0316815260200160006001600160a01b031681526020016000815260200160008152602001600081525090565b80356001600160601b038116811461283857600080fd5b919050565b60008060006060848603121561285257600080fd5b61285b84612821565b95602085013595506040909401359392505050565b6020808252825182820181905260009190848201906040850190845b818110156128b15783516001600160401b03168352928401929184019160010161288c565b50909695505050505050565b6000602082840312156128cf57600080fd5b610f1482612821565b6000806000604084860312156128ed57600080fd5b6128f684612821565b925060208401356001600160401b038082111561291257600080fd5b818601915086601f83011261292657600080fd5b81358181111561293557600080fd5b8760208260051b850101111561294a57600080fd5b6020830194508093505050509250925092565b80516001600160a01b039081168352602080830151909116908301526040808201519083015260608082015190830152608090810151910152565b6000815180845260005b818110156129be576020818501810151868301820152016129a2565b506000602082860101526020601f19601f83011685010191505092915050565b604080825283519082018190526000906020906060840190828701845b82811015612a2157612a0e84835161295d565b60a09390930192908401906001016129fb565b50505083810382850152610edc8186612998565b602081526000610f146020830184612998565b803565ffffffffffff8116811461283857600080fd5b600060208284031215612a7057600080fd5b610f1482612a48565b60008060408385031215612a8c57600080fd5b612a9583612821565b946020939093013593505050565b80356001600160401b038116811461283857600080fd5b80356001600160a01b038116811461283857600080fd5b60008060008060808587031215612ae757600080fd5b612af085612821565b9350612afe60208601612aa3565b925060408501359150612b1360608601612aba565b905092959194509250565b60008060008060008060a08789031215612b3757600080fd5b612b4087612821565b9550612b4e60208801612aba565b9450612b5c60408801612aba565b93506060870135925060808701356001600160401b0380821115612b7f57600080fd5b818901915089601f830112612b9357600080fd5b813581811115612ba257600080fd5b8a6020828501011115612bb457600080fd5b6020830194508093505050509295509295509295565b60008060408385031215612bdd57600080fd5b612be683612821565b9150612bf460208401612aa3565b90509250929050565b60a081016106f9828461295d565b634e487b7160e01b600052602160045260246000fd5b60028110610abf57610abf612c0b565b60208101612c3e83612c21565b91905290565b81516001600160a01b0390811682526020808401516001600160601b0316908301526040808401519091169082015260608201516080820190612c8681612c21565b8060608401525092915050565b634e487b7160e01b600052604160045260246000fd5b60405160a081016001600160401b0381118282101715612ccb57612ccb612c93565b60405290565b604051601f8201601f191681016001600160401b0381118282101715612cf957612cf9612c93565b604052919050565b8015158114610abf57600080fd5b803560ff8116811461283857600080fd5b60008060008060808587031215612d3657600080fd5b612d3f85612821565b93506020808601356001600160401b0380821115612d5c57600080fd5b9087019060a0828a031215612d7057600080fd5b612d78612ca9565b612d8183612a48565b8152612d8e848401612a48565b848201526040830135612da081612d01565b604082015260608381013590820152608083013582811115612dc157600080fd5b80840193505089601f840112612dd657600080fd5b823582811115612de857612de8612c93565b612dfa601f8201601f19168601612cd1565b92508083528a85828601011115612e1057600080fd5b80858501868501376000908301909401939093526080830152509250612e3860408601612d0f565b9150612b1360608601612d0f565b6020810160048310612c3e57612c3e612c0b565b81518152602082015160c0820190612e7181612c21565b806020840152506001600160401b0360408401511660408301526060830151151560608301526080830151608083015260a083015160a083015292915050565b858152846020820152836040820152821515606082015260a060808201526000610ed960a0830184612998565b600060208284031215612ef057600080fd5b8151610f1481612d01565b600181811c90821680612f0f57607f821691505b602082108103612f2f57634e487b7160e01b600052602260045260246000fd5b50919050565b634e487b7160e01b600052601160045260246000fd5b65ffffffffffff81811683821601908082111561239f5761239f612f35565b601f821115611ccf57600081815260208120601f850160051c81016020861015612f915750805b601f850160051c820191505b81811015612fb057828155600101612f9d565b505050505050565b81516001600160401b03811115612fd157612fd1612c93565b612fe581612fdf8454612efb565b84612f6a565b602080601f83116001811461301a57600084156130025750858301515b600019600386901b1c1916600185901b178555612fb0565b600085815260208120601f198616915b828110156130495788860151825594840194600190910190840161302a565b50858210156130675787850151600019600388901b60f8161c191681555b5050505050600190811b01905550565b634e487b7160e01b600052603260045260246000fd5b60006020828403121561309f57600080fd5b610f1482612aa3565b6000600182016130ba576130ba612f35565b5060010190565b818103818111156106f9576106f9612f35565b60006001600160401b038083168181036130f0576130f0612f35565b6001019392505050565b808201808211156106f9576106f9612f35565b600181815b8085111561314857816000190482111561312e5761312e612f35565b8085161561313b57918102915b93841c9390800290613112565b509250929050565b60008261315f575060016106f9565b8161316c575060006106f9565b8160018114613182576002811461318c576131a8565b60019150506106f9565b60ff84111561319d5761319d612f35565b50506001821b6106f9565b5060208310610133831016604e8410600b84101617156131cb575081810a6106f9565b6131d5838361310d565b80600019048211156131e9576131e9612f35565b029392505050565b6000610f1460ff841683613150565b60006040828403121561321257600080fd5b604051604081018181106001600160401b038211171561323457613234612c93565b60405282518152602083015162ffffff8116811461325157600080fd5b6020820152939250505056fea264697066735822122012f36555fad138600b3f145ef0624382ac8560a1fb24bd9d160be7722f910e5f64736f6c63430008130033",
    "linkReferences": {}
  },
  "methodIdentifiers": {
    "INIT()": "ea643914",
    "PARENT()": "122b83f9",
    "TYPE()": "bb24fe8a",
    "VEECODE()": "d61735ca",
    "abort(uint96)": "1ed75f1f",
    "auction(uint96,(uint48,uint48,bool,uint256,bytes),uint8,uint8)": "bae96bdd",
    "auctionType()": "994595e1",
    "bid(uint96,address,address,uint256,bytes)": "87698a31",
    "cancelAuction(uint96)": "b04046df",
    "capacityInQuote(uint96)": "39792cdc",
    "claimBids(uint96,uint64[])": "0a35511b",
    "dedicatedSettlePeriod()": "a85cebb6",
    "getAuctionData(uint96)": "cadb3383",
    "getBid(uint96,uint64)": "a8bf44e4",
    "getBidClaim(uint96,uint64)": "8f21c318",
    "getBidIdAtIndex(uint96,uint256)": "7d7b6853",
    "getBidIds(uint96,uint256,uint256)": "00b33217",
    "getLot(uint96)": "4e1f4258",
    "getNumBids(uint96)": "d899a337",
    "getPartialFill(uint96)": "a16f7ef7",
    "hasEnded(uint96)": "03855921",
    "isLive(uint96)": "732efc03",
    "isUpcoming(uint96)": "0440ec53",
    "lotAuctionOutput(uint96)": "0cd0bcf2",
    "lotData(uint96)": "5806afc3",
    "minAuctionDuration()": "54134876",
    "refundBid(uint96,uint64,uint256,address)": "7d9234bc",
    "remainingCapacity(uint96)": "ace54da5",
    "setDedicatedSettlePeriod(uint48)": "29da5abd",
    "setMinAuctionDuration(uint48)": "12d6ef2d",
    "settle(uint96,uint256)": "cd280bdb"
  },
  "id": 178
}