{
  "abi": [
    {
      "type": "constructor",
      "inputs": [
        {
          "name": "parent_",
          "type": "address",
          "internalType": "address"
        }
      ],
      "stateMutability": "nonpayable"
    },
    {
      "type": "function",
      "name": "INIT",
      "inputs": [],
      "outputs": [],
      "stateMutability": "nonpayable"
    },
    {
      "type": "function",
      "name": "PARENT",
      "inputs": [],
      "outputs": [
        {
          "name": "",
          "type": "address",
          "internalType": "address"
        }
      ],
      "stateMutability": "view"
    },
    {
      "type": "function",
      "name": "TYPE",
      "inputs": [],
      "outputs": [
        {
          "name": "",
          "type": "uint8",
          "internalType": "enum Module.Type"
        }
      ],
      "stateMutability": "pure"
    },
    {
      "type": "function",
      "name": "VEECODE",
      "inputs": [],
      "outputs": [
        {
          "name": "",
          "type": "bytes7",
          "internalType": "Veecode"
        }
      ],
      "stateMutability": "pure"
    },
    {
      "type": "function",
      "name": "allowance",
      "inputs": [
        {
          "name": "",
          "type": "address",
          "internalType": "address"
        },
        {
          "name": "",
          "type": "address",
          "internalType": "address"
        },
        {
          "name": "",
          "type": "uint256",
          "internalType": "uint256"
        }
      ],
      "outputs": [
        {
          "name": "",
          "type": "uint256",
          "internalType": "uint256"
        }
      ],
      "stateMutability": "view"
    },
    {
      "type": "function",
      "name": "approve",
      "inputs": [
        {
          "name": "",
          "type": "address",
          "internalType": "address"
        },
        {
          "name": "",
          "type": "uint256",
          "internalType": "uint256"
        },
        {
          "name": "",
          "type": "uint256",
          "internalType": "uint256"
        }
      ],
      "outputs": [
        {
          "name": "",
          "type": "bool",
          "internalType": "bool"
        }
      ],
      "stateMutability": "nonpayable"
    },
    {
      "type": "function",
      "name": "balanceOf",
      "inputs": [
        {
          "name": "",
          "type": "address",
          "internalType": "address"
        },
        {
          "name": "",
          "type": "uint256",
          "internalType": "uint256"
        }
      ],
      "outputs": [
        {
          "name": "",
          "type": "uint256",
          "internalType": "uint256"
        }
      ],
      "stateMutability": "view"
    },
    {
      "type": "function",
      "name": "computeId",
      "inputs": [
        {
          "name": "underlyingToken_",
          "type": "address",
          "internalType": "address"
        },
        {
          "name": "params_",
          "type": "bytes",
          "internalType": "bytes"
        }
      ],
      "outputs": [
        {
          "name": "",
          "type": "uint256",
          "internalType": "uint256"
        }
      ],
      "stateMutability": "pure"
    },
    {
      "type": "function",
      "name": "decimals",
      "inputs": [
        {
          "name": "tokenId_",
          "type": "uint256",
          "internalType": "uint256"
        }
      ],
      "outputs": [
        {
          "name": "",
          "type": "uint8",
          "internalType": "uint8"
        }
      ],
      "stateMutability": "view"
    },
    {
      "type": "function",
      "name": "deploy",
      "inputs": [
        {
          "name": "underlyingToken_",
          "type": "address",
          "internalType": "address"
        },
        {
          "name": "params_",
          "type": "bytes",
          "internalType": "bytes"
        },
        {
          "name": "wrapped_",
          "type": "bool",
          "internalType": "bool"
        }
      ],
      "outputs": [
        {
          "name": "tokenId_",
          "type": "uint256",
          "internalType": "uint256"
        },
        {
          "name": "wrappedAddress_",
          "type": "address",
          "internalType": "address"
        }
      ],
      "stateMutability": "nonpayable"
    },
    {
      "type": "function",
      "name": "exercise",
      "inputs": [
        {
          "name": "",
          "type": "uint256",
          "internalType": "uint256"
        },
        {
          "name": "",
          "type": "uint256",
          "internalType": "uint256"
        }
      ],
      "outputs": [],
      "stateMutability": "nonpayable"
    },
    {
      "type": "function",
      "name": "exerciseCost",
      "inputs": [
        {
          "name": "",
          "type": "uint256",
          "internalType": "uint256"
        },
        {
          "name": "",
          "type": "uint256",
          "internalType": "uint256"
        }
      ],
      "outputs": [
        {
          "name": "",
          "type": "uint256",
          "internalType": "uint256"
        }
      ],
      "stateMutability": "view"
    },
    {
      "type": "function",
      "name": "getTokenMetadata",
      "inputs": [
        {
          "name": "tokenId",
          "type": "uint256",
          "internalType": "uint256"
        }
      ],
      "outputs": [
        {
          "name": "",
          "type": "tuple",
          "internalType": "struct IDerivative.Token",
          "components": [
            {
              "name": "exists",
              "type": "bool",
              "internalType": "bool"
            },
            {
              "name": "wrapped",
              "type": "address",
              "internalType": "address"
            },
            {
              "name": "underlyingToken",
              "type": "address",
              "internalType": "address"
            },
            {
              "name": "supply",
              "type": "uint256",
              "internalType": "uint256"
            },
            {
              "name": "data",
              "type": "bytes",
              "internalType": "bytes"
            }
          ]
        }
      ],
      "stateMutability": "view"
    },
    {
      "type": "function",
      "name": "getTokenVestingParams",
      "inputs": [
        {
          "name": "tokenId_",
          "type": "uint256",
          "internalType": "uint256"
        }
      ],
      "outputs": [
        {
          "name": "",
          "type": "tuple",
          "internalType": "struct ILinearVesting.VestingParams",
          "components": [
            {
              "name": "start",
              "type": "uint48",
              "internalType": "uint48"
            },
            {
              "name": "expiry",
              "type": "uint48",
              "internalType": "uint48"
            }
          ]
        }
      ],
      "stateMutability": "view"
    },
    {
      "type": "function",
      "name": "isOperator",
      "inputs": [
        {
          "name": "",
          "type": "address",
          "internalType": "address"
        },
        {
          "name": "",
          "type": "address",
          "internalType": "address"
        }
      ],
      "outputs": [
        {
          "name": "",
          "type": "bool",
          "internalType": "bool"
        }
      ],
      "stateMutability": "view"
    },
    {
      "type": "function",
      "name": "mint",
      "inputs": [
        {
          "name": "to_",
          "type": "address",
          "internalType": "address"
        },
        {
          "name": "tokenId_",
          "type": "uint256",
          "internalType": "uint256"
        },
        {
          "name": "amount_",
          "type": "uint256",
          "internalType": "uint256"
        },
        {
          "name": "wrapped_",
          "type": "bool",
          "internalType": "bool"
        }
      ],
      "outputs": [
        {
          "name": "",
          "type": "uint256",
          "internalType": "uint256"
        },
        {
          "name": "",
          "type": "address",
          "internalType": "address"
        },
        {
          "name": "",
          "type": "uint256",
          "internalType": "uint256"
        }
      ],
      "stateMutability": "nonpayable"
    },
    {
      "type": "function",
      "name": "mint",
      "inputs": [
        {
          "name": "to_",
          "type": "address",
          "internalType": "address"
        },
        {
          "name": "underlyingToken_",
          "type": "address",
          "internalType": "address"
        },
        {
          "name": "params_",
          "type": "bytes",
          "internalType": "bytes"
        },
        {
          "name": "amount_",
          "type": "uint256",
          "internalType": "uint256"
        },
        {
          "name": "wrapped_",
          "type": "bool",
          "internalType": "bool"
        }
      ],
      "outputs": [
        {
          "name": "tokenId_",
          "type": "uint256",
          "internalType": "uint256"
        },
        {
          "name": "wrappedAddress_",
          "type": "address",
          "internalType": "address"
        },
        {
          "name": "amountCreated_",
          "type": "uint256",
          "internalType": "uint256"
        }
      ],
      "stateMutability": "nonpayable"
    },
    {
      "type": "function",
      "name": "name",
      "inputs": [
        {
          "name": "tokenId_",
          "type": "uint256",
          "internalType": "uint256"
        }
      ],
      "outputs": [
        {
          "name": "",
          "type": "string",
          "internalType": "string"
        }
      ],
      "stateMutability": "view"
    },
    {
      "type": "function",
      "name": "reclaim",
      "inputs": [
        {
          "name": "",
          "type": "uint256",
          "internalType": "uint256"
        }
      ],
      "outputs": [],
      "stateMutability": "nonpayable"
    },
    {
      "type": "function",
      "name": "redeem",
      "inputs": [
        {
          "name": "tokenId_",
          "type": "uint256",
          "internalType": "uint256"
        },
        {
          "name": "amount_",
          "type": "uint256",
          "internalType": "uint256"
        }
      ],
      "outputs": [],
      "stateMutability": "nonpayable"
    },
    {
      "type": "function",
      "name": "redeemMax",
      "inputs": [
        {
          "name": "tokenId_",
          "type": "uint256",
          "internalType": "uint256"
        }
      ],
      "outputs": [],
      "stateMutability": "nonpayable"
    },
    {
      "type": "function",
      "name": "redeemable",
      "inputs": [
        {
          "name": "owner_",
          "type": "address",
          "internalType": "address"
        },
        {
          "name": "tokenId_",
          "type": "uint256",
          "internalType": "uint256"
        }
      ],
      "outputs": [
        {
          "name": "",
          "type": "uint256",
          "internalType": "uint256"
        }
      ],
      "stateMutability": "view"
    },
    {
      "type": "function",
      "name": "setOperator",
      "inputs": [
        {
          "name": "operator",
          "type": "address",
          "internalType": "address"
        },
        {
          "name": "approved",
          "type": "bool",
          "internalType": "bool"
        }
      ],
      "outputs": [
        {
          "name": "",
          "type": "bool",
          "internalType": "bool"
        }
      ],
      "stateMutability": "nonpayable"
    },
    {
      "type": "function",
      "name": "supportsInterface",
      "inputs": [
        {
          "name": "interfaceId",
          "type": "bytes4",
          "internalType": "bytes4"
        }
      ],
      "outputs": [
        {
          "name": "",
          "type": "bool",
          "internalType": "bool"
        }
      ],
      "stateMutability": "view"
    },
    {
      "type": "function",
      "name": "symbol",
      "inputs": [
        {
          "name": "tokenId_",
          "type": "uint256",
          "internalType": "uint256"
        }
      ],
      "outputs": [
        {
          "name": "",
          "type": "string",
          "internalType": "string"
        }
      ],
      "stateMutability": "view"
    },
    {
      "type": "function",
      "name": "tokenMetadata",
      "inputs": [
        {
          "name": "tokenId",
          "type": "uint256",
          "internalType": "uint256"
        }
      ],
      "outputs": [
        {
          "name": "exists",
          "type": "bool",
          "internalType": "bool"
        },
        {
          "name": "wrapped",
          "type": "address",
          "internalType": "address"
        },
        {
          "name": "underlyingToken",
          "type": "address",
          "internalType": "address"
        },
        {
          "name": "supply",
          "type": "uint256",
          "internalType": "uint256"
        },
        {
          "name": "data",
          "type": "bytes",
          "internalType": "bytes"
        }
      ],
      "stateMutability": "view"
    },
    {
      "type": "function",
      "name": "tokenURI",
      "inputs": [
        {
          "name": "tokenId_",
          "type": "uint256",
          "internalType": "uint256"
        }
      ],
      "outputs": [
        {
          "name": "",
          "type": "string",
          "internalType": "string"
        }
      ],
      "stateMutability": "view"
    },
    {
      "type": "function",
      "name": "totalSupply",
      "inputs": [
        {
          "name": "tokenId",
          "type": "uint256",
          "internalType": "uint256"
        }
      ],
      "outputs": [
        {
          "name": "",
          "type": "uint256",
          "internalType": "uint256"
        }
      ],
      "stateMutability": "view"
    },
    {
      "type": "function",
      "name": "transfer",
      "inputs": [
        {
          "name": "",
          "type": "address",
          "internalType": "address"
        },
        {
          "name": "",
          "type": "uint256",
          "internalType": "uint256"
        },
        {
          "name": "",
          "type": "uint256",
          "internalType": "uint256"
        }
      ],
      "outputs": [
        {
          "name": "",
          "type": "bool",
          "internalType": "bool"
        }
      ],
      "stateMutability": "nonpayable"
    },
    {
      "type": "function",
      "name": "transferFrom",
      "inputs": [
        {
          "name": "",
          "type": "address",
          "internalType": "address"
        },
        {
          "name": "",
          "type": "address",
          "internalType": "address"
        },
        {
          "name": "",
          "type": "uint256",
          "internalType": "uint256"
        },
        {
          "name": "",
          "type": "uint256",
          "internalType": "uint256"
        }
      ],
      "outputs": [
        {
          "name": "",
          "type": "bool",
          "internalType": "bool"
        }
      ],
      "stateMutability": "nonpayable"
    },
    {
      "type": "function",
      "name": "transform",
      "inputs": [
        {
          "name": "",
          "type": "uint256",
          "internalType": "uint256"
        },
        {
          "name": "",
          "type": "address",
          "internalType": "address"
        },
        {
          "name": "",
          "type": "uint256",
          "internalType": "uint256"
        }
      ],
      "outputs": [],
      "stateMutability": "nonpayable"
    },
    {
      "type": "function",
      "name": "unwrap",
      "inputs": [
        {
          "name": "tokenId_",
          "type": "uint256",
          "internalType": "uint256"
        },
        {
          "name": "amount_",
          "type": "uint256",
          "internalType": "uint256"
        }
      ],
      "outputs": [],
      "stateMutability": "nonpayable"
    },
    {
      "type": "function",
      "name": "userClaimed",
      "inputs": [
        {
          "name": "owner_",
          "type": "address",
          "internalType": "address"
        },
        {
          "name": "tokenId_",
          "type": "uint256",
          "internalType": "uint256"
        }
      ],
      "outputs": [
        {
          "name": "claimed_",
          "type": "uint256",
          "internalType": "uint256"
        }
      ],
      "stateMutability": "view"
    },
    {
      "type": "function",
      "name": "validate",
      "inputs": [
        {
          "name": "underlyingToken_",
          "type": "address",
          "internalType": "address"
        },
        {
          "name": "params_",
          "type": "bytes",
          "internalType": "bytes"
        }
      ],
      "outputs": [
        {
          "name": "",
          "type": "bool",
          "internalType": "bool"
        }
      ],
      "stateMutability": "pure"
    },
    {
      "type": "function",
      "name": "wrap",
      "inputs": [
        {
          "name": "tokenId_",
          "type": "uint256",
          "internalType": "uint256"
        },
        {
          "name": "amount_",
          "type": "uint256",
          "internalType": "uint256"
        }
      ],
      "outputs": [],
      "stateMutability": "nonpayable"
    },
    {
      "type": "event",
      "name": "Approval",
      "inputs": [
        {
          "name": "owner",
          "type": "address",
          "indexed": true,
          "internalType": "address"
        },
        {
          "name": "spender",
          "type": "address",
          "indexed": true,
          "internalType": "address"
        },
        {
          "name": "id",
          "type": "uint256",
          "indexed": true,
          "internalType": "uint256"
        },
        {
          "name": "amount",
          "type": "uint256",
          "indexed": false,
          "internalType": "uint256"
        }
      ],
      "anonymous": false
    },
    {
      "type": "event",
      "name": "DerivativeCreated",
      "inputs": [
        {
          "name": "tokenId",
          "type": "uint256",
          "indexed": true,
          "internalType": "uint256"
        },
        {
          "name": "start",
          "type": "uint48",
          "indexed": false,
          "internalType": "uint48"
        },
        {
          "name": "expiry",
          "type": "uint48",
          "indexed": false,
          "internalType": "uint48"
        },
        {
          "name": "baseToken",
          "type": "address",
          "indexed": false,
          "internalType": "address"
        }
      ],
      "anonymous": false
    },
    {
      "type": "event",
      "name": "OperatorSet",
      "inputs": [
        {
          "name": "owner",
          "type": "address",
          "indexed": true,
          "internalType": "address"
        },
        {
          "name": "operator",
          "type": "address",
          "indexed": true,
          "internalType": "address"
        },
        {
          "name": "approved",
          "type": "bool",
          "indexed": false,
          "internalType": "bool"
        }
      ],
      "anonymous": false
    },
    {
      "type": "event",
      "name": "Redeemed",
      "inputs": [
        {
          "name": "tokenId",
          "type": "uint256",
          "indexed": true,
          "internalType": "uint256"
        },
        {
          "name": "owner",
          "type": "address",
          "indexed": true,
          "internalType": "address"
        },
        {
          "name": "amount",
          "type": "uint256",
          "indexed": false,
          "internalType": "uint256"
        }
      ],
      "anonymous": false
    },
    {
      "type": "event",
      "name": "Transfer",
      "inputs": [
        {
          "name": "caller",
          "type": "address",
          "indexed": false,
          "internalType": "address"
        },
        {
          "name": "from",
          "type": "address",
          "indexed": true,
          "internalType": "address"
        },
        {
          "name": "to",
          "type": "address",
          "indexed": true,
          "internalType": "address"
        },
        {
          "name": "id",
          "type": "uint256",
          "indexed": true,
          "internalType": "uint256"
        },
        {
          "name": "amount",
          "type": "uint256",
          "indexed": false,
          "internalType": "uint256"
        }
      ],
      "anonymous": false
    },
    {
      "type": "event",
      "name": "Unwrapped",
      "inputs": [
        {
          "name": "tokenId",
          "type": "uint256",
          "indexed": true,
          "internalType": "uint256"
        },
        {
          "name": "owner",
          "type": "address",
          "indexed": true,
          "internalType": "address"
        },
        {
          "name": "amount",
          "type": "uint256",
          "indexed": false,
          "internalType": "uint256"
        },
        {
          "name": "wrappedToken",
          "type": "address",
          "indexed": false,
          "internalType": "address"
        }
      ],
      "anonymous": false
    },
    {
      "type": "event",
      "name": "Wrapped",
      "inputs": [
        {
          "name": "tokenId",
          "type": "uint256",
          "indexed": true,
          "internalType": "uint256"
        },
        {
          "name": "owner",
          "type": "address",
          "indexed": true,
          "internalType": "address"
        },
        {
          "name": "amount",
          "type": "uint256",
          "indexed": false,
          "internalType": "uint256"
        },
        {
          "name": "wrappedToken",
          "type": "address",
          "indexed": false,
          "internalType": "address"
        }
      ],
      "anonymous": false
    },
    {
      "type": "event",
      "name": "WrappedDerivativeCreated",
      "inputs": [
        {
          "name": "tokenId",
          "type": "uint256",
          "indexed": true,
          "internalType": "uint256"
        },
        {
          "name": "wrappedToken",
          "type": "address",
          "indexed": false,
          "internalType": "address"
        }
      ],
      "anonymous": false
    },
    {
      "type": "error",
      "name": "BrokenInvariant",
      "inputs": []
    },
    {
      "type": "error",
      "name": "Derivative_NotImplemented",
      "inputs": []
    },
    {
      "type": "error",
      "name": "InsufficientBalance",
      "inputs": []
    },
    {
      "type": "error",
      "name": "InvalidParams",
      "inputs": []
    },
    {
      "type": "error",
      "name": "Module_InvalidParent",
      "inputs": [
        {
          "name": "parent_",
          "type": "address",
          "internalType": "address"
        }
      ]
    },
    {
      "type": "error",
      "name": "Module_OnlyInternal",
      "inputs": []
    },
    {
      "type": "error",
      "name": "Module_OnlyParent",
      "inputs": [
        {
          "name": "caller_",
          "type": "address",
          "internalType": "address"
        }
      ]
    },
    {
      "type": "error",
      "name": "NotPermitted",
      "inputs": []
    },
    {
      "type": "error",
      "name": "StringsInsufficientHexLength",
      "inputs": [
        {
          "name": "value",
          "type": "uint256",
          "internalType": "uint256"
        },
        {
          "name": "length",
          "type": "uint256",
          "internalType": "uint256"
        }
      ]
    },
    {
      "type": "error",
      "name": "UnsupportedToken",
      "inputs": [
        {
          "name": "token_",
          "type": "address",
          "internalType": "address"
        }
      ]
    }
  ],
  "bytecode": {
    "object": "0x60e0604090815260a0523480156200001657600080fd5b5060405162006c4038038062006c408339810160408190526200003991620002a1565b806001600160a01b0381166200007257604051631462ddc360e21b81526001600160a01b03821660048201526024015b60405180910390fd5b6001600160a01b03166080526200008930620000d8565b60049062000098908262000378565b50604051620000a79062000293565b604051809103906000f080158015620000c4573d6000803e3d6000fd5b506001600160a01b031660c05250620004ba565b6060620000f06001600160a01b0383166014620000f6565b92915050565b6060826000620001088460026200045a565b6200011590600262000474565b6001600160401b038111156200012f576200012f620002d3565b6040519080825280601f01601f1916602001820160405280156200015a576020820181803683370190505b509050600360fc1b816000815181106200017857620001786200048a565b60200101906001600160f81b031916908160001a905350600f60fb1b81600181518110620001aa57620001aa6200048a565b60200101906001600160f81b031916908160001a9053506000620001d08560026200045a565b620001dd90600162000474565b90505b60018111156200025f576f181899199a1a9b1b9c1cb0b131b232b360811b83600f16601081106200021557620002156200048a565b1a60f81b8282815181106200022e576200022e6200048a565b60200101906001600160f81b031916908160001a90535060049290921c916200025781620004a0565b9050620001e0565b5081156200028b5760405163e22e27eb60e01b8152600481018690526024810185905260440162000069565b949350505050565b61075d80620064e383390190565b600060208284031215620002b457600080fd5b81516001600160a01b0381168114620002cc57600080fd5b9392505050565b634e487b7160e01b600052604160045260246000fd5b600181811c90821680620002fe57607f821691505b6020821081036200031f57634e487b7160e01b600052602260045260246000fd5b50919050565b601f8211156200037357600081815260208120601f850160051c810160208610156200034e5750805b601f850160051c820191505b818110156200036f578281556001016200035a565b5050505b505050565b81516001600160401b03811115620003945762000394620002d3565b620003ac81620003a58454620002e9565b8462000325565b602080601f831160018114620003e45760008415620003cb5750858301515b600019600386901b1c1916600185901b1785556200036f565b600085815260208120601f198616915b828110156200041557888601518255948401946001909101908401620003f4565b5085821015620004345787850151600019600388901b60f8161c191681555b5050505050600190811b01905550565b634e487b7160e01b600052601160045260246000fd5b8082028115828204841417620000f057620000f062000444565b80820180821115620000f057620000f062000444565b634e487b7160e01b600052603260045260246000fd5b600081620004b257620004b262000444565b506000190190565b60805160a05160c051615feb620004f860003960008181611d430152611f74015260006119d70152600081816102b101526117c10152615feb6000f3fe608060405234801561001057600080fd5b506004361061020f5760003560e01c80636e28667111610125578063d61735ca116100ad578063ea6439141161007c578063ea64391414610596578063f6e9936a1461059e578063f904eed8146105ac578063fcbf8b24146105bf578063fe99049a146105ea57600080fd5b8063d61735ca14610519578063dbad2d9a1461053a578063dbf110a71461054d578063e40d88f81461058357600080fd5b8063b6363cf2116100f4578063b6363cf214610496578063bb24fe8a146104c1578063bd85b039146104d0578063c87b56dd146104f3578063caf927851461050657600080fd5b80636e286671146104295780637cbc23731461043c578063a86265bb1461044f578063b24166611461045d57600080fd5b80633f47e662116101a8578063598af9e711610177578063598af9e71461038e57806360316801146103bf57806367627b62146103df5780636914db60146103f25780636aacff4e1461041657600080fd5b80633f47e66214610343578063426a8493146102995780634e41a1fb14610368578063558a72971461037b57600080fd5b8063122b83f9116101e4578063122b83f9146102ac5780631f54245b146102eb57806325ded5861461031b5780632dabbeed1461033057600080fd5b8062ad800c14610214578062fdd58e1461023d57806301ffc9a714610276578063095bcdb614610299575b600080fd5b6102276102223660046144ff565b6105f8565b6040516102349190614568565b60405180910390f35b61026861024b366004614597565b600160209081526000928352604080842090915290825290205481565b604051908152602001610234565b6102896102843660046145c1565b610712565b6040519015158152602001610234565b6102896102a73660046145eb565b610749565b6102d37f000000000000000000000000000000000000000000000000000000000000000081565b6040516001600160a01b039091168152602001610234565b6102fe6102f93660046146f1565b610764565b604080519283526001600160a01b03909116602083015201610234565b61032e61032936600461474e565b6107bd565b005b61032e61033e3660046144ff565b610945565b6103566103513660046144ff565b61095e565b60405160ff9091168152602001610234565b6102276103763660046144ff565b610a17565b610289610389366004614770565b610b2f565b61026861039c3660046147a3565b600260209081526000938452604080852082529284528284209052825290205481565b6103d26103cd3660046144ff565b610b9d565b60405161023491906147df565b6102686103ed366004614597565b610cd7565b6104056104003660046144ff565b610f5e565b604051610234959493929190614832565b61026861042436600461474e565b611029565b61032e61043736600461474e565b611044565b61032e61044a36600461474e565b611243565b61032e61033e36600461474e565b61047061046b3660046144ff565b6112db565b60408051825165ffffffffffff9081168252602093840151169281019290925201610234565b6102896104a436600461486d565b600060208181529281526040808220909352908152205460ff1681565b60016040516102349190614897565b6102686104de3660046144ff565b60009081526003602052604090206002015490565b6102276105013660046144ff565b6113db565b6102896105143660046148bf565b61161e565b610521611636565b6040516001600160c81b03199091168152602001610234565b6102686105483660046148bf565b61164e565b61056061055b36600461490c565b61167a565b604080519384526001600160a01b03909216602084015290820152606001610234565b610560610591366004614952565b61170d565b61032e6117b6565b61032e61033e3660046149ca565b61032e6105ba3660046144ff565b611808565b6102686105cd366004614597565b600560209081526000928352604080842090915290825290205481565b6102896102a73660046149ef565b600081815260036020526040812054606091839160ff161515900361063057604051635435b28960e11b815260040160405180910390fd5b60008381526003602081905260408220908101805491929161065190614a31565b80601f016020809104026020016040519081016040528092919081815260200182805461067d90614a31565b80156106ca5780601f1061069f576101008083540402835291602001916106ca565b820191906000526020600020905b8154815290600101906020018083116106ad57829003601f168201915b50505050508060200190518101906106e29190614a7b565b60018301546020820151919250600091610705916001600160a01b03169061187e565b5094505050505b50919050565b60006301ffc9a760e01b6001600160e01b0319831614806107435750630f632fb360e01b6001600160e01b03198316145b92915050565b60006040516339218f3b60e01b815260040160405180910390fd5b6000806000610772856119c1565b905061077e8682611a2a565b15156000036107a057604051635435b28960e11b815260040160405180910390fd5b6000806107ae888488611ac7565b90999098509650505050505050565b600082815260036020526040812054839160ff909116151590036107f457604051635435b28960e11b815260040160405180910390fd5b8160000361081557604051635435b28960e11b815260040160405180910390fd5b33600090815260016020908152604080832086845290915290205482111561085057604051631e9acf1760e31b815260040160405180910390fd5b600083815260036020526040902060020180548390039055610873338484611ca3565b600083815260036020526040902061088b8482611d2a565b5080546040516340c10f1960e01b8152336004820152602481018590526101009091046001600160a01b0316906340c10f1990604401600060405180830381600087803b1580156108db57600080fd5b505af11580156108ef573d6000803e3d6000fd5b50508254604080518781526101009092046001600160a01b031660208301523393508792507fed8f3f6d485df7980ffa03dd0323e0e62decf810572edd79af06baf0f74efe06910160405180910390a350505050565b60405163cb93550d60e01b815260040160405180910390fd5b600081815260036020526040812054829060ff161515820361099357604051635435b28960e11b815260040160405180910390fd5b6000838152600360209081526040918290206001810154835163313ce56760e01b8152935191936001600160a01b039091169263313ce567926004808401938290030181865afa1580156109eb573d6000803e3d6000fd5b505050506040513d601f19601f82011682018060405250810190610a0f9190614ad5565b949350505050565b600081815260036020526040812054606091839160ff1615159003610a4f57604051635435b28960e11b815260040160405180910390fd5b600083815260036020819052604082209081018054919291610a7090614a31565b80601f0160208091040260200160405190810160405280929190818152602001828054610a9c90614a31565b8015610ae95780601f10610abe57610100808354040283529160200191610ae9565b820191906000526020600020905b815481529060010190602001808311610acc57829003601f168201915b5050505050806020019051810190610b019190614a7b565b60018301546020820151919250600091610b24916001600160a01b03169061187e565b979650505050505050565b336000818152602081815260408083206001600160a01b038716808552908352818420805460ff191687151590811790915591519182529293917fceb576d9f15e4e200fdb5096d64d5dfd667e16def20c1eefd14256d8e3faa267910160405180910390a350600192915050565b610be36040518060a0016040528060001515815260200160006001600160a01b0316815260200160006001600160a01b0316815260200160008152602001606081525090565b600082815260036020818152604092839020835160a081018552815460ff8116151582526001600160a01b03610100909104811693820193909352600182015490921693820193909352600283015460608201529082018054919291608084019190610c4e90614a31565b80601f0160208091040260200160405190810160405280929190818152602001828054610c7a90614a31565b8015610cc75780601f10610c9c57610100808354040283529160200191610cc7565b820191906000526020600020905b815481529060010190602001808311610caa57829003601f168201915b5050505050815250509050919050565b600081815260036020526040812054829060ff1615158203610d0c57604051635435b28960e11b815260040160405180910390fd5b600083815260036020819052604082209081018054919291610d2d90614a31565b80601f0160208091040260200160405190810160405280929190818152602001828054610d5990614a31565b8015610da65780601f10610d7b57610100808354040283529160200191610da6565b820191906000526020600020905b815481529060010190602001808311610d8957829003601f168201915b5050505050806020019051810190610dbe9190614a7b565b805190915065ffffffffffff164211610ddc57600093505050610f57565b6001600160a01b038087166000908152600160209081526040808320898452909152812054845490926101009091041615610e895783546040516370a0823160e01b81526001600160a01b038a81166004830152610100909204909116906370a0823190602401602060405180830381865afa158015610e60573d6000803e3d6000fd5b505050506040513d601f19601f82011682018060405250810190610e849190614af8565b610e8c565b60005b6001600160a01b03891660009081526005602090815260408083208b845290915281205491925081610ebe8486614b27565b610ec89190614b27565b90506000856020015165ffffffffffff164210610ee6575080610f22565b8551610f1f90610efe9065ffffffffffff1642614b3a565b87516020890151610f0f9190614b4d565b84919065ffffffffffff16612014565b90505b82811015610f435760405163efbc9a9760e01b815260040160405180910390fd5b610f4d8382614b3a565b9850505050505050505b5092915050565b6003602081905260009182526040909120805460018201546002830154938301805460ff8416956101009094046001600160a01b0390811695931693929190610fa690614a31565b80601f0160208091040260200160405190810160405280929190818152602001828054610fd290614a31565b801561101f5780601f10610ff45761010080835404028352916020019161101f565b820191906000526020600020905b81548152906001019060200180831161100257829003601f168201915b5050505050905085565b600060405163cb93550d60e01b815260040160405180910390fd5b600082815260036020526040812054839160ff9091161515900361107b57604051635435b28960e11b815260040160405180910390fd5b600083815260036020526040902054839061010090046001600160a01b03166110b757604051635435b28960e11b815260040160405180910390fd5b826000036110d857604051635435b28960e11b815260040160405180910390fd5b60008481526003602052604090819020805491516370a0823160e01b8152336004820152909161010090046001600160a01b031690859082906370a0823190602401602060405180830381865afa158015611137573d6000803e3d6000fd5b505050506040513d601f19601f8201168201806040525081019061115b9190614af8565b101561117a57604051631e9acf1760e31b815260040160405180910390fd5b60028201805486019055604051632770a7eb60e21b8152336004820152602481018690526001600160a01b03821690639dc29fac90604401600060405180830381600087803b1580156111cc57600080fd5b505af11580156111e0573d6000803e3d6000fd5b505050506111ef338787612032565b8154604080518781526101009092046001600160a01b03166020830152339188917f171711504f91229e77cb6057e65ba3567d9072edd7152eb5f11cc13152407da3910160405180910390a3505050505050565b600082815260036020526040812054839160ff9091161515900361127a57604051635435b28960e11b815260040160405180910390fd5b8160000361129b57604051635435b28960e11b815260040160405180910390fd5b60006112a73385610cd7565b9050828110156112ca57604051631e9acf1760e31b815260040160405180910390fd5b6112d58433856120b0565b50505050565b6040805180820190915260008082526020820152600082815260036020526040812054839160ff9091161515900361132657604051635435b28960e11b815260040160405180910390fd5b600083815260036020819052604090912001805461134390614a31565b80601f016020809104026020016040519081016040528092919081815260200182805461136f90614a31565b80156113bc5780601f10611391576101008083540402835291602001916113bc565b820191906000526020600020905b81548152906001019060200180831161139f57829003601f168201915b50505050508060200190518101906113d49190614a7b565b9392505050565b600081815260036020526040812054606091839160ff161515900361141357604051635435b28960e11b815260040160405180910390fd5b60008381526003602081905260408220908101805491929161143490614a31565b80601f016020809104026020016040519081016040528092919081815260200182805461146090614a31565b80156114ad5780601f10611482576101008083540402835291602001916114ad565b820191906000526020600020905b81548152906001019060200180831161149057829003601f168201915b50505050508060200190518101906114c59190614a7b565b905060008260010160009054906101000a90046001600160a01b03166001600160a01b03166395d89b416040518163ffffffff1660e01b8152600401600060405180830381865afa15801561151e573d6000803e3d6000fd5b505050506040513d6000823e601f3d908101601f191682016040526115469190810190614b6c565b6040805160c08101825288815260018601546001600160a01b0316602080830191909152818301849052855165ffffffffffff90811660608401528682015116608083015260008a81526003909152919091206002015460a08201529091506115f36115b1886105f8565b836115bb846122de565b6115cc6115c786612361565b6124a7565b6040516020016115df9493929190614bf5565b6040516020818303038152906040526124a7565b6040516020016116039190614d25565b60405160208183030381529060405295505050505050919050565b60008061162a836119c1565b9050610a0f8482611a2a565b6000611649622624ab60e91b60016125f9565b905090565b60008061165a836119c1565b80516020820151919250859161167191839161267f565b95945050505050565b60008381526003602052604081205481908190869060ff16151582036116b357604051635435b28960e11b815260040160405180910390fd5b856000036116d457604051635435b28960e11b815260040160405180910390fd5b60008781526003602052604090206116ef898989848a61270c565b5496986101009097046001600160a01b031697509495945050505050565b60008060008460000361173357604051635435b28960e11b815260040160405180910390fd5b600061173e876119c1565b905061174a8882611a2a565b151560000361176c57604051635435b28960e11b815260040160405180910390fd5b611777888287611ac7565b5060008181526003602052604090209094506117968a8689848a61270c565b5493996101009094046001600160a01b0316985094965091945050505050565b336001600160a01b037f00000000000000000000000000000000000000000000000000000000000000001614611806576040516366e069e160e01b81523360048201526024015b60405180910390fd5b565b600081815260036020526040812054829160ff9091161515900361183f57604051635435b28960e11b815260040160405180910390fd5b600061184b3384610cd7565b90508060000361186e57604051631e9acf1760e31b815260040160405180910390fd5b6118798333836120b0565b505050565b60608060008060006118978665ffffffffffff1661290e565b925092509250866001600160a01b03166306fdde036040518163ffffffff1660e01b8152600401600060405180830381865afa1580156118db573d6000803e3d6000fd5b505050506040513d6000823e601f3d908101601f191682016040526119039190810190614b6c565b8383836040516020016119199493929190614d6a565b604051602081830303815290604052876001600160a01b03166395d89b416040518163ffffffff1660e01b8152600401600060405180830381865afa158015611966573d6000803e3d6000fd5b505050506040513d6000823e601f3d908101601f1916820160405261198e9190810190614b6c565b8484846040516020016119a49493929190614d6a565b604051602081830303815290604052945094505050509250929050565b60408051808201909152600080825260208201527f0000000000000000000000000000000000000000000000000000000000000000825114611a1657604051635435b28960e11b815260040160405180910390fd5b818060200190518101906107439190614a7b565b805160009065ffffffffffff161580611a4d5750602082015165ffffffffffff16155b15611a5a57506000610743565b816020015165ffffffffffff16826000015165ffffffffffff1603611a8157506000610743565b816020015165ffffffffffff16826000015165ffffffffffff1610611aa857506000610743565b6001600160a01b038316611abe57506000610743565b50600192915050565b6000806000859050611ae2818660000151876020015161267f565b600081815260036020526040812080549295509160ff1615159003611c76578054600160ff1990911681178255810180546001600160a01b0319166001600160a01b038916179055604080518082018252875165ffffffffffff9081168083526020808b015183169381019384528451908101919091529151168183015281518082038301815260609091019091526003820190611b809082614e35565b5060008481526003602081905260409091208254815460ff909116151560ff1982168117835584546001600160a01b03610100918290048116909102610100600160a81b03199092166001600160a81b03199093169290921717825560018085015490830180546001600160a01b0319169190921617905560028084015490820155829181810190611c1490840182614ef4565b505086516020808901516040805165ffffffffffff948516815293909116918301919091526001600160a01b038a1682820152518692507f4ab4dadc5d33a7b415be92bf51b712368ca8cae2ed2024779d3748a0dd229be49181900360600190a25b8415611c8857611c868482611d2a565b505b546001600160a01b0361010090910416915050935093915050565b6001600160a01b038316600090815260016020908152604080832085845290915281208054839290611cd6908490614b3a565b9091555050604080513381526020810183905283916000916001600160a01b038716917f1b3d7edb2e9c0b0e7c525b20aaaef0f5940d2ed71663c7d39266ecafac72885991015b60405180910390a4505050565b805460009061010090046001600160a01b0316611fff577f00000000000000000000000000000000000000000000000000000000000000006001600160a01b0316611d8857604051635435b28960e11b815260040160405180910390fd5b6000826003018054611d9990614a31565b80601f0160208091040260200160405190810160405280929190818152602001828054611dc590614a31565b8015611e125780601f10611de757610100808354040283529160200191611e12565b820191906000526020600020905b815481529060010190602001808311611df557829003601f168201915b5050505050806020019051810190611e2a9190614a7b565b600184015460208201519192506001600160a01b0316906000908190611e5190849061187e565b91509150600082611e6190614fc6565b611e6a83614fc6565b856001600160a01b031663313ce5676040518163ffffffff1660e01b8152600401602060405180830381865afa158015611ea8573d6000803e3d6000fd5b505050506040513d601f19601f82011682018060405250810190611ecc9190614ad5565b60208089015160018c0154604051611f559695949365ffffffffffff9093169230926001600160a01b03169101958652602086019490945260f89290921b6001600160f81b031916604085015260c01b6001600160c01b0319166041840152606090811b6bffffffffffffffffffffffff19908116604985015291901b16605d82015260710190565b60408051601f198184030181529190529050611f9b6001600160a01b037f000000000000000000000000000000000000000000000000000000000000000016828a612b45565b8754610100600160a81b0319166101006001600160a01b03928316810291909117808a55604051919004909116815288907fc687cf6c60d91b1f6be3b5e820ae9a808dc51f7b3bf4aab1967232b2f71c97d49060200160405180910390a250505050505b505461010090046001600160a01b0316919050565b600082600019048411830215820261202b57600080fd5b5091020490565b6001600160a01b038316600090815260016020908152604080832085845290915281208054839290612065908490614b27565b9091555050604080513381526020810183905283916001600160a01b038616916000917f1b3d7edb2e9c0b0e7c525b20aaaef0f5940d2ed71663c7d39266ecafac7288599101611d1d565b60008381526003602090815260408083206001600160a01b038087168552600184528285208886529093529083205481549193909290916101009004161561216a5782546040516370a0823160e01b81526001600160a01b038781166004830152610100909204909116906370a0823190602401602060405180830381865afa158015612141573d6000803e3d6000fd5b505050506040513d601f19601f820116820180604052508101906121659190614af8565b61216d565b60005b9050600082851161217e5784612180565b825b9050600061218e8287614b3a565b9050828111156121b157604051631e9acf1760e31b815260040160405180910390fd5b6001600160a01b03871660009081526005602090815260408083208b8452909152812080548892906121e4908490614b27565b90915550508115612205576002850180548390039055612205878984611ca3565b8015612277578454604051632770a7eb60e21b81526001600160a01b0389811660048301526024820184905261010090920490911690639dc29fac90604401600060405180830381600087803b15801561225e57600080fd5b505af1158015612272573d6000803e3d6000fd5b505050505b6001850154612290906001600160a01b03168888612c9e565b866001600160a01b0316887fa18626381edd3d7a115c4a09f678bb79665034a541affcdba9fe65a1d3d107ee886040516122cc91815260200190565b60405180910390a35050505050505050565b60606122ed8260000151612d1f565b6122fa8360200151612db1565b8360400151612314856060015165ffffffffffff16612d1f565b612329866080015165ffffffffffff16612d1f565b6123368760a00151612d1f565b60405160200161234b96959493929190614fea565b6040516020818303038152906040529050919050565b60606123da604051806040016040528060048152602001636465667360e01b8152506040518060200160405280600081525061239b612dc7565b6123a3612e40565b6123ab612ef5565b6123b3612fc8565b6040516020016123c6949392919061520e565b604051602081830303815290604052613184565b61240b6040518060800160405280604b8152602001615e3c604b9139604051806020016040528060008152506131b5565b61243c6040518060a00160405280606d8152602001615ee8606d9139604051806020016040528060008152506131b5565b61244985604001516131de565b61246b866060015165ffffffffffff16876080015165ffffffffffff16613292565b61247d87606001518860800151613565565b61248561360f565b8851612490906136ca565b60405160200161234b989796959493929190615265565b606081516000036124c657505060408051602081019091526000815290565b6000604051806060016040528060408152602001615dfc60409139905060006003845160026124f59190614b27565b6124ff91906153a8565b61250a9060046153bc565b6001600160401b038111156125215761252161461e565b6040519080825280601f01601f19166020018201604052801561254b576020820181803683370190505b509050600182016020820185865187015b808210156125b7576003820191508151603f8160121c168501518453600184019350603f81600c1c168501518453600184019350603f8160061c168501518453600184019350603f811685015184535060018301925061255c565b50506003865106600181146125d357600281146125e6576125ee565b603d6001830353603d60028303536125ee565b603d60018303535b509195945050505050565b600080612607600a846153d3565b6126129060306153f5565b60f81b90506000612624600a8561540e565b61262f9060306153f5565b6040516001600160f81b0319808516602083015260f89290921b91821660218201526001600160d81b03198716602282015290915060270160405160208183030381529060405261167190615430565b6000612689611636565b604080516001600160a01b038716602082015265ffffffffffff80871692820192909252908416606082015260800160408051601f198184030181529082905280516020918201206001600160c81b031990931690820152602781019190915260470160408051601f198184030181529190528051602090910120949350505050565b801561271e5761271c8483611d2a565b505b60018201546040516370a0823160e01b81523060048201526001600160a01b039091169060009082906370a0823190602401602060405180830381865afa15801561276d573d6000803e3d6000fd5b505050506040513d601f19601f820116820180604052508101906127919190614af8565b90506127a86001600160a01b0383163330886137ff565b6127b28582614b27565b6040516370a0823160e01b81523060048201526001600160a01b038416906370a0823190602401602060405180830381865afa1580156127f6573d6000803e3d6000fd5b505050506040513d601f19601f8201168201806040525081019061281a9190614af8565b101561284a576001840154604051635f8b555b60e11b81526001600160a01b0390911660048201526024016117fd565b505080156128f257815461010090046001600160a01b031661287f57604051635435b28960e11b815260040160405180910390fd5b81546040516340c10f1960e01b81526001600160a01b038781166004830152602482018690526101009092049091169081906340c10f1990604401600060405180830381600087803b1580156128d457600080fd5b505af11580156128e8573d6000803e3d6000fd5b5050505050612907565b60028201805484019055612907858585612032565b5050505050565b6060808060008080806129246201518089615467565b60050b905060006129388262010bd96154a4565b6129459062253d8c6154a4565b9050600062023ab16129588360046154cc565b61296291906154fc565b905060046129738262023ab16154cc565b61297e9060036154a4565b61298891906154fc565b612992908361552a565b9150600062164b096129a58460016154a4565b6129b190610fa06154cc565b6129bb91906154fc565b905060046129cb826105b56154cc565b6129d591906154fc565b6129df908461552a565b6129ea90601f6154a4565b9250600061098f6129fc8560506154cc565b612a0691906154fc565b905060006050612a188361098f6154cc565b612a2291906154fc565b612a2c908661552a565b9050612a39600b836154fc565b9450612a4685600c6154cc565b612a518360026154a4565b612a5b919061552a565b91508483612a6a60318761552a565b612a759060646154cc565b612a7f91906154a4565b612a8991906154a4565b9850909650945060009350612aae9250612aa9915061271090508661554a565b613894565b90506000600a8410612ac857612ac384613894565b612af1565b612ad184613894565b604051602001612ae1919061555e565b6040516020818303038152906040525b90506000600a8410612b0b57612b0684613894565b612b34565b612b1484613894565b604051602001612b24919061555e565b6040516020818303038152906040525b929a91995091975095505050505050565b8151604051613d6160f01b8152603a820160f090811b6002838101919091526680600b3d3981f360c81b600484015264363d3d376160d81b600b8401528301901b6010820181905268603836393d3d3d366160b81b6012830152601b82015262013d7360e81b601d820152606085901b6020808301919091526e5af43d82803e903d91603657fd5bf360881b60348301526000929160458301918390604383019088015b60208310612c085780518252601f199092019160209182019101612be9565b60006001846020036101000a0319905080825116835283830192508660f01b83526f67363d3d37363d34f03d5260086018f3600052886010806000f580612c575763ebfef1886000526004601cfd5b8060145261d69460005260016034536017601e20985060008088886000855af115893b151715612c8f57638f86d2f16000526004601cfd5b50505050505050509392505050565b600060405163a9059cbb60e01b81526001600160a01b0384166004820152826024820152602060006044836000895af13d15601f3d11600160005114161716915050806112d55760405162461bcd60e51b815260206004820152600f60248201526e1514905394d1915497d19052531151608a1b60448201526064016117fd565b60606000612d2c836139bf565b60010190506000816001600160401b03811115612d4b57612d4b61461e565b6040519080825280601f01601f191660200182016040528015612d75576020820181803683370190505b5090508181016020015b600019016f181899199a1a9b1b9c1cb0b131b232b360811b600a86061a8153600a8504945084612d7f57509392505050565b60606107436001600160a01b0383166014613a97565b6060611649612e14604051806040016040528060028152602001611a5960f21b8152506040518060400160405280600c81526020016b199d5b1b11dc98591a595b9d60a21b815250613c0e565b604051602001612e249190615587565b604051602081830303815290604052612e3b613c3a565b613e33565b6060611649612e8f604051806040016040528060028152602001611a5960f21b8152506040518060400160405280600e81526020016d066756c6c4772616469656e7439360941b815250613c0e565b612ee4604051806040016040528060118152602001706772616469656e745472616e73666f726d60781b8152506040518060400160405280600a815260200169726f746174652839302960b01b815250613c0e565b604051602001612e249291906155a3565b6060611649612f4b604051806040016040528060028152602001611a5960f21b81525060405180604001604052806015815260200174066756c6c4772616469656e7452657665727365393605c1b815250613c0e565b612fa0604051806040016040528060118152602001706772616469656e745472616e73666f726d60781b8152506040518060400160405280600a815260200169726f746174652839302960b01b815250613c0e565b604051602001612fb19291906155a3565b604051602081830303815290604052612e3b613e66565b606061164961301a604051806040016040528060028152602001611a5960f21b81525060405180604001604052806011815260200170189b1d5951dc99595b91dc98591a595b9d607a1b815250613c0e565b61306f6040518060400160405280600d81526020016c6772616469656e74556e69747360981b8152506040518060400160405280600e81526020016d7573657253706163654f6e55736560901b815250613c0e565b6040516020016130809291906155a3565b6040516020818303038152906040526130d4601460405180604001604052806012815260200171726762283131302c203134382c203234302960701b81525060405180602001604052806000815250614045565b613119602860405180604001604052806012815260200171726762283131382c203138392c203234322960701b81525060405180602001604052806000815250614045565b61315e603c60405180604001604052806012815260200171726762283230362c203234342c203131372960701b81525060405180602001604052806000815250614045565b604051602001613170939291906155d2565b604051602081830303815290604052613e33565b60608383838660405160200161319d9493929190615615565b60405160208183030381529060405290509392505050565b60606113d4604051806040016040528060048152602001631c9958dd60e21b8152508484613184565b6060613240604051806080016040528060428152602001615d716042913960405160200161320c91906156ae565b60408051601f19818403018152828201909152600e82526d4c696e6561722056657374696e6760901b602083015290614109565b613281604051806080016040528060428152602001615d716042913960405160200161326c91906156f3565b60405160208183030381529060405284614109565b60405160200161234b9291906155a3565b6060428180600083871115806132a95760006132d2565b6132b38888614b3a565b6132bd8987614b3a565b6132c89060646153bc565b6132d291906153a8565b9150606482116132e257816132e5565b60645b915061336b8161331157604051806040016040528060048152602001636772657960e01b81525061333d565b60405180604001604052806012815260200171726762283131302c203134382c203234302960701b8152505b60405160200161334d9190615738565b60408051601f19818403018152602083019091526000825290614132565b93506133d68260641461339a57604051806040016040528060048152602001636772657960e01b8152506133c6565b60405180604001604052806012815260200171726762283230362c203234342c203131372960701b8152505b60405160200161334d91906157ac565b92506000905060646133e98360a86153bc565b6133f391906153a8565b9050600061340a61340583603e614b27565b612d1f565b905060006134228260405160200161334d9190615822565b905060006134588360405160200161343a91906158ad565b60408051601f1981840301815260208301909152600082529061415b565b905060006134c260405160200161334d907f78313d223633222079313d22313635222078323d22323330222079323d22313681527f3522207374726f6b653d226772657922207374726f6b652d77696474683d22346020820152601160f91b604082015260410190565b905061355560405180602001604052806000815250898386600f8b106134f0576134eb8a614186565b613501565b604051806020016040528060008152505b8c60058d10806135115750605f8d115b61351b578861352c565b604051806020016040528060008152505b60405160200161354196959493929190615919565b60405160208183030381529060405261429d565b9c9b505050505050505050505050565b606060008061357485856142c3565b915091506135b9604051806080016040528060428152602001615d71604291396040516020016135a49190615998565b60405160208183030381529060405283614109565b6135e5604051806080016040528060428152602001615d71604291396040516020016135a491906159d0565b6040516020016135f69291906155a3565b6040516020818303038152906040529250505092915050565b6060613642604051806080016040528060498152602001615db360499139604051806020016040528060008152506131b5565b6136736040518060a0016040528060618152602001615f5560619139604051806020016040528060008152506131b5565b6136a46040518060a0016040528060618152602001615e8760619139604051806020016040528060008152506131b5565b6040516020016136b6939291906155d2565b604051602081830303815290604052905090565b6060613797604051806080016040528060428152602001615d71604291396040516020016136f89190615a08565b6040516020818303038152906040526004805461371490614a31565b80601f016020809104026020016040519081016040528092919081815260200182805461374090614a31565b801561378d5780601f106137625761010080835404028352916020019161378d565b820191906000526020600020905b81548152906001019060200180831161377057829003601f168201915b5050505050614109565b613281604051806080016040528060428152602001615d71604291396040516020016137c39190615a40565b6040516020818303038152906040526137db85614347565b6040516020016137eb9190615a78565b604051602081830303815290604052614109565b60006040516323b872dd60e01b81526001600160a01b03851660048201526001600160a01b03841660248201528260448201526020600060648360008a5af13d15601f3d11600160005114161716915050806129075760405162461bcd60e51b81526020600482015260146024820152731514905394d1915497d19493d357d1905253115160621b60448201526064016117fd565b6060816000036138bb5750506040805180820190915260018152600360fc1b602082015290565b8160005b81156138e557806138cf81615aa4565b91506138de9050600a836153a8565b91506138bf565b6000816001600160401b038111156138ff576138ff61461e565b6040519080825280601f01601f191660200182016040528015613929576020820181803683370190505b509050815b85156139b65761393f600182614b3a565b9050600061394e600a886153a8565b61395990600a6153bc565b6139639088614b3a565b61396e9060306153f5565b905060008160f81b90508084848151811061398b5761398b615abd565b60200101906001600160f81b031916908160001a9053506139ad600a896153a8565b9750505061392e565b50949350505050565b60008072184f03e93ff9f4daa797ed6e38ed64bf6a1f0160401b83106139fe5772184f03e93ff9f4daa797ed6e38ed64bf6a1f0160401b830492506040015b6d04ee2d6d415b85acef81000000008310613a2a576d04ee2d6d415b85acef8100000000830492506020015b662386f26fc100008310613a4857662386f26fc10000830492506010015b6305f5e1008310613a60576305f5e100830492506008015b6127108310613a7457612710830492506004015b60648310613a86576064830492506002015b600a83106107435760010192915050565b6060826000613aa78460026153bc565b613ab2906002614b27565b6001600160401b03811115613ac957613ac961461e565b6040519080825280601f01601f191660200182016040528015613af3576020820181803683370190505b509050600360fc1b81600081518110613b0e57613b0e615abd565b60200101906001600160f81b031916908160001a905350600f60fb1b81600181518110613b3d57613b3d615abd565b60200101906001600160f81b031916908160001a9053506000613b618560026153bc565b613b6c906001614b27565b90505b6001811115613be4576f181899199a1a9b1b9c1cb0b131b232b360811b83600f1660108110613ba057613ba0615abd565b1a60f81b828281518110613bb657613bb6615abd565b60200101906001600160f81b031916908160001a90535060049290921c91613bdd81615ad3565b9050613b6f565b508115610a0f5760405163e22e27eb60e01b815260048101869052602481018590526044016117fd565b60608282604051602001613c23929190615aea565b604051602081830303815290604052905092915050565b6060613c81600260405180604001604052806012815260200171726762283131302c203134382c203234302960701b81525060405180602001604052806000815250614045565b613cc6600a60405180604001604052806012815260200171726762283131382c203138392c203234322960701b81525060405180602001604052806000815250614045565b613d0b602060405180604001604052806012815260200171726762283230362c203234342c203131372960701b81525060405180602001604052806000815250614045565b613d50603160405180604001604052806012815260200171726762283234332c203234342c203138392960701b81525060405180602001604052806000815250614045565b613d95603460405180604001604052806012815260200171726762283234332c203234342c203138392960701b81525060405180602001604052806000815250614045565b613dd9604f60405180604001604052806011815260200170726762283234362c203137322c2038342960781b81525060405180602001604052806000815250614045565b613e1d606460405180604001604052806011815260200170726762283234322c203130332c2036342960781b81525060405180602001604052806000815250614045565b6040516020016136b69796959493929190615b3f565b60606113d46040518060400160405280600e81526020016d1b1a5b99585c91dc98591a595b9d60921b8152508484613184565b6060613eac600260405180604001604052806011815260200170726762283234322c203130332c2036342960781b81525060405180602001604052806000815250614045565b613ef0601560405180604001604052806011815260200170726762283234362c203137322c2038342960781b81525060405180602001604052806000815250614045565b613f35603060405180604001604052806012815260200171726762283234332c203234342c203138392960701b81525060405180602001604052806000815250614045565b613f7a603360405180604001604052806012815260200171726762283234332c203234342c203138392960701b81525060405180602001604052806000815250614045565b613fbf604460405180604001604052806012815260200171726762283230362c203234342c203131372960701b81525060405180602001604052806000815250614045565b614004605a60405180604001604052806012815260200171726762283131382c203138392c203234322960701b81525060405180602001604052806000815250614045565b613e1d606460405180604001604052806012815260200171726762283131302c203134382c203234302960701b815250604051806020016040528060008152505b6060610a0f60405180604001604052806004815260200163073746f760e41b8152506140936040518060400160405280600a81526020016939ba37b816b1b7b637b960b11b81525086613c0e565b6140e2604051806040016040528060068152602001651bd9999cd95d60d21b8152506140be8961435e565b6040516020016140ce9190615bd1565b604051602081830303815290604052613c0e565b856040516020016140f593929190615bf6565b604051602081830303815290604052614480565b60606113d4604051806040016040528060048152602001631d195e1d60e21b8152508484613184565b60606113d4604051806040016040528060048152602001636c696e6560e01b8152508484613184565b60606113d460405180604001604052806006815260200165636972636c6560d01b8152508484613184565b60606107436040516020016141fe907f783d2236322220793d22313631222077696474683d223132222068656967687481527f3d2238222066696c6c3d2275726c2823626c7565477265656e4772616469656e6020820152703a149110393c1e911a1110393c9e911a1160791b604082015260510190565b60408051601f198184030181528282019091526007825266616e696d61746560c81b60208301529061429890614244601061423a88603e614b27565b6134059190614b3a565b61426960a86142548960056153bc565b61425e91906153a8565b613405906001614b27565b60405160200161427a929190615c50565b60408051601f19818403018152602083019091526000825290613184565b6131b5565b60606113d4604051806040016040528060018152602001606760f81b8152508484613184565b60608060008060006142d48761290e565b92509250925060008060006142e88961290e565b92509250925085858560405160200161430393929190615ce6565b60405160208183030381529060405283838360405160200161432793929190615ce6565b604051602081830303815290604052975097505050505050509250929050565b60606107438261435684614495565b600101613a97565b6060816000036143855750506040805180820190915260018152600360fc1b602082015290565b8160005b81156143af578061439981615aa4565b91506143a89050600a836153a8565b9150614389565b6000816001600160401b038111156143c9576143c961461e565b6040519080825280601f01601f1916602001820160405280156143f3576020820181803683370190505b509050815b85156139b657614409600182614b3a565b90506000614418600a886153a8565b61442390600a6153bc565b61442d9088614b3a565b6144389060306153f5565b905060008160f81b90508084848151811061445557614455615abd565b60200101906001600160f81b031916908160001a905350614477600a896153a8565b975050506143f8565b60608282604051602001613c23929190615d18565b600080608083901c156144ad5760809290921c916010015b604083901c156144c25760409290921c916008015b602083901c156144d75760209290921c916004015b601083901c156144ec5760109290921c916002015b600883901c156107435760010192915050565b60006020828403121561451157600080fd5b5035919050565b60005b8381101561453357818101518382015260200161451b565b50506000910152565b60008151808452614554816020860160208601614518565b601f01601f19169290920160200192915050565b6020815260006113d4602083018461453c565b80356001600160a01b038116811461459257600080fd5b919050565b600080604083850312156145aa57600080fd5b6145b38361457b565b946020939093013593505050565b6000602082840312156145d357600080fd5b81356001600160e01b0319811681146113d457600080fd5b60008060006060848603121561460057600080fd5b6146098461457b565b95602085013595506040909401359392505050565b634e487b7160e01b600052604160045260246000fd5b604051601f8201601f191681016001600160401b038111828210171561465c5761465c61461e565b604052919050565b60006001600160401b0382111561467d5761467d61461e565b50601f01601f191660200190565b600082601f83011261469c57600080fd5b81356146af6146aa82614664565b614634565b8181528460208386010111156146c457600080fd5b816020850160208301376000918101602001919091529392505050565b8035801515811461459257600080fd5b60008060006060848603121561470657600080fd5b61470f8461457b565b925060208401356001600160401b0381111561472a57600080fd5b6147368682870161468b565b925050614745604085016146e1565b90509250925092565b6000806040838503121561476157600080fd5b50508035926020909101359150565b6000806040838503121561478357600080fd5b61478c8361457b565b915061479a602084016146e1565b90509250929050565b6000806000606084860312156147b857600080fd5b6147c18461457b565b92506147cf6020850161457b565b9150604084013590509250925092565b602081528151151560208201526000602083015160018060a01b038082166040850152806040860151166060850152505060608301516080830152608083015160a080840152610a0f60c084018261453c565b85151581526001600160a01b038581166020830152841660408201526060810183905260a060808201819052600090610b249083018461453c565b6000806040838503121561488057600080fd5b6148898361457b565b915061479a6020840161457b565b60208101600483106148b957634e487b7160e01b600052602160045260246000fd5b91905290565b600080604083850312156148d257600080fd5b6148db8361457b565b915060208301356001600160401b038111156148f657600080fd5b6149028582860161468b565b9150509250929050565b6000806000806080858703121561492257600080fd5b61492b8561457b565b93506020850135925060408501359150614947606086016146e1565b905092959194509250565b600080600080600060a0868803121561496a57600080fd5b6149738661457b565b94506149816020870161457b565b935060408601356001600160401b0381111561499c57600080fd5b6149a88882890161468b565b935050606086013591506149be608087016146e1565b90509295509295909350565b6000806000606084860312156149df57600080fd5b833592506147cf6020850161457b565b60008060008060808587031215614a0557600080fd5b614a0e8561457b565b9350614a1c6020860161457b565b93969395505050506040820135916060013590565b600181811c90821680614a4557607f821691505b60208210810361070c57634e487b7160e01b600052602260045260246000fd5b805165ffffffffffff8116811461459257600080fd5b600060408284031215614a8d57600080fd5b604051604081018181106001600160401b0382111715614aaf57614aaf61461e565b604052614abb83614a65565b8152614ac960208401614a65565b60208201529392505050565b600060208284031215614ae757600080fd5b815160ff811681146113d457600080fd5b600060208284031215614b0a57600080fd5b5051919050565b634e487b7160e01b600052601160045260246000fd5b8082018082111561074357610743614b11565b8181038181111561074357610743614b11565b65ffffffffffff828116828216039080821115610f5757610f57614b11565b600060208284031215614b7e57600080fd5b81516001600160401b03811115614b9457600080fd5b8201601f81018413614ba557600080fd5b8051614bb36146aa82614664565b818152856020838501011115614bc857600080fd5b611671826020830160208601614518565b60008151614beb818560208601614518565b9290920192915050565b693d913730b6b2911d101160b11b81528451600090614c1b81600a850160208a01614518565b72111610113232b9b1b934b83a34b7b7111d101160691b600a918401918201528551614c4e81601d840160208a01614518565b7f20536f756c626f756e64204c696e6561722056657374696e6720446572697661601d92909101918201527f7469766520546f6b656e2e20506f776572656420627920417869732e222c2022603d8201526c030ba3a3934b13aba32b9911d1609d1b605d8201528451614cc881606a840160208901614518565b7f2c2022696d616765223a2022646174613a696d6167652f7376672b786d6c3b62606a929091019182015265185cd94d8d0b60d21b608a820152614d0f6090820185614bd9565b61227d60f01b8152600201979650505050505050565b7f646174613a6170706c69636174696f6e2f6a736f6e3b6261736536342c000000815260008251614d5d81601d850160208701614518565b91909101601d0192915050565b60008551614d7c818460208a01614518565b600160fd1b9083019081528551614d9a816001840160208a01614518565b808201915050602d60f81b8060018301528551614dbe816002850160208a01614518565b60029201918201528351614dd9816003840160208801614518565b016003019695505050505050565b601f82111561187957600081815260208120601f850160051c81016020861015614e0e5750805b601f850160051c820191505b81811015614e2d57828155600101614e1a565b505050505050565b81516001600160401b03811115614e4e57614e4e61461e565b614e6281614e5c8454614a31565b84614de7565b602080601f831160018114614e975760008415614e7f5750858301515b600019600386901b1c1916600185901b178555614e2d565b600085815260208120601f198616915b82811015614ec657888601518255948401946001909101908401614ea7565b5085821015614ee45787850151600019600388901b60f8161c191681555b5050505050600190811b01905550565b818103614eff575050565b614f098254614a31565b6001600160401b03811115614f2057614f2061461e565b614f2e81614e5c8454614a31565b6000601f821160018114614f625760008315614f4a5750848201545b600019600385901b1c1916600184901b178455612907565b600085815260209020601f19841690600086815260209020845b83811015614f9c5782860154825560019586019590910190602001614f7c565b5085831015614ee45793015460001960f8600387901b161c19169092555050600190811b01905550565b8051602080830151919081101561070c5760001960209190910360031b1b16919050565b7f5b7b2274726169745f74797065223a22546f6b656e204944222c2276616c7565815262111d1160e91b60208201526000875161502e816023850160208c01614518565b62089f4b60ea1b6023918401918201527f7b2274726169745f74797065223a224261736520546f6b656e222c2276616c7560268201526332911d1160e11b6046820152875161508481604a840160208c01614518565b01615097604a820162089f4b60ea1b9052565b7f7b2274726169745f74797065223a224261736520546f6b656e2053796d626f6c604d8201526b111610113b30b63ab2911d1160a11b606d8201526150df6079820188614bd9565b62089f4b60ea1b815290507f7b2274726169745f74797065223a2256657374696e67205374617274222c226460038201527f6973706c61795f74797065223a2264617465222c2276616c7565223a220000006023820152615144604082015b87614bd9565b62089f4b60ea1b815290507f7b2274726169745f74797065223a2256657374696e6720456e64222c2264697360038201527f706c61795f74797065223a2264617465222c2276616c7565223a22000000000060238201526151a8603e820186614bd9565b62089f4b60ea1b815290507f7b2274726169745f74797065223a22546f74616c20537570706c79222c227661600382015265363ab2911d1160d11b60238201526151f56029820185614bd9565b62227d5d60e81b81526003019998505050505050505050565b60008551615220818460208a01614518565b855190830190615234818360208a01614518565b8551910190615247818360208901614518565b845191019061525a818360208801614518565b019695505050505050565b7f3c73766720786d6c6e733d22687474703a2f2f7777772e77332e6f72672f323081527f30302f7376672220786d6c6e733a786c696e6b3d22687474703a2f2f7777772e60208201527f77332e6f72672f313939392f786c696e6b222076696577426f783d2230203020604082015268191c98101a9818111f60b91b6060820152600060698a516152fc8183860160208f01614518565b8a51908401906153128184840160208f01614518565b8a519101906153278184840160208e01614518565b895191019061533c8184840160208d01614518565b88519101906153518184840160208c01614518565b61536b61513e61536585848601018b614bd9565b89614bd9565b9250505061538181651e17b9bb339f60d11b9052565b6006019a9950505050505050505050565b634e487b7160e01b600052601260045260246000fd5b6000826153b7576153b7615392565b500490565b808202811582820484141761074357610743614b11565b600060ff8316806153e6576153e6615392565b8060ff84160491505092915050565b60ff818116838216019081111561074357610743614b11565b600060ff83168061542157615421615392565b8060ff84160691505092915050565b805160208201516001600160c81b0319808216929190600783101561545f5780818460070360031b1b83161693505b505050919050565b60008160050b8360050b8061547e5761547e615392565b657fffffffffff1982146000198214161561549b5761549b614b11565b90059392505050565b80820182811260008312801582168215821617156154c4576154c4614b11565b505092915050565b80820260008212600160ff1b841416156154e8576154e8614b11565b818105831482151761074357610743614b11565b60008261550b5761550b615392565b600160ff1b82146000198414161561552557615525614b11565b500590565b8181036000831280158383131683831282161715610f5757610f57614b11565b60008261555957615559615392565b500690565b600360fc1b81526000825161557a816001850160208701614518565b9190910160010192915050565b60008251615599818460208701614518565b9190910192915050565b600083516155b5818460208801614518565b8351908301906155c9818360208801614518565b01949350505050565b600084516155e4818460208901614518565b8451908301906155f8818360208901614518565b845191019061560b818360208801614518565b0195945050505050565b600f60fa1b815260008551615631816001850160208a01614518565b600160fd1b6001918401918201528551615652816002840160208a01614518565b808201915050601f60f91b8060028301528551615676816003850160208a01614518565b613c2f60f01b600393909101928301528451615699816005850160208901614518565b60059201918201526006019695505050505050565b7f783d223134352220793d2234302220666f6e742d73697a653d223230222000008152600082516156e681601e850160208701614518565b91909101601e0192915050565b7f783d223134352220793d223130302220666f6e742d73697a653d22353622200081526000825161572b81601f850160208701614518565b91909101601f0192915050565b7f78313d223630222079313d22313535222078323d223630222079323d22313735815269111039ba3937b5b29e9160b11b60208201526000825161578381602a850160208701614518565b71111039ba3937b5b296bbb4b23a341e911b1160711b602a939091019283015250603c01919050565b7f78313d22323330222079313d22313535222078323d22323330222079323d223181526b1b9a911039ba3937b5b29e9160a11b6020820152600082516157f981602c850160208701614518565b71111039ba3937b5b296bbb4b23a341e911b1160711b602c939091019283015250603e01919050565b743c189e911b1911103c989e91189b1a91103c191e9160591b81528151600090615853816015850160208701614518565b7f222079323d2231363522207374726f6b653d2275726c2823626c75654772656560159390910192830152507f6e4772616469656e742922207374726f6b652d77696474683d223622000000006035820152605101919050565b6331bc1e9160e11b815281516000906158cd816004850160208701614518565b7f222063793d223136352220723d2236222066696c6c3d2275726c2823626c756560049390910192830152506e23b932b2b723b930b234b2b73a149160891b6024820152603301919050565b60008751602061592c8285838d01614518565b88519184019161593f8184848d01614518565b88519201916159518184848c01614518565b87519201916159638184848b01614518565b86519201916159758184848a01614518565b85519201916159878184848901614518565b919091019998505050505050505050565b7f783d2236302220793d223230302220666f6e742d73697a653d223132222000008152600082516156e681601e850160208701614518565b7f783d223233302220793d223230302220666f6e742d73697a653d22313222200081526000825161572b81601f850160208701614518565b7f783d223134352220793d223436302220666f6e742d73697a653d22313022200081526000825161572b81601f850160208701614518565b7f783d223134352220793d223438302220666f6e742d73697a653d2236222000008152600082516156e681601e850160208701614518565b63024a21d160e51b815260008251615a97816004850160208701614518565b9190910160040192915050565b600060018201615ab657615ab6614b11565b5060010190565b634e487b7160e01b600052603260045260246000fd5b600081615ae257615ae2614b11565b506000190190565b60008351615afc818460208801614518565b603d60f81b908301908152601160f91b60018201528351615b24816002840160208801614518565b61011160f51b60029290910191820152600401949350505050565b600088516020615b528285838e01614518565b895191840191615b658184848e01614518565b8951920191615b778184848d01614518565b8851920191615b898184848c01614518565b8751920191615b9b8184848b01614518565b8651920191615bad8184848a01614518565b8551920191615bbf8184848901614518565b919091019a9950505050505050505050565b60008251615be3818460208701614518565b602560f81b920191825250600101919050565b60008451615c08818460208901614518565b8083019050600160fd1b8082528551615c28816001850160208a01614518565b60019201918201528351615c43816002840160208801614518565b0160020195945050505050565b7f6174747269627574654e616d653d2278222076616c7565733d2236323b000000815260008351615c8881601d850160208801614518565b671d9110323ab91e9160c11b601d918401918201528351615cb0816025840160208801614518565b7f732220726570656174436f756e743d22696e646566696e69746522000000000060259290910191820152604001949350505050565b60008451615cf8818460208901614518565b8083019050602d60f81b8082528551615c28816001850160208a01614518565b600f60fa1b815260008351615d34816001850160208801614518565b600160fd1b6001918401918201528351615d55816002840160208801614518565b61179f60f11b6002929091019182015260040194935050505056fe666f6e742d66616d696c793d22274d656e6c6f272c206d6f6e6f7370616365222066696c6c3d2277686974652220746578742d616e63686f723d226d6964646c6522783d223134332220793d22323430222077696474683d223622206865696768743d22313235222066696c6c3d2275726c282366756c6c4772616469656e7452657665727365393029224142434445464748494a4b4c4d4e4f505152535455565758595a6162636465666768696a6b6c6d6e6f707172737475767778797a303132333435363738392b2f783d22302220793d2230222077696474683d2232393022206865696768743d22353030222066696c6c3d227267622833302c2033302c20333029222072783d223235222072793d22323522783d223230362220793d22323434222077696474683d223622206865696768743d22313235222066696c6c3d2275726c282366756c6c4772616469656e7439302922207472616e73666f726d3d22726f7461746528363020313435203235302922783d22382220793d2238222077696474683d2232373422206865696768743d22343834222066696c6c3d226e6f6e6522207374726f6b653d2275726c282366756c6c4772616469656e742922207374726f6b652d77696474683d2232222072783d223230222072793d22323022783d2237392220793d22323436222077696474683d223622206865696768743d22313235222066696c6c3d2275726c282366756c6c4772616469656e7439302922207472616e73666f726d3d22726f74617465282d363020313435203235302922a2646970667358221220449539f39f663b74be06e619878676a1d4fb2541022af4478262164d71bdd21664736f6c63430008130033608060405234801561001057600080fd5b5061073d806100206000396000f3fe608060405234801561001057600080fd5b50600436106101005760003560e01c806370a0823111610097578063a457c2d711610066578063a457c2d714610210578063a9059cbb14610123578063dd62ed3e14610223578063e184c9be1461024e57600080fd5b806370a08231146101cd5780638da5cb5b146101ed57806395d89b41146101f55780639dc29fac146101fd57600080fd5b8063313ce567116100d3578063313ce5671461016b578063395093511461018557806340c10f19146101985780636f307dc3146101ad57600080fd5b806306fdde0314610105578063095ea7b31461012357806318160ddd1461014657806323b872dd1461015d575b600080fd5b61010d61026d565b60405161011a91906105a6565b60405180910390f35b610136610131366004610610565b61029f565b604051901515815260200161011a565b61014f60005481565b60405190815260200161011a565b61013661013136600461063a565b6101736102ba565b60405160ff909116815260200161011a565b610136610193366004610610565b6102cb565b6101ab6101a6366004610610565b610369565b005b6101b56103b0565b6040516001600160a01b03909116815260200161011a565b61014f6101db366004610676565b60016020526000908152604090205481565b6101b56103bc565b61010d6103c8565b6101ab61020b366004610610565b6103d4565b61013661021e366004610610565b610417565b61014f610231366004610698565b600260209081526000928352604080842090915290825290205481565b61025661044c565b60405165ffffffffffff909116815260200161011a565b60606102796000610458565b60405160200161028b91815260200190565b604051602081830303815290604052905090565b60006040516339218f3b60e01b815260040160405180910390fd5b60006102c6604061046e565b905090565b3360009081526002602090815260408083206001600160a01b03861684529091528120805483919083906103009084906106e1565b90915550503360008181526002602090815260408083206001600160a01b038816808552908352928190205490519081529192917f8c5be1e5ebec7d5bd14f71427d1e84f3dd0314c0f7b2291e5b200ac8c7c3b925910160405180910390a35060015b92915050565b6103716103bc565b6001600160a01b0316336001600160a01b0316146103a2576040516339218f3b60e01b815260040160405180910390fd5b6103ac8282610487565b5050565b60006102c6605d6104f2565b60006102c660496104f2565b60606102796020610458565b6103dc6103bc565b6001600160a01b0316336001600160a01b03161461040d576040516339218f3b60e01b815260040160405180910390fd5b6103ac828261050b565b3360009081526002602090815260408083206001600160a01b03861684529091528120805483919083906103009084906106f4565b60006102c6604161057c565b600080610463610595565b929092013592915050565b600080610479610595565b929092013560f81c92915050565b8060008082825461049891906106e1565b90915550506001600160a01b0382166000818152600160209081526040808320805486019055518481527fddf252ad1be2c89b69c2b068fc378daa952ba7f163c4a11628f55a4df523b3ef91015b60405180910390a35050565b6000806104fd610595565b929092013560601c92915050565b6001600160a01b038216600090815260016020526040812080548392906105339084906106f4565b90915550506000805482900381556040518281526001600160a01b038416907fddf252ad1be2c89b69c2b068fc378daa952ba7f163c4a11628f55a4df523b3ef906020016104e6565b600080610587610595565b929092013560c01c92915050565b600119368181013560f01c90030190565b600060208083528351808285015260005b818110156105d3578581018301518582016040015282016105b7565b506000604082860101526040601f19601f8301168501019250505092915050565b80356001600160a01b038116811461060b57600080fd5b919050565b6000806040838503121561062357600080fd5b61062c836105f4565b946020939093013593505050565b60008060006060848603121561064f57600080fd5b610658846105f4565b9250610666602085016105f4565b9150604084013590509250925092565b60006020828403121561068857600080fd5b610691826105f4565b9392505050565b600080604083850312156106ab57600080fd5b6106b4836105f4565b91506106c2602084016105f4565b90509250929050565b634e487b7160e01b600052601160045260246000fd5b80820180821115610363576103636106cb565b81810381811115610363576103636106cb56fea2646970667358221220f96ebe14d120adb4f609067d5c9b8bf301c6f1eea043ccd06c9b7f8023d8380564736f6c63430008130033",
    "linkReferences": {}
  },
  "methodIdentifiers": {
    "INIT()": "ea643914",
    "PARENT()": "122b83f9",
    "TYPE()": "bb24fe8a",
    "VEECODE()": "d61735ca",
    "allowance(address,address,uint256)": "598af9e7",
    "approve(address,uint256,uint256)": "426a8493",
    "balanceOf(address,uint256)": "00fdd58e",
    "computeId(address,bytes)": "dbad2d9a",
    "decimals(uint256)": "3f47e662",
    "deploy(address,bytes,bool)": "1f54245b",
    "exercise(uint256,uint256)": "a86265bb",
    "exerciseCost(uint256,uint256)": "6aacff4e",
    "getTokenMetadata(uint256)": "60316801",
    "getTokenVestingParams(uint256)": "b2416661",
    "isOperator(address,address)": "b6363cf2",
    "mint(address,address,bytes,uint256,bool)": "e40d88f8",
    "mint(address,uint256,uint256,bool)": "dbf110a7",
    "name(uint256)": "00ad800c",
    "reclaim(uint256)": "2dabbeed",
    "redeem(uint256,uint256)": "7cbc2373",
    "redeemMax(uint256)": "f904eed8",
    "redeemable(address,uint256)": "67627b62",
    "setOperator(address,bool)": "558a7297",
    "supportsInterface(bytes4)": "01ffc9a7",
    "symbol(uint256)": "4e41a1fb",
    "tokenMetadata(uint256)": "6914db60",
    "tokenURI(uint256)": "c87b56dd",
    "totalSupply(uint256)": "bd85b039",
    "transfer(address,uint256,uint256)": "095bcdb6",
    "transferFrom(address,address,uint256,uint256)": "fe99049a",
    "transform(uint256,address,uint256)": "f6e9936a",
    "unwrap(uint256,uint256)": "6e286671",
    "userClaimed(address,uint256)": "fcbf8b24",
    "validate(address,bytes)": "caf92785",
    "wrap(uint256,uint256)": "25ded586"
  },
  "id": 179
}