{
  "abi": [
    {
      "type": "constructor",
      "inputs": [
        {
          "name": "auctionHouse_",
          "type": "address",
          "internalType": "address"
        },
        {
          "name": "permissions_",
          "type": "tuple",
          "internalType": "struct Callbacks.Permissions",
          "components": [
            {
              "name": "onCreate",
              "type": "bool",
              "internalType": "bool"
            },
            {
              "name": "onCancel",
              "type": "bool",
              "internalType": "bool"
            },
            {
              "name": "onCurate",
              "type": "bool",
              "internalType": "bool"
            },
            {
              "name": "onPurchase",
              "type": "bool",
              "internalType": "bool"
            },
            {
              "name": "onBid",
              "type": "bool",
              "internalType": "bool"
            },
            {
              "name": "onSettle",
              "type": "bool",
              "internalType": "bool"
            },
            {
              "name": "receiveQuoteTokens",
              "type": "bool",
              "internalType": "bool"
            },
            {
              "name": "sendBaseTokens",
              "type": "bool",
              "internalType": "bool"
            }
          ]
        }
      ],
      "stateMutability": "nonpayable"
    },
    {
      "type": "function",
      "name": "AUCTION_HOUSE",
      "inputs": [],
      "outputs": [
        {
          "name": "",
          "type": "address",
          "internalType": "address"
        }
      ],
      "stateMutability": "view"
    },
    {
      "type": "function",
      "name": "lotIdRegistered",
      "inputs": [
        {
          "name": "",
          "type": "uint96",
          "internalType": "uint96"
        }
      ],
      "outputs": [
        {
          "name": "",
          "type": "bool",
          "internalType": "bool"
        }
      ],
      "stateMutability": "view"
    },
    {
      "type": "function",
      "name": "lotMerkleRoot",
      "inputs": [
        {
          "name": "lotId",
          "type": "uint96",
          "internalType": "uint96"
        }
      ],
      "outputs": [
        {
          "name": "merkleRoot",
          "type": "bytes32",
          "internalType": "bytes32"
        }
      ],
      "stateMutability": "view"
    },
    {
      "type": "function",
      "name": "onBid",
      "inputs": [
        {
          "name": "lotId_",
          "type": "uint96",
          "internalType": "uint96"
        },
        {
          "name": "bidId",
          "type": "uint64",
          "internalType": "uint64"
        },
        {
          "name": "buyer_",
          "type": "address",
          "internalType": "address"
        },
        {
          "name": "amount_",
          "type": "uint256",
          "internalType": "uint256"
        },
        {
          "name": "callbackData_",
          "type": "bytes",
          "internalType": "bytes"
        }
      ],
      "outputs": [
        {
          "name": "",
          "type": "bytes4",
          "internalType": "bytes4"
        }
      ],
      "stateMutability": "nonpayable"
    },
    {
      "type": "function",
      "name": "onCancel",
      "inputs": [
        {
          "name": "lotId_",
          "type": "uint96",
          "internalType": "uint96"
        },
        {
          "name": "refund_",
          "type": "uint256",
          "internalType": "uint256"
        },
        {
          "name": "prefunded_",
          "type": "bool",
          "internalType": "bool"
        },
        {
          "name": "callbackData_",
          "type": "bytes",
          "internalType": "bytes"
        }
      ],
      "outputs": [
        {
          "name": "",
          "type": "bytes4",
          "internalType": "bytes4"
        }
      ],
      "stateMutability": "nonpayable"
    },
    {
      "type": "function",
      "name": "onCreate",
      "inputs": [
        {
          "name": "lotId_",
          "type": "uint96",
          "internalType": "uint96"
        },
        {
          "name": "seller_",
          "type": "address",
          "internalType": "address"
        },
        {
          "name": "baseToken_",
          "type": "address",
          "internalType": "address"
        },
        {
          "name": "quoteToken_",
          "type": "address",
          "internalType": "address"
        },
        {
          "name": "capacity_",
          "type": "uint256",
          "internalType": "uint256"
        },
        {
          "name": "prefund_",
          "type": "bool",
          "internalType": "bool"
        },
        {
          "name": "callbackData_",
          "type": "bytes",
          "internalType": "bytes"
        }
      ],
      "outputs": [
        {
          "name": "",
          "type": "bytes4",
          "internalType": "bytes4"
        }
      ],
      "stateMutability": "nonpayable"
    },
    {
      "type": "function",
      "name": "onCurate",
      "inputs": [
        {
          "name": "lotId_",
          "type": "uint96",
          "internalType": "uint96"
        },
        {
          "name": "curatorFee_",
          "type": "uint256",
          "internalType": "uint256"
        },
        {
          "name": "prefund_",
          "type": "bool",
          "internalType": "bool"
        },
        {
          "name": "callbackData_",
          "type": "bytes",
          "internalType": "bytes"
        }
      ],
      "outputs": [
        {
          "name": "",
          "type": "bytes4",
          "internalType": "bytes4"
        }
      ],
      "stateMutability": "nonpayable"
    },
    {
      "type": "function",
      "name": "onPurchase",
      "inputs": [
        {
          "name": "lotId_",
          "type": "uint96",
          "internalType": "uint96"
        },
        {
          "name": "buyer_",
          "type": "address",
          "internalType": "address"
        },
        {
          "name": "amount_",
          "type": "uint256",
          "internalType": "uint256"
        },
        {
          "name": "payout_",
          "type": "uint256",
          "internalType": "uint256"
        },
        {
          "name": "prefunded_",
          "type": "bool",
          "internalType": "bool"
        },
        {
          "name": "callbackData_",
          "type": "bytes",
          "internalType": "bytes"
        }
      ],
      "outputs": [
        {
          "name": "",
          "type": "bytes4",
          "internalType": "bytes4"
        }
      ],
      "stateMutability": "nonpayable"
    },
    {
      "type": "function",
      "name": "onSettle",
      "inputs": [
        {
          "name": "lotId_",
          "type": "uint96",
          "internalType": "uint96"
        },
        {
          "name": "proceeds_",
          "type": "uint256",
          "internalType": "uint256"
        },
        {
          "name": "refund_",
          "type": "uint256",
          "internalType": "uint256"
        },
        {
          "name": "callbackData_",
          "type": "bytes",
          "internalType": "bytes"
        }
      ],
      "outputs": [
        {
          "name": "",
          "type": "bytes4",
          "internalType": "bytes4"
        }
      ],
      "stateMutability": "nonpayable"
    },
    {
      "type": "function",
      "name": "setMerkleRoot",
      "inputs": [
        {
          "name": "lotId_",
          "type": "uint96",
          "internalType": "uint96"
        },
        {
          "name": "merkleRoot_",
          "type": "bytes32",
          "internalType": "bytes32"
        }
      ],
      "outputs": [],
      "stateMutability": "nonpayable"
    },
    {
      "type": "event",
      "name": "MerkleRootSet",
      "inputs": [
        {
          "name": "lotId",
          "type": "uint96",
          "indexed": false,
          "internalType": "uint96"
        },
        {
          "name": "merkleRoot",
          "type": "bytes32",
          "indexed": false,
          "internalType": "bytes32"
        }
      ],
      "anonymous": false
    },
    {
      "type": "error",
      "name": "Callback_InvalidParams",
      "inputs": []
    },
    {
      "type": "error",
      "name": "Callback_NotAuthorized",
      "inputs": []
    },
    {
      "type": "error",
      "name": "Callback_NotImplemented",
      "inputs": []
    },
    {
      "type": "error",
      "name": "CallbacksAddressNotValid",
      "inputs": [
        {
          "name": "callbacks",
          "type": "address",
          "internalType": "address"
        }
      ]
    }
  ],
  "bytecode": {
    "object": "0x60a06040523480156200001157600080fd5b506040516200125938038062001259833981016040819052620000349162000165565b818162000042308262000058565b506001600160a01b0316608052506200027f9050565b805115156001609f1b83161515141580620000815750602081015115156001609e1b8316151514155b806200009b5750604081015115156001609d1b8316151514155b80620000b55750606081015115156001609c1b8316151514155b80620000cf5750608081015115156001609b1b8316151514155b80620000e9575060a081015115156001609a1b8316151514155b8062000103575060c08101511515600160991b8316151514155b806200011d575060e08101511515600160981b8316151514155b156200014b576040516303b556f760e01b81526001600160a01b038316600482015260240160405180910390fd5b5050565b805180151581146200016057600080fd5b919050565b6000808284036101208112156200017b57600080fd5b83516001600160a01b03811681146200019357600080fd5b9250610100601f198201811315620001aa57600080fd5b60405191508082016001600160401b0381118382101715620001dc57634e487b7160e01b600052604160045260246000fd5b604052620001ed602086016200014f565b8252620001fd604086016200014f565b602083015262000210606086016200014f565b604083015262000223608086016200014f565b60608301526200023660a086016200014f565b60808301526200024960c086016200014f565b60a08301526200025c60e086016200014f565b60c08301526200026e8186016200014f565b60e083015250809150509250929050565b608051610f8d620002cc60003960008181610121015281816101f5015281816102ea01528181610404015281816104d1015281816105770152818161061d01526106c50152610f8d6000f3fe608060405234801561001057600080fd5b506004361061009e5760003560e01c806366e741671161006657806366e7416714610189578063a5658c861461019c578063a5b13f69146101af578063b898895e146101c2578063fc439982146101d557600080fd5b806309b9601c146100a3578063191e581e146100d45780631cae9eef146100e95780634226b1bf1461011c5780636003a3531461015b575b600080fd5b6100b66100b13660046109ea565b6101e8565b6040516001600160e01b031990911681526020015b60405180910390f35b6100e76100e2366004610a5b565b61028e565b005b61010c6100f7366004610a85565b60006020819052908152604090205460ff1681565b60405190151581526020016100cb565b6101437f000000000000000000000000000000000000000000000000000000000000000081565b6040516001600160a01b0390911681526020016100cb565b61017b610169366004610a85565b60016020526000908152604090205481565b6040519081526020016100cb565b6100b6610197366004610ab5565b6103f7565b6100b66101aa3660046109ea565b6104c4565b6100b66101bd366004610b5d565b61056a565b6100b66101d0366004610ba8565b610610565b6100b66101e3366004610c36565b6106b8565b6000336001600160a01b037f0000000000000000000000000000000000000000000000000000000000000000161461023357604051630d0ec32b60e31b815260040160405180910390fd5b6001600160601b038616600090815260208190526040902054869060ff1661026e57604051630d0ec32b60e31b815260040160405180910390fd5b61027b8787878787610762565b5063026e580760e21b9695505050505050565b6001600160601b038216600090815260208190526040902054829060ff166102c957604051630d0ec32b60e31b815260040160405180910390fd5b604051634f17001d60e11b81526001600160601b03841660048201526000907f00000000000000000000000000000000000000000000000000000000000000006001600160a01b031690639e2e003a90602401600060405180830381865afa158015610339573d6000803e3d6000fd5b505050506040513d6000823e601f3d908101601f191682016040526103619190810190610d22565b50505050505050509050806001600160a01b0316336001600160a01b03161461039d57604051630d0ec32b60e31b815260040160405180910390fd5b6001600160601b038416600081815260016020908152604091829020869055815192835282018590527fdbc2d92066ee79fd64220430986d0e862a9224763dc143bdc4809fb5d7183102910160405180910390a150505050565b6000336001600160a01b037f0000000000000000000000000000000000000000000000000000000000000000161461044257604051630d0ec32b60e31b815260040160405180910390fd5b6001600160601b03891660009081526020819052604090205460ff161561047c576040516363d2088f60e11b815260040160405180910390fd5b6001600160601b0389166000908152602081905260409020805460ff191660011790556104af898989898989898961077b565b506366e7416760e01b98975050505050505050565b6000336001600160a01b037f0000000000000000000000000000000000000000000000000000000000000000161461050f57604051630d0ec32b60e31b815260040160405180910390fd5b6001600160601b038616600090815260208190526040902054869060ff1661054a57604051630d0ec32b60e31b815260040160405180910390fd5b6105578787878787610762565b506352b2c64360e11b9695505050505050565b6000336001600160a01b037f000000000000000000000000000000000000000000000000000000000000000016146105b557604051630d0ec32b60e31b815260040160405180910390fd5b6001600160601b038616600090815260208190526040902054869060ff166105f057604051630d0ec32b60e31b815260040160405180910390fd5b6105fd8787878787610762565b5063a5b13f6960e01b9695505050505050565b6000336001600160a01b037f0000000000000000000000000000000000000000000000000000000000000000161461065b57604051630d0ec32b60e31b815260040160405180910390fd5b6001600160601b038716600090815260208190526040902054879060ff1661069657604051630d0ec32b60e31b815260040160405180910390fd5b6106a488888888888861080c565b50635c4c44af60e11b979650505050505050565b6000336001600160a01b037f0000000000000000000000000000000000000000000000000000000000000000161461070357604051630d0ec32b60e31b815260040160405180910390fd5b6001600160601b038816600090815260208190526040902054889060ff1661073e57604051630d0ec32b60e31b815260040160405180910390fd5b61074d89898989898989610820565b50637e21ccc160e11b98975050505050505050565b604051638a8cacbf60e01b815260040160405180910390fd5b6020811461079c576040516363d2088f60e11b815260040160405180910390fd5b60006107aa82840184610e5b565b6001600160601b038a16600081815260016020908152604091829020849055815192835282018390529192507fdbc2d92066ee79fd64220430986d0e862a9224763dc143bdc4809fb5d7183102910160405180910390a1505050505050505050565b61081886858484610835565b505050505050565b61082c87878484610835565b50505050505050565b600061084382840184610e74565b604080516001600160a01b03871660208201529192506000910160408051601f19818403018152828252805160209182012090830152016040516020818303038152906040528051906020012090506108c28260016000896001600160601b03166001600160601b0316815260200190815260200160002054836108df565b61081857604051630d0ec32b60e31b815260040160405180910390fd5b6000826108ec85846108f5565b14949350505050565b600081815b845181101561093a576109268286838151811061091957610919610f1a565b6020026020010151610942565b91508061093281610f30565b9150506108fa565b509392505050565b600081831061095e57600082815260208490526040902061096d565b60008381526020839052604090205b9392505050565b80356001600160601b038116811461098b57600080fd5b919050565b801515811461099e57600080fd5b50565b60008083601f8401126109b357600080fd5b50813567ffffffffffffffff8111156109cb57600080fd5b6020830191508360208285010111156109e357600080fd5b9250929050565b600080600080600060808688031215610a0257600080fd5b610a0b86610974565b9450602086013593506040860135610a2281610990565b9250606086013567ffffffffffffffff811115610a3e57600080fd5b610a4a888289016109a1565b969995985093965092949392505050565b60008060408385031215610a6e57600080fd5b610a7783610974565b946020939093013593505050565b600060208284031215610a9757600080fd5b61096d82610974565b6001600160a01b038116811461099e57600080fd5b60008060008060008060008060e0898b031215610ad157600080fd5b610ada89610974565b97506020890135610aea81610aa0565b96506040890135610afa81610aa0565b95506060890135610b0a81610aa0565b94506080890135935060a0890135610b2181610990565b925060c089013567ffffffffffffffff811115610b3d57600080fd5b610b498b828c016109a1565b999c989b5096995094979396929594505050565b600080600080600060808688031215610b7557600080fd5b610b7e86610974565b94506020860135935060408601359250606086013567ffffffffffffffff811115610a3e57600080fd5b60008060008060008060a08789031215610bc157600080fd5b610bca87610974565b9550602087013567ffffffffffffffff8082168214610be857600080fd5b909550604088013590610bfa82610aa0565b9094506060880135935060808801359080821115610c1757600080fd5b50610c2489828a016109a1565b979a9699509497509295939492505050565b600080600080600080600060c0888a031215610c5157600080fd5b610c5a88610974565b96506020880135610c6a81610aa0565b955060408801359450606088013593506080880135610c8881610990565b925060a088013567ffffffffffffffff811115610ca457600080fd5b610cb08a828b016109a1565b989b979a50959850939692959293505050565b80516001600160c81b03198116811461098b57600080fd5b634e487b7160e01b600052604160045260246000fd5b604051601f8201601f1916810167ffffffffffffffff81118282101715610d1a57610d1a610cdb565b604052919050565b60008060008060008060008060006101208a8c031215610d4157600080fd5b8951610d4c81610aa0565b809950506020808b0151610d5f81610aa0565b60408c0151909950610d7081610aa0565b9750610d7e60608c01610cc3565b965060808b0151955060a08b0151610d9581610aa0565b9450610da360c08c01610cc3565b935060e08b0151610db381610990565b6101008c015190935067ffffffffffffffff80821115610dd257600080fd5b818d0191508d601f830112610de657600080fd5b815181811115610df857610df8610cdb565b610e0a601f8201601f19168501610cf1565b91508082528e84828501011115610e2057600080fd5b60005b81811015610e3e578381018501518382018601528401610e23565b506000848284010152508093505050509295985092959850929598565b600060208284031215610e6d57600080fd5b5035919050565b60006020808385031215610e8757600080fd5b823567ffffffffffffffff80821115610e9f57600080fd5b818501915085601f830112610eb357600080fd5b813581811115610ec557610ec5610cdb565b8060051b9150610ed6848301610cf1565b8181529183018401918481019088841115610ef057600080fd5b938501935b83851015610f0e57843582529385019390850190610ef5565b98975050505050505050565b634e487b7160e01b600052603260045260246000fd5b600060018201610f5057634e487b7160e01b600052601160045260246000fd5b506001019056fea2646970667358221220372bf9aa3514f092d768ff27365dd642a96eb0a577dcd0a545bc585d3d4d47a564736f6c63430008130033",
    "linkReferences": {}
  },
  "methodIdentifiers": {
    "AUCTION_HOUSE()": "4226b1bf",
    "lotIdRegistered(uint96)": "1cae9eef",
    "lotMerkleRoot(uint96)": "6003a353",
    "onBid(uint96,uint64,address,uint256,bytes)": "b898895e",
    "onCancel(uint96,uint256,bool,bytes)": "a5658c86",
    "onCreate(uint96,address,address,address,uint256,bool,bytes)": "66e74167",
    "onCurate(uint96,uint256,bool,bytes)": "09b9601c",
    "onPurchase(uint96,address,uint256,uint256,bool,bytes)": "fc439982",
    "onSettle(uint96,uint256,uint256,bytes)": "a5b13f69",
    "setMerkleRoot(uint96,bytes32)": "191e581e"
  },
  "id": 126
}