{
  "abi": [
    {
      "type": "constructor",
      "inputs": [
        {
          "name": "auctionHouse_",
          "type": "address",
          "internalType": "address"
        },
        {
          "name": "permissions_",
          "type": "tuple",
          "internalType": "struct Callbacks.Permissions",
          "components": [
            {
              "name": "onCreate",
              "type": "bool",
              "internalType": "bool"
            },
            {
              "name": "onCancel",
              "type": "bool",
              "internalType": "bool"
            },
            {
              "name": "onCurate",
              "type": "bool",
              "internalType": "bool"
            },
            {
              "name": "onPurchase",
              "type": "bool",
              "internalType": "bool"
            },
            {
              "name": "onBid",
              "type": "bool",
              "internalType": "bool"
            },
            {
              "name": "onSettle",
              "type": "bool",
              "internalType": "bool"
            },
            {
              "name": "receiveQuoteTokens",
              "type": "bool",
              "internalType": "bool"
            },
            {
              "name": "sendBaseTokens",
              "type": "bool",
              "internalType": "bool"
            }
          ]
        }
      ],
      "stateMutability": "nonpayable"
    },
    {
      "type": "function",
      "name": "AUCTION_HOUSE",
      "inputs": [],
      "outputs": [
        {
          "name": "",
          "type": "address",
          "internalType": "address"
        }
      ],
      "stateMutability": "view"
    },
    {
      "type": "function",
      "name": "lotChecks",
      "inputs": [
        {
          "name": "lotId",
          "type": "uint96",
          "internalType": "uint96"
        }
      ],
      "outputs": [
        {
          "name": "token",
          "type": "address",
          "internalType": "contract ITokenBalance"
        },
        {
          "name": "threshold",
          "type": "uint256",
          "internalType": "uint256"
        }
      ],
      "stateMutability": "view"
    },
    {
      "type": "function",
      "name": "lotIdRegistered",
      "inputs": [
        {
          "name": "",
          "type": "uint96",
          "internalType": "uint96"
        }
      ],
      "outputs": [
        {
          "name": "",
          "type": "bool",
          "internalType": "bool"
        }
      ],
      "stateMutability": "view"
    },
    {
      "type": "function",
      "name": "onBid",
      "inputs": [
        {
          "name": "lotId_",
          "type": "uint96",
          "internalType": "uint96"
        },
        {
          "name": "bidId",
          "type": "uint64",
          "internalType": "uint64"
        },
        {
          "name": "buyer_",
          "type": "address",
          "internalType": "address"
        },
        {
          "name": "amount_",
          "type": "uint256",
          "internalType": "uint256"
        },
        {
          "name": "callbackData_",
          "type": "bytes",
          "internalType": "bytes"
        }
      ],
      "outputs": [
        {
          "name": "",
          "type": "bytes4",
          "internalType": "bytes4"
        }
      ],
      "stateMutability": "nonpayable"
    },
    {
      "type": "function",
      "name": "onCancel",
      "inputs": [
        {
          "name": "lotId_",
          "type": "uint96",
          "internalType": "uint96"
        },
        {
          "name": "refund_",
          "type": "uint256",
          "internalType": "uint256"
        },
        {
          "name": "prefunded_",
          "type": "bool",
          "internalType": "bool"
        },
        {
          "name": "callbackData_",
          "type": "bytes",
          "internalType": "bytes"
        }
      ],
      "outputs": [
        {
          "name": "",
          "type": "bytes4",
          "internalType": "bytes4"
        }
      ],
      "stateMutability": "nonpayable"
    },
    {
      "type": "function",
      "name": "onCreate",
      "inputs": [
        {
          "name": "lotId_",
          "type": "uint96",
          "internalType": "uint96"
        },
        {
          "name": "seller_",
          "type": "address",
          "internalType": "address"
        },
        {
          "name": "baseToken_",
          "type": "address",
          "internalType": "address"
        },
        {
          "name": "quoteToken_",
          "type": "address",
          "internalType": "address"
        },
        {
          "name": "capacity_",
          "type": "uint256",
          "internalType": "uint256"
        },
        {
          "name": "prefund_",
          "type": "bool",
          "internalType": "bool"
        },
        {
          "name": "callbackData_",
          "type": "bytes",
          "internalType": "bytes"
        }
      ],
      "outputs": [
        {
          "name": "",
          "type": "bytes4",
          "internalType": "bytes4"
        }
      ],
      "stateMutability": "nonpayable"
    },
    {
      "type": "function",
      "name": "onCurate",
      "inputs": [
        {
          "name": "lotId_",
          "type": "uint96",
          "internalType": "uint96"
        },
        {
          "name": "curatorFee_",
          "type": "uint256",
          "internalType": "uint256"
        },
        {
          "name": "prefund_",
          "type": "bool",
          "internalType": "bool"
        },
        {
          "name": "callbackData_",
          "type": "bytes",
          "internalType": "bytes"
        }
      ],
      "outputs": [
        {
          "name": "",
          "type": "bytes4",
          "internalType": "bytes4"
        }
      ],
      "stateMutability": "nonpayable"
    },
    {
      "type": "function",
      "name": "onPurchase",
      "inputs": [
        {
          "name": "lotId_",
          "type": "uint96",
          "internalType": "uint96"
        },
        {
          "name": "buyer_",
          "type": "address",
          "internalType": "address"
        },
        {
          "name": "amount_",
          "type": "uint256",
          "internalType": "uint256"
        },
        {
          "name": "payout_",
          "type": "uint256",
          "internalType": "uint256"
        },
        {
          "name": "prefunded_",
          "type": "bool",
          "internalType": "bool"
        },
        {
          "name": "callbackData_",
          "type": "bytes",
          "internalType": "bytes"
        }
      ],
      "outputs": [
        {
          "name": "",
          "type": "bytes4",
          "internalType": "bytes4"
        }
      ],
      "stateMutability": "nonpayable"
    },
    {
      "type": "function",
      "name": "onSettle",
      "inputs": [
        {
          "name": "lotId_",
          "type": "uint96",
          "internalType": "uint96"
        },
        {
          "name": "proceeds_",
          "type": "uint256",
          "internalType": "uint256"
        },
        {
          "name": "refund_",
          "type": "uint256",
          "internalType": "uint256"
        },
        {
          "name": "callbackData_",
          "type": "bytes",
          "internalType": "bytes"
        }
      ],
      "outputs": [
        {
          "name": "",
          "type": "bytes4",
          "internalType": "bytes4"
        }
      ],
      "stateMutability": "nonpayable"
    },
    {
      "type": "error",
      "name": "Callback_InvalidParams",
      "inputs": []
    },
    {
      "type": "error",
      "name": "Callback_NotAuthorized",
      "inputs": []
    },
    {
      "type": "error",
      "name": "Callback_NotImplemented",
      "inputs": []
    },
    {
      "type": "error",
      "name": "CallbacksAddressNotValid",
      "inputs": [
        {
          "name": "callbacks",
          "type": "address",
          "internalType": "address"
        }
      ]
    }
  ],
  "bytecode": {
    "object": "0x60a06040523480156200001157600080fd5b5060405162000ead38038062000ead833981016040819052620000349162000165565b818162000042308262000058565b506001600160a01b0316608052506200027f9050565b805115156001609f1b83161515141580620000815750602081015115156001609e1b8316151514155b806200009b5750604081015115156001609d1b8316151514155b80620000b55750606081015115156001609c1b8316151514155b80620000cf5750608081015115156001609b1b8316151514155b80620000e9575060a081015115156001609a1b8316151514155b8062000103575060c08101511515600160991b8316151514155b806200011d575060e08101511515600160981b8316151514155b156200014b576040516303b556f760e01b81526001600160a01b038316600482015260240160405180910390fd5b5050565b805180151581146200016057600080fd5b919050565b6000808284036101208112156200017b57600080fd5b83516001600160a01b03811681146200019357600080fd5b9250610100601f198201811315620001aa57600080fd5b60405191508082016001600160401b0381118382101715620001dc57634e487b7160e01b600052604160045260246000fd5b604052620001ed602086016200014f565b8252620001fd604086016200014f565b602083015262000210606086016200014f565b604083015262000223608086016200014f565b60608301526200023660a086016200014f565b60808301526200024960c086016200014f565b60a08301526200025c60e086016200014f565b60c08301526200026e8186016200014f565b60e083015250809150509250929050565b608051610be8620002c560003960008181610101015281816101f90152818161029f0152818161036c01528181610412015281816104b801526105600152610be86000f3fe608060405234801561001057600080fd5b50600436106100935760003560e01c8063a5658c8611610066578063a5658c861461014e578063a5b13f6914610161578063b898895e14610174578063c04bb21c14610187578063fc439982146101d957600080fd5b806309b9601c146100985780631cae9eef146100c95780634226b1bf146100fc57806366e741671461013b575b600080fd5b6100ab6100a63660046108b1565b6101ec565b6040516001600160e01b031990911681526020015b60405180910390f35b6100ec6100d7366004610920565b60006020819052908152604090205460ff1681565b60405190151581526020016100c0565b6101237f000000000000000000000000000000000000000000000000000000000000000081565b6040516001600160a01b0390911681526020016100c0565b6100ab61014936600461095a565b610292565b6100ab61015c3660046108b1565b61035f565b6100ab61016f366004610a00565b610405565b6100ab610182366004610a4b565b6104ab565b6101ba610195366004610920565b600160208190526000918252604090912080549101546001600160a01b039091169082565b604080516001600160a01b0390931683526020830191909152016100c0565b6100ab6101e7366004610ad9565b610553565b6000336001600160a01b037f0000000000000000000000000000000000000000000000000000000000000000161461023757604051630d0ec32b60e31b815260040160405180910390fd5b6001600160601b038616600090815260208190526040902054869060ff1661027257604051630d0ec32b60e31b815260040160405180910390fd5b61027f87878787876105fd565b5063026e580760e21b9695505050505050565b6000336001600160a01b037f000000000000000000000000000000000000000000000000000000000000000016146102dd57604051630d0ec32b60e31b815260040160405180910390fd5b6001600160601b03891660009081526020819052604090205460ff1615610317576040516363d2088f60e11b815260040160405180910390fd5b6001600160601b0389166000908152602081905260409020805460ff1916600117905561034a8989898989898989610616565b506366e7416760e01b98975050505050505050565b6000336001600160a01b037f000000000000000000000000000000000000000000000000000000000000000016146103aa57604051630d0ec32b60e31b815260040160405180910390fd5b6001600160601b038616600090815260208190526040902054869060ff166103e557604051630d0ec32b60e31b815260040160405180910390fd5b6103f287878787876105fd565b506352b2c64360e11b9695505050505050565b6000336001600160a01b037f0000000000000000000000000000000000000000000000000000000000000000161461045057604051630d0ec32b60e31b815260040160405180910390fd5b6001600160601b038616600090815260208190526040902054869060ff1661048b57604051630d0ec32b60e31b815260040160405180910390fd5b61049887878787876105fd565b5063a5b13f6960e01b9695505050505050565b6000336001600160a01b037f000000000000000000000000000000000000000000000000000000000000000016146104f657604051630d0ec32b60e31b815260040160405180910390fd5b6001600160601b038716600090815260208190526040902054879060ff1661053157604051630d0ec32b60e31b815260040160405180910390fd5b61053f888888888888610755565b50635c4c44af60e11b979650505050505050565b6000336001600160a01b037f0000000000000000000000000000000000000000000000000000000000000000161461059e57604051630d0ec32b60e31b815260040160405180910390fd5b6001600160601b038816600090815260208190526040902054889060ff166105d957604051630d0ec32b60e31b815260040160405180910390fd5b6105e889898989898989610767565b50637e21ccc160e11b98975050505050505050565b604051638a8cacbf60e01b815260040160405180910390fd5b60408114610637576040516363d2088f60e11b815260040160405180910390fd5b60008061064683850185610b64565b91509150816001600160a01b03163b600003610675576040516363d2088f60e11b815260040160405180910390fd5b6040516370a0823160e01b81523060048201526001600160a01b038316906370a0823190602401602060405180830381865afa9250505080156106d5575060408051601f3d908101601f191682019092526106d291810190610b99565b60015b6106f2576040516363d2088f60e11b815260040160405180910390fd5b506040805180820182526001600160a01b0393841681526001600160601b0392831660208083019182529c909316600090815260019c8d905291909120905181546001600160a01b03191693169290921782555198019790975550505050505050565b61075f868561077a565b505050505050565b610771878761077a565b50505050505050565b6001600160601b0382166000908152600160208181526040928390208351808501855281546001600160a01b03908116808352929094015492810183905293516370a0823160e01b8152928516600484015290916370a0823190602401602060405180830381865afa1580156107f4573d6000803e3d6000fd5b505050506040513d601f19601f820116820180604052508101906108189190610b99565b101561083757604051630d0ec32b60e31b815260040160405180910390fd5b505050565b80356001600160601b038116811461085357600080fd5b919050565b8035801515811461085357600080fd5b60008083601f84011261087a57600080fd5b50813567ffffffffffffffff81111561089257600080fd5b6020830191508360208285010111156108aa57600080fd5b9250929050565b6000806000806000608086880312156108c957600080fd5b6108d28661083c565b9450602086013593506108e760408701610858565b9250606086013567ffffffffffffffff81111561090357600080fd5b61090f88828901610868565b969995985093965092949392505050565b60006020828403121561093257600080fd5b61093b8261083c565b9392505050565b6001600160a01b038116811461095757600080fd5b50565b60008060008060008060008060e0898b03121561097657600080fd5b61097f8961083c565b9750602089013561098f81610942565b9650604089013561099f81610942565b955060608901356109af81610942565b9450608089013593506109c460a08a01610858565b925060c089013567ffffffffffffffff8111156109e057600080fd5b6109ec8b828c01610868565b999c989b5096995094979396929594505050565b600080600080600060808688031215610a1857600080fd5b610a218661083c565b94506020860135935060408601359250606086013567ffffffffffffffff81111561090357600080fd5b60008060008060008060a08789031215610a6457600080fd5b610a6d8761083c565b9550602087013567ffffffffffffffff8082168214610a8b57600080fd5b909550604088013590610a9d82610942565b9094506060880135935060808801359080821115610aba57600080fd5b50610ac789828a01610868565b979a9699509497509295939492505050565b600080600080600080600060c0888a031215610af457600080fd5b610afd8861083c565b96506020880135610b0d81610942565b95506040880135945060608801359350610b2960808901610858565b925060a088013567ffffffffffffffff811115610b4557600080fd5b610b518a828b01610868565b989b979a50959850939692959293505050565b60008060408385031215610b7757600080fd5b8235610b8281610942565b9150610b906020840161083c565b90509250929050565b600060208284031215610bab57600080fd5b505191905056fea264697066735822122067813bfad0111ec87749def4b152bbee751036d23f421f5c247a4f8bdebeccd064736f6c63430008130033",
    "linkReferences": {}
  },
  "methodIdentifiers": {
    "AUCTION_HOUSE()": "4226b1bf",
    "lotChecks(uint96)": "c04bb21c",
    "lotIdRegistered(uint96)": "1cae9eef",
    "onBid(uint96,uint64,address,uint256,bytes)": "b898895e",
    "onCancel(uint96,uint256,bool,bytes)": "a5658c86",
    "onCreate(uint96,address,address,address,uint256,bool,bytes)": "66e74167",
    "onCurate(uint96,uint256,bool,bytes)": "09b9601c",
    "onPurchase(uint96,address,uint256,uint256,bool,bytes)": "fc439982",
    "onSettle(uint96,uint256,uint256,bytes)": "a5b13f69"
  },
  "id": 132
}