{
  "abi": [
    {
      "type": "constructor",
      "inputs": [
        {
          "name": "auctionHouse_",
          "type": "address",
          "internalType": "address"
        },
        {
          "name": "uniswapV2Factory_",
          "type": "address",
          "internalType": "address"
        },
        {
          "name": "uniswapV2Router_",
          "type": "address",
          "internalType": "address"
        }
      ],
      "stateMutability": "nonpayable"
    },
    {
      "type": "function",
      "name": "AUCTION_HOUSE",
      "inputs": [],
      "outputs": [
        {
          "name": "",
          "type": "address",
          "internalType": "address"
        }
      ],
      "stateMutability": "view"
    },
    {
      "type": "function",
      "name": "LINEAR_VESTING_KEYCODE",
      "inputs": [],
      "outputs": [
        {
          "name": "",
          "type": "bytes5",
          "internalType": "bytes5"
        }
      ],
      "stateMutability": "view"
    },
    {
      "type": "function",
      "name": "ONE_HUNDRED_PERCENT",
      "inputs": [],
      "outputs": [
        {
          "name": "",
          "type": "uint24",
          "internalType": "uint24"
        }
      ],
      "stateMutability": "view"
    },
    {
      "type": "function",
      "name": "lotConfiguration",
      "inputs": [
        {
          "name": "lotId",
          "type": "uint96",
          "internalType": "uint96"
        }
      ],
      "outputs": [
        {
          "name": "recipient",
          "type": "address",
          "internalType": "address"
        },
        {
          "name": "lotCapacity",
          "type": "uint256",
          "internalType": "uint256"
        },
        {
          "name": "lotCuratorPayout",
          "type": "uint256",
          "internalType": "uint256"
        },
        {
          "name": "proceedsUtilisationPercent",
          "type": "uint24",
          "internalType": "uint24"
        },
        {
          "name": "vestingStart",
          "type": "uint48",
          "internalType": "uint48"
        },
        {
          "name": "vestingExpiry",
          "type": "uint48",
          "internalType": "uint48"
        },
        {
          "name": "linearVestingModule",
          "type": "address",
          "internalType": "contract LinearVesting"
        },
        {
          "name": "active",
          "type": "bool",
          "internalType": "bool"
        },
        {
          "name": "implParams",
          "type": "bytes",
          "internalType": "bytes"
        }
      ],
      "stateMutability": "view"
    },
    {
      "type": "function",
      "name": "lotIdRegistered",
      "inputs": [
        {
          "name": "",
          "type": "uint96",
          "internalType": "uint96"
        }
      ],
      "outputs": [
        {
          "name": "",
          "type": "bool",
          "internalType": "bool"
        }
      ],
      "stateMutability": "view"
    },
    {
      "type": "function",
      "name": "onBid",
      "inputs": [
        {
          "name": "lotId_",
          "type": "uint96",
          "internalType": "uint96"
        },
        {
          "name": "bidId",
          "type": "uint64",
          "internalType": "uint64"
        },
        {
          "name": "buyer_",
          "type": "address",
          "internalType": "address"
        },
        {
          "name": "amount_",
          "type": "uint256",
          "internalType": "uint256"
        },
        {
          "name": "callbackData_",
          "type": "bytes",
          "internalType": "bytes"
        }
      ],
      "outputs": [
        {
          "name": "",
          "type": "bytes4",
          "internalType": "bytes4"
        }
      ],
      "stateMutability": "nonpayable"
    },
    {
      "type": "function",
      "name": "onCancel",
      "inputs": [
        {
          "name": "lotId_",
          "type": "uint96",
          "internalType": "uint96"
        },
        {
          "name": "refund_",
          "type": "uint256",
          "internalType": "uint256"
        },
        {
          "name": "prefunded_",
          "type": "bool",
          "internalType": "bool"
        },
        {
          "name": "callbackData_",
          "type": "bytes",
          "internalType": "bytes"
        }
      ],
      "outputs": [
        {
          "name": "",
          "type": "bytes4",
          "internalType": "bytes4"
        }
      ],
      "stateMutability": "nonpayable"
    },
    {
      "type": "function",
      "name": "onCreate",
      "inputs": [
        {
          "name": "lotId_",
          "type": "uint96",
          "internalType": "uint96"
        },
        {
          "name": "seller_",
          "type": "address",
          "internalType": "address"
        },
        {
          "name": "baseToken_",
          "type": "address",
          "internalType": "address"
        },
        {
          "name": "quoteToken_",
          "type": "address",
          "internalType": "address"
        },
        {
          "name": "capacity_",
          "type": "uint256",
          "internalType": "uint256"
        },
        {
          "name": "prefund_",
          "type": "bool",
          "internalType": "bool"
        },
        {
          "name": "callbackData_",
          "type": "bytes",
          "internalType": "bytes"
        }
      ],
      "outputs": [
        {
          "name": "",
          "type": "bytes4",
          "internalType": "bytes4"
        }
      ],
      "stateMutability": "nonpayable"
    },
    {
      "type": "function",
      "name": "onCurate",
      "inputs": [
        {
          "name": "lotId_",
          "type": "uint96",
          "internalType": "uint96"
        },
        {
          "name": "curatorFee_",
          "type": "uint256",
          "internalType": "uint256"
        },
        {
          "name": "prefund_",
          "type": "bool",
          "internalType": "bool"
        },
        {
          "name": "callbackData_",
          "type": "bytes",
          "internalType": "bytes"
        }
      ],
      "outputs": [
        {
          "name": "",
          "type": "bytes4",
          "internalType": "bytes4"
        }
      ],
      "stateMutability": "nonpayable"
    },
    {
      "type": "function",
      "name": "onPurchase",
      "inputs": [
        {
          "name": "lotId_",
          "type": "uint96",
          "internalType": "uint96"
        },
        {
          "name": "buyer_",
          "type": "address",
          "internalType": "address"
        },
        {
          "name": "amount_",
          "type": "uint256",
          "internalType": "uint256"
        },
        {
          "name": "payout_",
          "type": "uint256",
          "internalType": "uint256"
        },
        {
          "name": "prefunded_",
          "type": "bool",
          "internalType": "bool"
        },
        {
          "name": "callbackData_",
          "type": "bytes",
          "internalType": "bytes"
        }
      ],
      "outputs": [
        {
          "name": "",
          "type": "bytes4",
          "internalType": "bytes4"
        }
      ],
      "stateMutability": "nonpayable"
    },
    {
      "type": "function",
      "name": "onSettle",
      "inputs": [
        {
          "name": "lotId_",
          "type": "uint96",
          "internalType": "uint96"
        },
        {
          "name": "proceeds_",
          "type": "uint256",
          "internalType": "uint256"
        },
        {
          "name": "refund_",
          "type": "uint256",
          "internalType": "uint256"
        },
        {
          "name": "callbackData_",
          "type": "bytes",
          "internalType": "bytes"
        }
      ],
      "outputs": [
        {
          "name": "",
          "type": "bytes4",
          "internalType": "bytes4"
        }
      ],
      "stateMutability": "nonpayable"
    },
    {
      "type": "function",
      "name": "uniV2Factory",
      "inputs": [],
      "outputs": [
        {
          "name": "",
          "type": "address",
          "internalType": "contract IUniswapV2Factory"
        }
      ],
      "stateMutability": "view"
    },
    {
      "type": "function",
      "name": "uniV2Router",
      "inputs": [],
      "outputs": [
        {
          "name": "",
          "type": "address",
          "internalType": "contract IUniswapV2Router02"
        }
      ],
      "stateMutability": "view"
    },
    {
      "type": "error",
      "name": "Callback_InsufficientBalance",
      "inputs": [
        {
          "name": "token_",
          "type": "address",
          "internalType": "address"
        },
        {
          "name": "account_",
          "type": "address",
          "internalType": "address"
        },
        {
          "name": "balance_",
          "type": "uint256",
          "internalType": "uint256"
        },
        {
          "name": "required_",
          "type": "uint256",
          "internalType": "uint256"
        }
      ]
    },
    {
      "type": "error",
      "name": "Callback_InvalidParams",
      "inputs": []
    },
    {
      "type": "error",
      "name": "Callback_LinearVestingModuleNotFound",
      "inputs": []
    },
    {
      "type": "error",
      "name": "Callback_NotAuthorized",
      "inputs": []
    },
    {
      "type": "error",
      "name": "Callback_NotImplemented",
      "inputs": []
    },
    {
      "type": "error",
      "name": "Callback_Params_InvalidAddress",
      "inputs": []
    },
    {
      "type": "error",
      "name": "Callback_Params_InvalidVestingParams",
      "inputs": []
    },
    {
      "type": "error",
      "name": "Callback_Params_PercentOutOfBounds",
      "inputs": [
        {
          "name": "actual_",
          "type": "uint24",
          "internalType": "uint24"
        },
        {
          "name": "min_",
          "type": "uint24",
          "internalType": "uint24"
        },
        {
          "name": "max_",
          "type": "uint24",
          "internalType": "uint24"
        }
      ]
    },
    {
      "type": "error",
      "name": "Callback_Params_PoolExists",
      "inputs": []
    },
    {
      "type": "error",
      "name": "CallbacksAddressNotValid",
      "inputs": [
        {
          "name": "callbacks",
          "type": "address",
          "internalType": "address"
        }
      ]
    }
  ],
  "bytecode": {
    "object": "0x60a06040523480156200001157600080fd5b506040516200278638038062002786833981016040819052620000349162000236565b60408051610100810182526001808252602082018190529181018290526000606082018190526080820181905260a0820183905260c082019290925260e08101919091528390819062000088308262000122565b506001600160a01b0390811660805283169050620000b9576040516302180d7960e51b815260040160405180910390fd5b600280546001600160a01b0319166001600160a01b03848116919091179091558116620000f9576040516302180d7960e51b815260040160405180910390fd5b600380546001600160a01b0319166001600160a01b039290921691909117905550620002809050565b805115156001609f1b831615151415806200014b5750602081015115156001609e1b8316151514155b80620001655750604081015115156001609d1b8316151514155b806200017f5750606081015115156001609c1b8316151514155b80620001995750608081015115156001609b1b8316151514155b80620001b3575060a081015115156001609a1b8316151514155b80620001cd575060c08101511515600160991b8316151514155b80620001e7575060e08101511515600160981b8316151514155b1562000215576040516303b556f760e01b81526001600160a01b038316600482015260240160405180910390fd5b5050565b80516001600160a01b03811681146200023157600080fd5b919050565b6000806000606084860312156200024c57600080fd5b620002578462000219565b9250620002676020850162000219565b9150620002776040850162000219565b90509250925092565b6080516124b2620002d4600039600081816101680152818161027401528181610328015281816103f5015281816104b40152818161055a015281816106ff01528181610c51015261116a01526124b26000f3fe608060405234801561001057600080fd5b50600436106100cf5760003560e01c806395fd2ef21161008c578063b898895e11610066578063b898895e146101fc578063d52812191461020f578063dd0081c714610237578063fc4399821461025457600080fd5b806395fd2ef2146101b0578063a5658c86146101d6578063a5b13f69146101e957600080fd5b806309b9601c146100d45780631cae9eef146101055780633da04b87146101385780634226b1bf1461016357806366e741671461018a578063958c2e521461019d575b600080fd5b6100e76100e2366004611a09565b610267565b6040516001600160e01b031990911681526020015b60405180910390f35b610128610113366004611a79565b60006020819052908152604090205460ff1681565b60405190151581526020016100fc565b60025461014b906001600160a01b031681565b6040516001600160a01b0390911681526020016100fc565b61014b7f000000000000000000000000000000000000000000000000000000000000000081565b6100e7610198366004611aa9565b61031b565b60035461014b906001600160a01b031681565b6101bd622624ab60e91b81565b6040516001600160d81b031990911681526020016100fc565b6100e76101e4366004611a09565b6103e8565b6100e76101f7366004611b50565b6104a7565b6100e761020a366004611b9a565b61054d565b61022261021d366004611a79565b6105f5565b6040516100fc99989796959493929190611c77565b61024061271081565b60405162ffffff90911681526020016100fc565b6100e7610262366004611cec565b6106f2565b6000336001600160a01b037f000000000000000000000000000000000000000000000000000000000000000016146102b257604051630d0ec32b60e31b815260040160405180910390fd5b6001600160601b038616600090815260208190526040902054869060ff166102ed57604051630d0ec32b60e31b815260040160405180910390fd5b505050506001600160601b03929092166000908152600160205260409020600201555063026e580760e21b90565b6000336001600160a01b037f0000000000000000000000000000000000000000000000000000000000000000161461036657604051630d0ec32b60e31b815260040160405180910390fd5b6001600160601b03891660009081526020819052604090205460ff16156103a0576040516363d2088f60e11b815260040160405180910390fd5b6001600160601b0389166000908152602081905260409020805460ff191660011790556103d3898989898989898961079c565b506366e7416760e01b98975050505050505050565b6000336001600160a01b037f0000000000000000000000000000000000000000000000000000000000000000161461043357604051630d0ec32b60e31b815260040160405180910390fd5b6001600160601b038616600090815260208190526040902054869060ff1661046e57604051630d0ec32b60e31b815260040160405180910390fd5b6001600160601b0387166000908152600160205260409020600401805460ff60a01b19169055506352b2c64360e11b9695505050505050565b6000336001600160a01b037f000000000000000000000000000000000000000000000000000000000000000016146104f257604051630d0ec32b60e31b815260040160405180910390fd5b6001600160601b038616600090815260208190526040902054869060ff1661052d57604051630d0ec32b60e31b815260040160405180910390fd5b61053a8787878787610ae8565b5063a5b13f6960e01b9695505050505050565b6000336001600160a01b037f0000000000000000000000000000000000000000000000000000000000000000161461059857604051630d0ec32b60e31b815260040160405180910390fd5b6001600160601b038716600090815260208190526040902054879060ff166105d357604051630d0ec32b60e31b815260040160405180910390fd5b6105e1888888888888611131565b50635c4c44af60e11b979650505050505050565b60016020819052600091825260409091208054918101546002820154600383015460048401546005850180546001600160a01b03978816979596949562ffffff8516956301000000860465ffffffffffff90811696600160481b9004169491821693600160a01b90920460ff169290919061066f90611d78565b80601f016020809104026020016040519081016040528092919081815260200182805461069b90611d78565b80156106e85780601f106106bd576101008083540402835291602001916106e8565b820191906000526020600020905b8154815290600101906020018083116106cb57829003601f168201915b5050505050905089565b6000336001600160a01b037f0000000000000000000000000000000000000000000000000000000000000000161461073d57604051630d0ec32b60e31b815260040160405180910390fd5b6001600160601b038816600090815260208190526040902054889060ff1661077857604051630d0ec32b60e31b815260040160405180910390fd5b61078789898989898989611131565b50637e21ccc160e11b98975050505050505050565b60006107aa82840184611e6e565b805190915062ffffff1615806107c95750805161271062ffffff909116115b1561080557805160405163440e0f3160e01b815262ffffff90911660048201526001602482015261271060448201526064015b60405180910390fd5b6000816020015165ffffffffffff16600014158061082e5750604082015165ffffffffffff1615155b156108da5761083b61114a565b9050806001600160a01b031663caf927858961085f8560200151866040015161129d565b6040518363ffffffff1660e01b815260040161087c929190611f68565b602060405180830381865afa158015610899573d6000803e3d6000fd5b505050506040513d601f19601f820116820180604052508101906108bd9190611f94565b6108da576040516328db098b60e01b815260040160405180910390fd5b60608201516001600160a01b0316610905576040516302180d7960e51b815260040160405180910390fd5b60405180610120016040528083606001516001600160a01b0316815260200187815260200160008152602001836000015162ffffff168152602001836020015165ffffffffffff168152602001836040015165ffffffffffff168152602001826001600160a01b031681526020016001151581526020018360800151815250600160008c6001600160601b03166001600160601b0316815260200190815260200160002060008201518160000160006101000a8154816001600160a01b0302191690836001600160a01b03160217905550602082015181600101556040820151816002015560608201518160030160006101000a81548162ffffff021916908362ffffff16021790555060808201518160030160036101000a81548165ffffffffffff021916908365ffffffffffff16021790555060a08201518160030160096101000a81548165ffffffffffff021916908365ffffffffffff16021790555060c08201518160040160006101000a8154816001600160a01b0302191690836001600160a01b0316021790555060e08201518160040160146101000a81548160ff021916908315150217905550610100820151816005019081610ac89190612000565b50905050610adc8a8a8a8a8a8a8a8a6112e5565b50505050505050505050565b6001600160601b038516600090815260016020818152604080842081516101208101835281546001600160a01b0390811682529482015493810193909352600281015491830191909152600381015462ffffff811660608401526301000000810465ffffffffffff9081166080850152600160481b9091041660a0830152600481015492831660c0830152600160a01b90920460ff16151560e082015260058201805491929161010084019190610b9e90611d78565b80601f0160208091040260200160405190810160405280929190818152602001828054610bca90611d78565b8015610c175780601f10610bec57610100808354040283529160200191610c17565b820191906000526020600020905b815481529060010190602001808311610bfa57829003601f168201915b505050919092525050604051634f17001d60e11b81526001600160601b038916600482015291925060009182915081906001600160a01b037f00000000000000000000000000000000000000000000000000000000000000001690639e2e003a90602401600060405180830381865afa158015610c98573d6000803e3d6000fd5b505050506040513d6000823e601f3d908101601f19168201604052610cc091908101906120d7565b50505050604089015160208a01519598509396509194506000938493849350839250610ceb916121f1565b610cf78c612710612204565b610d019190612231565b610d0d90612710612245565b905061271062ffffff16818960200151610d279190612204565b610d319190612231565b915050610d4281886060015161138d565b9250610d528b886060015161138d565b6040516370a0823160e01b81526001600160a01b03888116600483015291935060009250908616906370a0823190602401602060405180830381865afa158015610da0573d6000803e3d6000fd5b505050506040513d601f19601f82011682018060405250810190610dc49190612258565b905082811015610e085760405163141b7cb560e21b81526001600160a01b0380871660048301528716602482015260448101849052606481018290526084016107fc565b610e1d6001600160a01b0386168730866113b2565b506000610e648c858488878e8e8080601f01602080910402602001604051908101604052809392919081815260200183838082843760009201919091525061144e92505050565b6040516370a0823160e01b81523060048201529091506000906001600160a01b038316906370a0823190602401602060405180830381865afa158015610eae573d6000803e3d6000fd5b505050506040513d601f19601f82011682018060405250810190610ed29190612258565b60c08901519091506001600160a01b031615610ffb5760c088015160405163095ea7b360e01b81526001600160a01b039182166004820152602481018390529083169063095ea7b3906044016020604051808303816000875af1158015610f3d573d6000803e3d6000fd5b505050506040513d601f19601f82011682018060405250810190610f619190611f94565b508760c001516001600160a01b031663e40d88f8896000015184610f8d8c608001518d60a0015161129d565b8560016040518663ffffffff1660e01b8152600401610fb0959493929190612271565b6060604051808303816000875af1158015610fcf573d6000803e3d6000fd5b505050506040513d601f19601f82011682018060405250810190610ff391906122b6565b505050611012565b8751611012906001600160a01b0384169083611822565b6040516370a0823160e01b81523060048201526000906001600160a01b038716906370a0823190602401602060405180830381865afa158015611059573d6000803e3d6000fd5b505050506040513d601f19601f8201168201806040525081019061107d9190612258565b90508015611099576110996001600160a01b0387168983611822565b506040516370a0823160e01b81523060048201526000906001600160a01b038816906370a0823190602401602060405180830381865afa1580156110e1573d6000803e3d6000fd5b505050506040513d601f19601f820116820180604052508101906111059190612258565b90508015611121576111216001600160a01b0388168983611822565b5050505050505050505050505050565b604051638a8cacbf60e01b815260040160405180910390fd5b604051635bb27aab60e01b8152622624ab60e91b600482018190526000917f00000000000000000000000000000000000000000000000000000000000000009190839081906001600160a01b03851690635bb27aab906024016040805180830381865afa1580156111bf573d6000803e3d6000fd5b505050506040513d601f19601f820116820180604052508101906111e391906122ef565b9150915080806111f4575060ff8216155b1561121257604051633d495ecd60e11b815260040160405180910390fd5b836001600160a01b0316639e55cba361122b85856118a9565b6040516001600160e01b031960e084901b1681526001600160c81b03199091166004820152602401602060405180830381865afa158015611270573d6000803e3d6000fd5b505050506040513d601f19601f82011682018060405250810190611294919061232f565b94505050505090565b60408051808201825265ffffffffffff848116808352848216602093840190815284519384019190915251168183015281518082038301815260609091019091525b92915050565b60025460405163e6a4390560e01b81526001600160a01b0388811660048301528781166024830152600092169063e6a4390590604401602060405180830381865afa158015611338573d6000803e3d6000fd5b505050506040513d601f19601f8201168201806040525081019061135c919061232f565b6001600160a01b03161461138357604051635c4b439f60e01b815260040160405180910390fd5b5050505050505050565b60006127106113a162ffffff841685612204565b6113ab9190612231565b9392505050565b60006040516323b872dd60e01b81526001600160a01b03851660048201526001600160a01b03841660248201528260448201526020600060648360008a5af13d15601f3d11600160005114161716915050806114475760405162461bcd60e51b81526020600482015260146024820152731514905394d1915497d19493d357d1905253115160621b60448201526064016107fc565b5050505050565b60008082806020019051810190611465919061234c565b60025460405163e6a4390560e01b81526001600160a01b0388811660048301528a811660248301529293506000929091169063e6a4390590604401602060405180830381865afa1580156114bd573d6000803e3d6000fd5b505050506040513d601f19601f820116820180604052508101906114e1919061232f565b90506001600160a01b03811661156c576002546040516364e329cb60e11b81526001600160a01b0388811660048301528a811660248301529091169063c9c65396906044016020604051808303816000875af1158015611545573d6000803e3d6000fd5b505050506040513d601f19601f82011682018060405250810190611569919061232f565b90505b600061157c888460000151611938565b9050600061158e878560000151611938565b60035460405163095ea7b360e01b81526001600160a01b039182166004820152602481018c90529192508b169063095ea7b3906044016020604051808303816000875af11580156115e3573d6000803e3d6000fd5b505050506040513d601f19601f820116820180604052508101906116079190611f94565b5060035460405163095ea7b360e01b81526001600160a01b039182166004820152602481018990529089169063095ea7b3906044016020604051808303816000875af115801561165b573d6000803e3d6000fd5b505050506040513d601f19601f8201168201806040525081019061167f9190611f94565b5060035460405162e8e33760e81b81526001600160a01b038c811660048301528a81166024830152604482018c9052606482018a90526084820185905260a482018490523060c48301524260e48301529091169063e8e3370090610104016060604051808303816000875af11580156116fc573d6000803e3d6000fd5b505050506040513d601f19601f820116820180604052508101906117209190612397565b505060035460405163095ea7b360e01b81526001600160a01b03918216600482015260006024820152908c16915063095ea7b3906044016020604051808303816000875af1158015611776573d6000803e3d6000fd5b505050506040513d601f19601f8201168201806040525081019061179a9190611f94565b5060035460405163095ea7b360e01b81526001600160a01b039182166004820152600060248201529089169063095ea7b3906044016020604051808303816000875af11580156117ee573d6000803e3d6000fd5b505050506040513d601f19601f820116820180604052508101906118129190611f94565b50919a9950505050505050505050565b600060405163a9059cbb60e01b81526001600160a01b0384166004820152826024820152602060006044836000895af13d15601f3d11600160005114161716915050806118a35760405162461bcd60e51b815260206004820152600f60248201526e1514905394d1915497d19052531151608a1b60448201526064016107fc565b50505050565b6000806118b7600a846123c5565b6118c29060306123e7565b60f81b905060006118d4600a85612400565b6118df9060306123e7565b6040516001600160f81b0319808516602083015260f89290921b91821660218201526001600160d81b03198716602282015290915060270160405160208183030381529060405261192f90612422565b95945050505050565b600061271062ffffff831611156119785760405163440e0f3160e01b815262ffffff831660048201526000602482015261271060448201526064016107fc565b6127106119858382612459565b6113a19062ffffff1685612204565b80356001600160601b03811681146119ab57600080fd5b919050565b80151581146119be57600080fd5b50565b60008083601f8401126119d357600080fd5b5081356001600160401b038111156119ea57600080fd5b602083019150836020828501011115611a0257600080fd5b9250929050565b600080600080600060808688031215611a2157600080fd5b611a2a86611994565b9450602086013593506040860135611a41816119b0565b925060608601356001600160401b03811115611a5c57600080fd5b611a68888289016119c1565b969995985093965092949392505050565b600060208284031215611a8b57600080fd5b6113ab82611994565b6001600160a01b03811681146119be57600080fd5b60008060008060008060008060e0898b031215611ac557600080fd5b611ace89611994565b97506020890135611ade81611a94565b96506040890135611aee81611a94565b95506060890135611afe81611a94565b94506080890135935060a0890135611b15816119b0565b925060c08901356001600160401b03811115611b3057600080fd5b611b3c8b828c016119c1565b999c989b5096995094979396929594505050565b600080600080600060808688031215611b6857600080fd5b611b7186611994565b9450602086013593506040860135925060608601356001600160401b03811115611a5c57600080fd5b60008060008060008060a08789031215611bb357600080fd5b611bbc87611994565b955060208701356001600160401b038082168214611bd957600080fd5b909550604088013590611beb82611a94565b9094506060880135935060808801359080821115611c0857600080fd5b50611c1589828a016119c1565b979a9699509497509295939492505050565b60005b83811015611c42578181015183820152602001611c2a565b50506000910152565b60008151808452611c63816020860160208601611c27565b601f01601f19169290920160200192915050565b6001600160a01b038a81168252602082018a90526040820189905262ffffff8816606083015265ffffffffffff8781166080840152861660a0830152841660c082015282151560e08201526101206101008201819052600090611cdc83820185611c4b565b9c9b505050505050505050505050565b600080600080600080600060c0888a031215611d0757600080fd5b611d1088611994565b96506020880135611d2081611a94565b955060408801359450606088013593506080880135611d3e816119b0565b925060a08801356001600160401b03811115611d5957600080fd5b611d658a828b016119c1565b989b979a50959850939692959293505050565b600181811c90821680611d8c57607f821691505b602082108103611dac57634e487b7160e01b600052602260045260246000fd5b50919050565b634e487b7160e01b600052604160045260246000fd5b60405160a081016001600160401b0381118282101715611dea57611dea611db2565b60405290565b604051601f8201601f191681016001600160401b0381118282101715611e1857611e18611db2565b604052919050565b62ffffff811681146119be57600080fd5b803565ffffffffffff811681146119ab57600080fd5b60006001600160401b03821115611e6057611e60611db2565b50601f01601f191660200190565b60006020808385031215611e8157600080fd5b82356001600160401b0380821115611e9857600080fd5b9084019060a08287031215611eac57600080fd5b611eb4611dc8565b8235611ebf81611e20565b8152611ecc838501611e31565b84820152611edc60408401611e31565b60408201526060830135611eef81611a94565b6060820152608083013582811115611f0657600080fd5b80840193505086601f840112611f1b57600080fd5b82359150611f30611f2b83611e47565b611df0565b8281528785848601011115611f4457600080fd5b82858501868301376000858483010152806080830152508094505050505092915050565b6001600160a01b0383168152604060208201819052600090611f8c90830184611c4b565b949350505050565b600060208284031215611fa657600080fd5b81516113ab816119b0565b601f821115611ffb57600081815260208120601f850160051c81016020861015611fd85750805b601f850160051c820191505b81811015611ff757828155600101611fe4565b5050505b505050565b81516001600160401b0381111561201957612019611db2565b61202d816120278454611d78565b84611fb1565b602080601f831160018114612062576000841561204a5750858301515b600019600386901b1c1916600185901b178555611ff7565b600085815260208120601f198616915b8281101561209157888601518255948401946001909101908401612072565b50858210156120af5787850151600019600388901b60f8161c191681555b5050505050600190811b01905550565b80516001600160c81b0319811681146119ab57600080fd5b60008060008060008060008060006101208a8c0312156120f657600080fd5b895161210181611a94565b60208b015190995061211281611a94565b60408b015190985061212381611a94565b965061213160608b016120bf565b955060808a0151945060a08a015161214881611a94565b935061215660c08b016120bf565b925060e08a0151612166816119b0565b6101008b01519092506001600160401b0381111561218357600080fd5b8a01601f81018c1361219457600080fd5b80516121a2611f2b82611e47565b8181528d60208385010111156121b757600080fd5b6121c8826020830160208601611c27565b8093505050509295985092959850929598565b634e487b7160e01b600052601160045260246000fd5b808201808211156112df576112df6121db565b80820281158282048414176112df576112df6121db565b634e487b7160e01b600052601260045260246000fd5b6000826122405761224061221b565b500490565b818103818111156112df576112df6121db565b60006020828403121561226a57600080fd5b5051919050565b6001600160a01b0386811682528516602082015260a06040820181905260009061229d90830186611c4b565b6060830194909452509015156080909101529392505050565b6000806000606084860312156122cb57600080fd5b8351925060208401516122dd81611a94565b80925050604084015190509250925092565b6000806040838503121561230257600080fd5b825160ff8116811461231357600080fd5b6020840151909250612324816119b0565b809150509250929050565b60006020828403121561234157600080fd5b81516113ab81611a94565b60006020828403121561235e57600080fd5b604051602081018181106001600160401b038211171561238057612380611db2565b604052825161238e81611e20565b81529392505050565b6000806000606084860312156123ac57600080fd5b8351925060208401519150604084015190509250925092565b600060ff8316806123d8576123d861221b565b8060ff84160491505092915050565b60ff81811683821601908111156112df576112df6121db565b600060ff8316806124135761241361221b565b8060ff84160691505092915050565b805160208201516001600160c81b031980821692919060078310156124515780818460070360031b1b83161693505b505050919050565b62ffffff828116828216039080821115612475576124756121db565b509291505056fea26469706673582212205860c09c4581bc1d5f724868147a5880f2bd802e8b7e0e97eb44bad1e598b00d64736f6c63430008130033",
    "linkReferences": {}
  },
  "methodIdentifiers": {
    "AUCTION_HOUSE()": "4226b1bf",
    "LINEAR_VESTING_KEYCODE()": "95fd2ef2",
    "ONE_HUNDRED_PERCENT()": "dd0081c7",
    "lotConfiguration(uint96)": "d5281219",
    "lotIdRegistered(uint96)": "1cae9eef",
    "onBid(uint96,uint64,address,uint256,bytes)": "b898895e",
    "onCancel(uint96,uint256,bool,bytes)": "a5658c86",
    "onCreate(uint96,address,address,address,uint256,bool,bytes)": "66e74167",
    "onCurate(uint96,uint256,bool,bytes)": "09b9601c",
    "onPurchase(uint96,address,uint256,uint256,bool,bytes)": "fc439982",
    "onSettle(uint96,uint256,uint256,bytes)": "a5b13f69",
    "uniV2Factory()": "3da04b87",
    "uniV2Router()": "958c2e52"
  },
  "id": 134
}