{
  "abi": [
    {
      "type": "constructor",
      "inputs": [
        {
          "name": "auctionHouse_",
          "type": "address",
          "internalType": "address"
        },
        {
          "name": "uniV3Factory_",
          "type": "address",
          "internalType": "address"
        },
        {
          "name": "gUniFactory_",
          "type": "address",
          "internalType": "address"
        }
      ],
      "stateMutability": "nonpayable"
    },
    {
      "type": "function",
      "name": "AUCTION_HOUSE",
      "inputs": [],
      "outputs": [
        {
          "name": "",
          "type": "address",
          "internalType": "address"
        }
      ],
      "stateMutability": "view"
    },
    {
      "type": "function",
      "name": "LINEAR_VESTING_KEYCODE",
      "inputs": [],
      "outputs": [
        {
          "name": "",
          "type": "bytes5",
          "internalType": "bytes5"
        }
      ],
      "stateMutability": "view"
    },
    {
      "type": "function",
      "name": "ONE_HUNDRED_PERCENT",
      "inputs": [],
      "outputs": [
        {
          "name": "",
          "type": "uint24",
          "internalType": "uint24"
        }
      ],
      "stateMutability": "view"
    },
    {
      "type": "function",
      "name": "gUniFactory",
      "inputs": [],
      "outputs": [
        {
          "name": "",
          "type": "address",
          "internalType": "contract IGUniFactory"
        }
      ],
      "stateMutability": "view"
    },
    {
      "type": "function",
      "name": "lotConfiguration",
      "inputs": [
        {
          "name": "lotId",
          "type": "uint96",
          "internalType": "uint96"
        }
      ],
      "outputs": [
        {
          "name": "recipient",
          "type": "address",
          "internalType": "address"
        },
        {
          "name": "lotCapacity",
          "type": "uint256",
          "internalType": "uint256"
        },
        {
          "name": "lotCuratorPayout",
          "type": "uint256",
          "internalType": "uint256"
        },
        {
          "name": "proceedsUtilisationPercent",
          "type": "uint24",
          "internalType": "uint24"
        },
        {
          "name": "vestingStart",
          "type": "uint48",
          "internalType": "uint48"
        },
        {
          "name": "vestingExpiry",
          "type": "uint48",
          "internalType": "uint48"
        },
        {
          "name": "linearVestingModule",
          "type": "address",
          "internalType": "contract LinearVesting"
        },
        {
          "name": "active",
          "type": "bool",
          "internalType": "bool"
        },
        {
          "name": "implParams",
          "type": "bytes",
          "internalType": "bytes"
        }
      ],
      "stateMutability": "view"
    },
    {
      "type": "function",
      "name": "lotIdRegistered",
      "inputs": [
        {
          "name": "",
          "type": "uint96",
          "internalType": "uint96"
        }
      ],
      "outputs": [
        {
          "name": "",
          "type": "bool",
          "internalType": "bool"
        }
      ],
      "stateMutability": "view"
    },
    {
      "type": "function",
      "name": "onBid",
      "inputs": [
        {
          "name": "lotId_",
          "type": "uint96",
          "internalType": "uint96"
        },
        {
          "name": "bidId",
          "type": "uint64",
          "internalType": "uint64"
        },
        {
          "name": "buyer_",
          "type": "address",
          "internalType": "address"
        },
        {
          "name": "amount_",
          "type": "uint256",
          "internalType": "uint256"
        },
        {
          "name": "callbackData_",
          "type": "bytes",
          "internalType": "bytes"
        }
      ],
      "outputs": [
        {
          "name": "",
          "type": "bytes4",
          "internalType": "bytes4"
        }
      ],
      "stateMutability": "nonpayable"
    },
    {
      "type": "function",
      "name": "onCancel",
      "inputs": [
        {
          "name": "lotId_",
          "type": "uint96",
          "internalType": "uint96"
        },
        {
          "name": "refund_",
          "type": "uint256",
          "internalType": "uint256"
        },
        {
          "name": "prefunded_",
          "type": "bool",
          "internalType": "bool"
        },
        {
          "name": "callbackData_",
          "type": "bytes",
          "internalType": "bytes"
        }
      ],
      "outputs": [
        {
          "name": "",
          "type": "bytes4",
          "internalType": "bytes4"
        }
      ],
      "stateMutability": "nonpayable"
    },
    {
      "type": "function",
      "name": "onCreate",
      "inputs": [
        {
          "name": "lotId_",
          "type": "uint96",
          "internalType": "uint96"
        },
        {
          "name": "seller_",
          "type": "address",
          "internalType": "address"
        },
        {
          "name": "baseToken_",
          "type": "address",
          "internalType": "address"
        },
        {
          "name": "quoteToken_",
          "type": "address",
          "internalType": "address"
        },
        {
          "name": "capacity_",
          "type": "uint256",
          "internalType": "uint256"
        },
        {
          "name": "prefund_",
          "type": "bool",
          "internalType": "bool"
        },
        {
          "name": "callbackData_",
          "type": "bytes",
          "internalType": "bytes"
        }
      ],
      "outputs": [
        {
          "name": "",
          "type": "bytes4",
          "internalType": "bytes4"
        }
      ],
      "stateMutability": "nonpayable"
    },
    {
      "type": "function",
      "name": "onCurate",
      "inputs": [
        {
          "name": "lotId_",
          "type": "uint96",
          "internalType": "uint96"
        },
        {
          "name": "curatorFee_",
          "type": "uint256",
          "internalType": "uint256"
        },
        {
          "name": "prefund_",
          "type": "bool",
          "internalType": "bool"
        },
        {
          "name": "callbackData_",
          "type": "bytes",
          "internalType": "bytes"
        }
      ],
      "outputs": [
        {
          "name": "",
          "type": "bytes4",
          "internalType": "bytes4"
        }
      ],
      "stateMutability": "nonpayable"
    },
    {
      "type": "function",
      "name": "onPurchase",
      "inputs": [
        {
          "name": "lotId_",
          "type": "uint96",
          "internalType": "uint96"
        },
        {
          "name": "buyer_",
          "type": "address",
          "internalType": "address"
        },
        {
          "name": "amount_",
          "type": "uint256",
          "internalType": "uint256"
        },
        {
          "name": "payout_",
          "type": "uint256",
          "internalType": "uint256"
        },
        {
          "name": "prefunded_",
          "type": "bool",
          "internalType": "bool"
        },
        {
          "name": "callbackData_",
          "type": "bytes",
          "internalType": "bytes"
        }
      ],
      "outputs": [
        {
          "name": "",
          "type": "bytes4",
          "internalType": "bytes4"
        }
      ],
      "stateMutability": "nonpayable"
    },
    {
      "type": "function",
      "name": "onSettle",
      "inputs": [
        {
          "name": "lotId_",
          "type": "uint96",
          "internalType": "uint96"
        },
        {
          "name": "proceeds_",
          "type": "uint256",
          "internalType": "uint256"
        },
        {
          "name": "refund_",
          "type": "uint256",
          "internalType": "uint256"
        },
        {
          "name": "callbackData_",
          "type": "bytes",
          "internalType": "bytes"
        }
      ],
      "outputs": [
        {
          "name": "",
          "type": "bytes4",
          "internalType": "bytes4"
        }
      ],
      "stateMutability": "nonpayable"
    },
    {
      "type": "function",
      "name": "uniV3Factory",
      "inputs": [],
      "outputs": [
        {
          "name": "",
          "type": "address",
          "internalType": "contract IUniswapV3Factory"
        }
      ],
      "stateMutability": "view"
    },
    {
      "type": "error",
      "name": "Callback_InsufficientBalance",
      "inputs": [
        {
          "name": "token_",
          "type": "address",
          "internalType": "address"
        },
        {
          "name": "account_",
          "type": "address",
          "internalType": "address"
        },
        {
          "name": "balance_",
          "type": "uint256",
          "internalType": "uint256"
        },
        {
          "name": "required_",
          "type": "uint256",
          "internalType": "uint256"
        }
      ]
    },
    {
      "type": "error",
      "name": "Callback_InvalidParams",
      "inputs": []
    },
    {
      "type": "error",
      "name": "Callback_LinearVestingModuleNotFound",
      "inputs": []
    },
    {
      "type": "error",
      "name": "Callback_NotAuthorized",
      "inputs": []
    },
    {
      "type": "error",
      "name": "Callback_NotImplemented",
      "inputs": []
    },
    {
      "type": "error",
      "name": "Callback_Params_InvalidAddress",
      "inputs": []
    },
    {
      "type": "error",
      "name": "Callback_Params_InvalidVestingParams",
      "inputs": []
    },
    {
      "type": "error",
      "name": "Callback_Params_PercentOutOfBounds",
      "inputs": [
        {
          "name": "actual_",
          "type": "uint24",
          "internalType": "uint24"
        },
        {
          "name": "min_",
          "type": "uint24",
          "internalType": "uint24"
        },
        {
          "name": "max_",
          "type": "uint24",
          "internalType": "uint24"
        }
      ]
    },
    {
      "type": "error",
      "name": "Callback_Params_PoolExists",
      "inputs": []
    },
    {
      "type": "error",
      "name": "Callback_Params_PoolFeeNotEnabled",
      "inputs": []
    },
    {
      "type": "error",
      "name": "Callback_Slippage",
      "inputs": [
        {
          "name": "token_",
          "type": "address",
          "internalType": "address"
        },
        {
          "name": "amountActual_",
          "type": "uint256",
          "internalType": "uint256"
        },
        {
          "name": "amountMin_",
          "type": "uint256",
          "internalType": "uint256"
        }
      ]
    },
    {
      "type": "error",
      "name": "CallbacksAddressNotValid",
      "inputs": [
        {
          "name": "callbacks",
          "type": "address",
          "internalType": "address"
        }
      ]
    }
  ],
  "bytecode": {
    "object": "0x60a06040523480156200001157600080fd5b5060405162002ffe38038062002ffe833981016040819052620000349162000236565b60408051610100810182526001808252602082018190529181018290526000606082018190526080820181905260a0820183905260c082019290925260e08101919091528390819062000088308262000122565b506001600160a01b0390811660805283169050620000b9576040516302180d7960e51b815260040160405180910390fd5b600280546001600160a01b0319166001600160a01b03848116919091179091558116620000f9576040516302180d7960e51b815260040160405180910390fd5b600380546001600160a01b0319166001600160a01b039290921691909117905550620002809050565b805115156001609f1b831615151415806200014b5750602081015115156001609e1b8316151514155b80620001655750604081015115156001609d1b8316151514155b806200017f5750606081015115156001609c1b8316151514155b80620001995750608081015115156001609b1b8316151514155b80620001b3575060a081015115156001609a1b8316151514155b80620001cd575060c08101511515600160991b8316151514155b80620001e7575060e08101511515600160981b8316151514155b1562000215576040516303b556f760e01b81526001600160a01b038316600482015260240160405180910390fd5b5050565b80516001600160a01b03811681146200023157600080fd5b919050565b6000806000606084860312156200024c57600080fd5b620002578462000219565b9250620002676020850162000219565b9150620002776040850162000219565b90509250925092565b608051612d2a620002d4600039600081816101680152818161027401528181610328015281816103f5015281816104b40152818161055a015281816106ff01528181610c51015261116a0152612d2a6000f3fe608060405234801561001057600080fd5b50600436106100cf5760003560e01c806395fd2ef21161008c578063b898895e11610066578063b898895e146101fc578063d52812191461020f578063dd0081c714610237578063fc4399821461025457600080fd5b806395fd2ef2146101b0578063a5658c86146101d6578063a5b13f69146101e957600080fd5b806309b9601c146100d45780631cae9eef14610105578063258f8931146101385780634226b1bf1461016357806366e741671461018a578063705e474b1461019d575b600080fd5b6100e76100e23660046120a7565b610267565b6040516001600160e01b031990911681526020015b60405180910390f35b610128610113366004612117565b60006020819052908152604090205460ff1681565b60405190151581526020016100fc565b60035461014b906001600160a01b031681565b6040516001600160a01b0390911681526020016100fc565b61014b7f000000000000000000000000000000000000000000000000000000000000000081565b6100e7610198366004612147565b61031b565b60025461014b906001600160a01b031681565b6101bd622624ab60e91b81565b6040516001600160d81b031990911681526020016100fc565b6100e76101e43660046120a7565b6103e8565b6100e76101f73660046121ee565b6104a7565b6100e761020a366004612238565b61054d565b61022261021d366004612117565b6105f5565b6040516100fc99989796959493929190612315565b61024061271081565b60405162ffffff90911681526020016100fc565b6100e761026236600461238a565b6106f2565b6000336001600160a01b037f000000000000000000000000000000000000000000000000000000000000000016146102b257604051630d0ec32b60e31b815260040160405180910390fd5b6001600160601b038616600090815260208190526040902054869060ff166102ed57604051630d0ec32b60e31b815260040160405180910390fd5b505050506001600160601b03929092166000908152600160205260409020600201555063026e580760e21b90565b6000336001600160a01b037f0000000000000000000000000000000000000000000000000000000000000000161461036657604051630d0ec32b60e31b815260040160405180910390fd5b6001600160601b03891660009081526020819052604090205460ff16156103a0576040516363d2088f60e11b815260040160405180910390fd5b6001600160601b0389166000908152602081905260409020805460ff191660011790556103d3898989898989898961079c565b506366e7416760e01b98975050505050505050565b6000336001600160a01b037f0000000000000000000000000000000000000000000000000000000000000000161461043357604051630d0ec32b60e31b815260040160405180910390fd5b6001600160601b038616600090815260208190526040902054869060ff1661046e57604051630d0ec32b60e31b815260040160405180910390fd5b6001600160601b0387166000908152600160205260409020600401805460ff60a01b19169055506352b2c64360e11b9695505050505050565b6000336001600160a01b037f000000000000000000000000000000000000000000000000000000000000000016146104f257604051630d0ec32b60e31b815260040160405180910390fd5b6001600160601b038616600090815260208190526040902054869060ff1661052d57604051630d0ec32b60e31b815260040160405180910390fd5b61053a8787878787610ae8565b5063a5b13f6960e01b9695505050505050565b6000336001600160a01b037f0000000000000000000000000000000000000000000000000000000000000000161461059857604051630d0ec32b60e31b815260040160405180910390fd5b6001600160601b038716600090815260208190526040902054879060ff166105d357604051630d0ec32b60e31b815260040160405180910390fd5b6105e1888888888888611131565b50635c4c44af60e11b979650505050505050565b60016020819052600091825260409091208054918101546002820154600383015460048401546005850180546001600160a01b03978816979596949562ffffff8516956301000000860465ffffffffffff90811696600160481b9004169491821693600160a01b90920460ff169290919061066f90612416565b80601f016020809104026020016040519081016040528092919081815260200182805461069b90612416565b80156106e85780601f106106bd576101008083540402835291602001916106e8565b820191906000526020600020905b8154815290600101906020018083116106cb57829003601f168201915b5050505050905089565b6000336001600160a01b037f0000000000000000000000000000000000000000000000000000000000000000161461073d57604051630d0ec32b60e31b815260040160405180910390fd5b6001600160601b038816600090815260208190526040902054889060ff1661077857604051630d0ec32b60e31b815260040160405180910390fd5b61078789898989898989611131565b50637e21ccc160e11b98975050505050505050565b60006107aa8284018461250c565b805190915062ffffff1615806107c95750805161271062ffffff909116115b1561080557805160405163440e0f3160e01b815262ffffff90911660048201526001602482015261271060448201526064015b60405180910390fd5b6000816020015165ffffffffffff16600014158061082e5750604082015165ffffffffffff1615155b156108da5761083b61114a565b9050806001600160a01b031663caf927858961085f8560200151866040015161129d565b6040518363ffffffff1660e01b815260040161087c929190612606565b602060405180830381865afa158015610899573d6000803e3d6000fd5b505050506040513d601f19601f820116820180604052508101906108bd919061262a565b6108da576040516328db098b60e01b815260040160405180910390fd5b60608201516001600160a01b0316610905576040516302180d7960e51b815260040160405180910390fd5b60405180610120016040528083606001516001600160a01b0316815260200187815260200160008152602001836000015162ffffff168152602001836020015165ffffffffffff168152602001836040015165ffffffffffff168152602001826001600160a01b031681526020016001151581526020018360800151815250600160008c6001600160601b03166001600160601b0316815260200190815260200160002060008201518160000160006101000a8154816001600160a01b0302191690836001600160a01b03160217905550602082015181600101556040820151816002015560608201518160030160006101000a81548162ffffff021916908362ffffff16021790555060808201518160030160036101000a81548165ffffffffffff021916908365ffffffffffff16021790555060a08201518160030160096101000a81548165ffffffffffff021916908365ffffffffffff16021790555060c08201518160040160006101000a8154816001600160a01b0302191690836001600160a01b0316021790555060e08201518160040160146101000a81548160ff021916908315150217905550610100820151816005019081610ac89190612696565b50905050610adc8a8a8a8a8a8a8a8a6112e5565b50505050505050505050565b6001600160601b038516600090815260016020818152604080842081516101208101835281546001600160a01b0390811682529482015493810193909352600281015491830191909152600381015462ffffff811660608401526301000000810465ffffffffffff9081166080850152600160481b9091041660a0830152600481015492831660c0830152600160a01b90920460ff16151560e082015260058201805491929161010084019190610b9e90612416565b80601f0160208091040260200160405190810160405280929190818152602001828054610bca90612416565b8015610c175780601f10610bec57610100808354040283529160200191610c17565b820191906000526020600020905b815481529060010190602001808311610bfa57829003601f168201915b505050919092525050604051634f17001d60e11b81526001600160601b038916600482015291925060009182915081906001600160a01b037f00000000000000000000000000000000000000000000000000000000000000001690639e2e003a90602401600060405180830381865afa158015610c98573d6000803e3d6000fd5b505050506040513d6000823e601f3d908101601f19168201604052610cc0919081019061276d565b50505050604089015160208a01519598509396509194506000938493849350839250610ceb91612887565b610cf78c61271061289a565b610d0191906128c7565b610d0d906127106128db565b905061271062ffffff16818960200151610d27919061289a565b610d3191906128c7565b915050610d42818860600151611441565b9250610d528b8860600151611441565b6040516370a0823160e01b81526001600160a01b03888116600483015291935060009250908616906370a0823190602401602060405180830381865afa158015610da0573d6000803e3d6000fd5b505050506040513d601f19601f82011682018060405250810190610dc491906128ee565b905082811015610e085760405163141b7cb560e21b81526001600160a01b0380871660048301528716602482015260448101849052606481018290526084016107fc565b610e1d6001600160a01b038616873086611466565b506000610e648c858488878e8e8080601f01602080910402602001604051908101604052809392919081815260200183838082843760009201919091525061150292505050565b6040516370a0823160e01b81523060048201529091506000906001600160a01b038316906370a0823190602401602060405180830381865afa158015610eae573d6000803e3d6000fd5b505050506040513d601f19601f82011682018060405250810190610ed291906128ee565b60c08901519091506001600160a01b031615610ffb5760c088015160405163095ea7b360e01b81526001600160a01b039182166004820152602481018390529083169063095ea7b3906044016020604051808303816000875af1158015610f3d573d6000803e3d6000fd5b505050506040513d601f19601f82011682018060405250810190610f61919061262a565b508760c001516001600160a01b031663e40d88f8896000015184610f8d8c608001518d60a0015161129d565b8560016040518663ffffffff1660e01b8152600401610fb0959493929190612907565b6060604051808303816000875af1158015610fcf573d6000803e3d6000fd5b505050506040513d601f19601f82011682018060405250810190610ff3919061294c565b505050611012565b8751611012906001600160a01b0384169083611a73565b6040516370a0823160e01b81523060048201526000906001600160a01b038716906370a0823190602401602060405180830381865afa158015611059573d6000803e3d6000fd5b505050506040513d601f19601f8201168201806040525081019061107d91906128ee565b90508015611099576110996001600160a01b0387168983611a73565b506040516370a0823160e01b81523060048201526000906001600160a01b038816906370a0823190602401602060405180830381865afa1580156110e1573d6000803e3d6000fd5b505050506040513d601f19601f8201168201806040525081019061110591906128ee565b90508015611121576111216001600160a01b0388168983611a73565b5050505050505050505050505050565b604051638a8cacbf60e01b815260040160405180910390fd5b604051635bb27aab60e01b8152622624ab60e91b600482018190526000917f00000000000000000000000000000000000000000000000000000000000000009190839081906001600160a01b03851690635bb27aab906024016040805180830381865afa1580156111bf573d6000803e3d6000fd5b505050506040513d601f19601f820116820180604052508101906111e39190612996565b9150915080806111f4575060ff8216155b1561121257604051633d495ecd60e11b815260040160405180910390fd5b836001600160a01b0316639e55cba361122b8585611afa565b6040516001600160e01b031960e084901b1681526001600160c81b03199091166004820152602401602060405180830381865afa158015611270573d6000803e3d6000fd5b505050506040513d601f19601f8201168201806040525081019061129491906129cd565b94505050505090565b60408051808201825265ffffffffffff848116808352848216602093840190815284519384019190915251168183015281518082038301815260609091019091525b92915050565b60006112f38284018461250c565b90506000816080015180602001905181019061130f91906129ea565b6002546040516322afcccb60e01b815262ffffff831660048201529192506001600160a01b0316906322afcccb90602401602060405180830381865afa15801561135d573d6000803e3d6000fd5b505050506040513d601f19601f820116820180604052508101906113819190612a19565b60020b6000036113a457604051635a60fc9d60e01b815260040160405180910390fd5b600254604051630b4c774160e11b81526000916001600160a01b031690631698ee82906113d9908c908c908790600401612a34565b602060405180830381865afa1580156113f6573d6000803e3d6000fd5b505050506040513d601f19601f8201168201806040525081019061141a91906129cd565b6001600160a01b031614610adc57604051635c4b439f60e01b815260040160405180910390fd5b600061271061145562ffffff84168561289a565b61145f91906128c7565b9392505050565b60006040516323b872dd60e01b81526001600160a01b03851660048201526001600160a01b03841660248201528260448201526020600060648360008a5af13d15601f3d11600160005114161716915050806114fb5760405162461bcd60e51b81526020600482015260146024820152731514905394d1915497d19493d357d1905253115160621b60448201526064016107fc565b5050505050565b600080828060200190518101906115199190612a5c565b6001600160601b03891660009081526001602052604081206005018054929350909161154490612416565b80601f016020809104026020016040519081016040528092919081815260200182805461157090612416565b80156115bd5780601f10611592576101008083540402835291602001916115bd565b820191906000526020600020905b8154815290600101906020018083116115a057829003601f168201915b50505050508060200190518101906115d591906129ea565b90506001600160a01b038087169089161060006115f48a898b8a611b89565b905061161a826116045788611606565b8a5b83611611578b611613565b895b8584611c23565b50506002546040516322afcccb60e01b815262ffffff8416600482015260009182916001600160a01b03909116906322afcccb90602401602060405180830381865afa15801561166e573d6000803e3d6000fd5b505050506040513d601f19601f820116820180604052508101906116929190612a19565b6003549091506001600160a01b031663a958b895846116b1578a6116b3565b8c5b856116be578d6116c0565b8b5b87856116d081620d89e719612aa7565b6116da9190612ae1565b86806116e9620d89e719612b08565b6116f39190612aa7565b6116fd9190612ae1565b6040516001600160e01b031960e088901b1681526001600160a01b03958616600482015294909316602485015262ffffff9091166044840152600290810b60648401520b608482015260a4016020604051808303816000875af1158015611768573d6000803e3d6000fd5b505050506040513d601f19601f8201168201806040525081019061178c91906129cd565b9150819050600080806001600160a01b038416639894f21a876117af578c6117b1565b8e5b886117bc578f6117be565b8d5b6040516001600160e01b031960e085901b16815260048101929092526024820152604401606060405180830381865afa1580156117ff573d6000803e3d6000fd5b505050506040513d601f19601f820116820180604052508101906118239190612b2a565b9250925092506000866118365782611838565b835b9050600061184a8f8b60000151611e86565b90508082101561188f578f8282604051636ad6fa4b60e01b81526004016107fc939291906001600160a01b039390931683526020830191909152604082015260600190565b8f6001600160a01b031663095ea7b388846040518363ffffffff1660e01b81526004016118d19291906001600160a01b03929092168252602082015260400190565b6020604051808303816000875af11580156118f0573d6000803e3d6000fd5b505050506040513d601f19601f82011682018060405250810190611914919061262a565b5050506000866119245783611926565b825b905060006119388d8b60000151611e86565b90508082101561197457604051636ad6fa4b60e01b81526001600160a01b038f16600482015260248101839052604481018290526064016107fc565b60405163095ea7b360e01b81526001600160a01b038881166004830152602482018490528f169063095ea7b3906044016020604051808303816000875af11580156119c3573d6000803e3d6000fd5b505050506040513d601f19601f820116820180604052508101906119e7919061262a565b50506040516394bf804d60e01b8152600481018390523060248201526001600160a01b03861691506394bf804d906044016060604051808303816000875af1158015611a37573d6000803e3d6000fd5b505050506040513d601f19601f82011682018060405250810190611a5b9190612b58565b50505050505050809450505050509695505050505050565b600060405163a9059cbb60e01b81526001600160a01b0384166004820152826024820152602060006044836000895af13d15601f3d1160016000511416171691505080611af45760405162461bcd60e51b815260206004820152600f60248201526e1514905394d1915497d19052531151608a1b60448201526064016107fc565b50505050565b600080611b08600a84612ba6565b611b13906030612bc8565b60f81b90506000611b25600a85612be1565b611b30906030612bc8565b6040516001600160f81b0319808516602083015260f89290921b91821660218201526001600160d81b031987166022820152909150602701604051602081830303815290604052611b8090612c03565b95945050505050565b6000806000856001600160a01b0316876001600160a01b031610611bae578385611bb1565b84845b915091506000611bc682600160c01b85611ee2565b90506000611bd382611f94565b90506001600160a01b03811115611c175760405162461bcd60e51b81526020600482015260086024820152676f766572666c6f7760c01b60448201526064016107fc565b98975050505050505050565b6000836001600160a01b0316856001600160a01b031610611c4357600080fd5b600254604051630b4c774160e11b81526001600160a01b0390911690631698ee8290611c7790889088908890600401612a34565b602060405180830381865afa158015611c94573d6000803e3d6000fd5b505050506040513d601f19601f82011682018060405250810190611cb891906129cd565b90506001600160a01b038116611da35760025460405163a167129560e01b81526001600160a01b039091169063a167129590611cfc90889088908890600401612a34565b6020604051808303816000875af1158015611d1b573d6000803e3d6000fd5b505050506040513d601f19601f82011682018060405250810190611d3f91906129cd565b60405163f637731d60e01b81526001600160a01b0384811660048301529192509082169063f637731d90602401600060405180830381600087803b158015611d8657600080fd5b505af1158015611d9a573d6000803e3d6000fd5b50505050611e7e565b6000816001600160a01b0316633850c7bd6040518163ffffffff1660e01b815260040160e060405180830381865afa158015611de3573d6000803e3d6000fd5b505050506040513d601f19601f82011682018060405250810190611e079190612c4c565b5050505050509050806001600160a01b0316600003611e7c5760405163f637731d60e01b81526001600160a01b03848116600483015283169063f637731d90602401600060405180830381600087803b158015611e6357600080fd5b505af1158015611e77573d6000803e3d6000fd5b505050505b505b949350505050565b600061271062ffffff83161115611ec65760405163440e0f3160e01b815262ffffff831660048201526000602482015261271060448201526064016107fc565b612710611ed38382612cd8565b6114559062ffffff168561289a565b6000808060001985870985870292508281108382030391505080600003611f1b5760008411611f1057600080fd5b50829004905061145f565b808411611f2757600080fd5b6000848688096000868103871696879004966002600389028118808a02820302808a02820302808a02820302808a02820302808a02820302808a02909103029181900381900460010186841190950394909402919094039290920491909117919091029150509392505050565b60b581600160881b8110611fad5760409190911b9060801c5b600160481b8110611fc35760209190911b9060401c5b650100000000008110611fdb5760109190911b9060201c5b63010000008110611ff15760089190911b9060101c5b62010000010260121c80820401600190811c80830401811c80830401811c80830401811c80830401811c80830401811c80830401901c908190048111900390565b80356001600160601b038116811461204957600080fd5b919050565b801515811461205c57600080fd5b50565b60008083601f84011261207157600080fd5b5081356001600160401b0381111561208857600080fd5b6020830191508360208285010111156120a057600080fd5b9250929050565b6000806000806000608086880312156120bf57600080fd5b6120c886612032565b94506020860135935060408601356120df8161204e565b925060608601356001600160401b038111156120fa57600080fd5b6121068882890161205f565b969995985093965092949392505050565b60006020828403121561212957600080fd5b61145f82612032565b6001600160a01b038116811461205c57600080fd5b60008060008060008060008060e0898b03121561216357600080fd5b61216c89612032565b9750602089013561217c81612132565b9650604089013561218c81612132565b9550606089013561219c81612132565b94506080890135935060a08901356121b38161204e565b925060c08901356001600160401b038111156121ce57600080fd5b6121da8b828c0161205f565b999c989b5096995094979396929594505050565b60008060008060006080868803121561220657600080fd5b61220f86612032565b9450602086013593506040860135925060608601356001600160401b038111156120fa57600080fd5b60008060008060008060a0878903121561225157600080fd5b61225a87612032565b955060208701356001600160401b03808216821461227757600080fd5b90955060408801359061228982612132565b90945060608801359350608088013590808211156122a657600080fd5b506122b389828a0161205f565b979a9699509497509295939492505050565b60005b838110156122e05781810151838201526020016122c8565b50506000910152565b600081518084526123018160208601602086016122c5565b601f01601f19169290920160200192915050565b6001600160a01b038a81168252602082018a90526040820189905262ffffff8816606083015265ffffffffffff8781166080840152861660a0830152841660c082015282151560e0820152610120610100820181905260009061237a838201856122e9565b9c9b505050505050505050505050565b600080600080600080600060c0888a0312156123a557600080fd5b6123ae88612032565b965060208801356123be81612132565b9550604088013594506060880135935060808801356123dc8161204e565b925060a08801356001600160401b038111156123f757600080fd5b6124038a828b0161205f565b989b979a50959850939692959293505050565b600181811c9082168061242a57607f821691505b60208210810361244a57634e487b7160e01b600052602260045260246000fd5b50919050565b634e487b7160e01b600052604160045260246000fd5b60405160a081016001600160401b038111828210171561248857612488612450565b60405290565b604051601f8201601f191681016001600160401b03811182821017156124b6576124b6612450565b604052919050565b62ffffff8116811461205c57600080fd5b803565ffffffffffff8116811461204957600080fd5b60006001600160401b038211156124fe576124fe612450565b50601f01601f191660200190565b6000602080838503121561251f57600080fd5b82356001600160401b038082111561253657600080fd5b9084019060a0828703121561254a57600080fd5b612552612466565b823561255d816124be565b815261256a8385016124cf565b8482015261257a604084016124cf565b6040820152606083013561258d81612132565b60608201526080830135828111156125a457600080fd5b80840193505086601f8401126125b957600080fd5b823591506125ce6125c9836124e5565b61248e565b82815287858486010111156125e257600080fd5b82858501868301376000858483010152806080830152508094505050505092915050565b6001600160a01b0383168152604060208201819052600090611e7e908301846122e9565b60006020828403121561263c57600080fd5b815161145f8161204e565b601f82111561269157600081815260208120601f850160051c8101602086101561266e5750805b601f850160051c820191505b8181101561268d5782815560010161267a565b5050505b505050565b81516001600160401b038111156126af576126af612450565b6126c3816126bd8454612416565b84612647565b602080601f8311600181146126f857600084156126e05750858301515b600019600386901b1c1916600185901b17855561268d565b600085815260208120601f198616915b8281101561272757888601518255948401946001909101908401612708565b50858210156127455787850151600019600388901b60f8161c191681555b5050505050600190811b01905550565b80516001600160c81b03198116811461204957600080fd5b60008060008060008060008060006101208a8c03121561278c57600080fd5b895161279781612132565b60208b01519099506127a881612132565b60408b01519098506127b981612132565b96506127c760608b01612755565b955060808a0151945060a08a01516127de81612132565b93506127ec60c08b01612755565b925060e08a01516127fc8161204e565b6101008b01519092506001600160401b0381111561281957600080fd5b8a01601f81018c1361282a57600080fd5b80516128386125c9826124e5565b8181528d602083850101111561284d57600080fd5b61285e8260208301602086016122c5565b8093505050509295985092959850929598565b634e487b7160e01b600052601160045260246000fd5b808201808211156112df576112df612871565b80820281158282048414176112df576112df612871565b634e487b7160e01b600052601260045260246000fd5b6000826128d6576128d66128b1565b500490565b818103818111156112df576112df612871565b60006020828403121561290057600080fd5b5051919050565b6001600160a01b0386811682528516602082015260a060408201819052600090612933908301866122e9565b6060830194909452509015156080909101529392505050565b60008060006060848603121561296157600080fd5b83519250602084015161297381612132565b80925050604084015190509250925092565b805160ff8116811461204957600080fd5b600080604083850312156129a957600080fd5b6129b283612985565b915060208301516129c28161204e565b809150509250929050565b6000602082840312156129df57600080fd5b815161145f81612132565b6000602082840312156129fc57600080fd5b815161145f816124be565b8051600281900b811461204957600080fd5b600060208284031215612a2b57600080fd5b61145f82612a07565b6001600160a01b03938416815291909216602082015262ffffff909116604082015260600190565b600060208284031215612a6e57600080fd5b604051602081018181106001600160401b0382111715612a9057612a90612450565b6040528251612a9e816124be565b81529392505050565b60008160020b8360020b80612abe57612abe6128b1565b627fffff19821460001982141615612ad857612ad8612871565b90059392505050565b60008260020b8260020b028060020b9150808214612b0157612b01612871565b5092915050565b60008160020b627fffff198103612b2157612b21612871565b60000392915050565b600080600060608486031215612b3f57600080fd5b8351925060208401519150604084015190509250925092565b600080600060608486031215612b6d57600080fd5b835192506020840151915060408401516fffffffffffffffffffffffffffffffff81168114612b9b57600080fd5b809150509250925092565b600060ff831680612bb957612bb96128b1565b8060ff84160491505092915050565b60ff81811683821601908111156112df576112df612871565b600060ff831680612bf457612bf46128b1565b8060ff84160691505092915050565b805160208201516001600160c81b03198082169291906007831015612c325780818460070360031b1b83161693505b505050919050565b805161ffff8116811461204957600080fd5b600080600080600080600060e0888a031215612c6757600080fd5b8751612c7281612132565b9650612c8060208901612a07565b9550612c8e60408901612c3a565b9450612c9c60608901612c3a565b9350612caa60808901612c3a565b9250612cb860a08901612985565b915060c0880151612cc88161204e565b8091505092959891949750929550565b62ffffff828116828216039080821115612b0157612b0161287156fea26469706673582212207cec069138ae11a4d6165cc76e318bcd4231f577301063f0df974cb4d8ff2dd964736f6c63430008130033",
    "linkReferences": {}
  },
  "methodIdentifiers": {
    "AUCTION_HOUSE()": "4226b1bf",
    "LINEAR_VESTING_KEYCODE()": "95fd2ef2",
    "ONE_HUNDRED_PERCENT()": "dd0081c7",
    "gUniFactory()": "258f8931",
    "lotConfiguration(uint96)": "d5281219",
    "lotIdRegistered(uint96)": "1cae9eef",
    "onBid(uint96,uint64,address,uint256,bytes)": "b898895e",
    "onCancel(uint96,uint256,bool,bytes)": "a5658c86",
    "onCreate(uint96,address,address,address,uint256,bool,bytes)": "66e74167",
    "onCurate(uint96,uint256,bool,bytes)": "09b9601c",
    "onPurchase(uint96,address,uint256,uint256,bool,bytes)": "fc439982",
    "onSettle(uint96,uint256,uint256,bytes)": "a5b13f69",
    "uniV3Factory()": "705e474b"
  },
  "id": 135
}